{
  "contractName": "ApexMain",
  "abi": [
    {
      "inputs": [
        {
          "internalType": "contract ApexToken",
          "name": "_apex",
          "type": "address"
        },
        {
          "internalType": "contract TopReferrer",
          "name": "_referrer",
          "type": "address"
        },
        {
          "internalType": "contract ExchangeConnector",
          "name": "_connector",
          "type": "address"
        },
        {
          "internalType": "address",
          "name": "_initialReferral",
          "type": "address"
        }
      ],
      "stateMutability": "nonpayable",
      "type": "constructor"
    },
    {
      "anonymous": false,
      "inputs": [
        {
          "indexed": true,
          "internalType": "address",
          "name": "user",
          "type": "address"
        },
        {
          "indexed": true,
          "internalType": "uint256",
          "name": "pid",
          "type": "uint256"
        },
        {
          "indexed": false,
          "internalType": "uint256",
          "name": "amount",
          "type": "uint256"
        }
      ],
      "name": "Deposit",
      "type": "event"
    },
    {
      "anonymous": false,
      "inputs": [
        {
          "indexed": true,
          "internalType": "address",
          "name": "dst",
          "type": "address"
        },
        {
          "indexed": false,
          "internalType": "uint256",
          "name": "value",
          "type": "uint256"
        }
      ],
      "name": "LiquidityAddition",
      "type": "event"
    },
    {
      "anonymous": false,
      "inputs": [
        {
          "indexed": true,
          "internalType": "address",
          "name": "previousOwner",
          "type": "address"
        },
        {
          "indexed": true,
          "internalType": "address",
          "name": "newOwner",
          "type": "address"
        }
      ],
      "name": "OwnershipTransferred",
      "type": "event"
    },
    {
      "anonymous": false,
      "inputs": [
        {
          "indexed": false,
          "internalType": "uint256",
          "name": "amount",
          "type": "uint256"
        }
      ],
      "name": "RewardDecrease",
      "type": "event"
    },
    {
      "anonymous": false,
      "inputs": [
        {
          "indexed": false,
          "internalType": "uint256",
          "name": "amount",
          "type": "uint256"
        }
      ],
      "name": "Start",
      "type": "event"
    },
    {
      "anonymous": false,
      "inputs": [
        {
          "indexed": true,
          "internalType": "address",
          "name": "user",
          "type": "address"
        },
        {
          "indexed": true,
          "internalType": "uint256",
          "name": "pid",
          "type": "uint256"
        },
        {
          "indexed": false,
          "internalType": "uint256",
          "name": "amount",
          "type": "uint256"
        }
      ],
      "name": "Withdraw",
      "type": "event"
    },
    {
      "inputs": [],
      "name": "BLOCK_PER_DAY",
      "outputs": [
        {
          "internalType": "uint256",
          "name": "",
          "type": "uint256"
        }
      ],
      "stateMutability": "view",
      "type": "function",
      "constant": true
    },
    {
      "inputs": [],
      "name": "DURATION",
      "outputs": [
        {
          "internalType": "uint256",
          "name": "",
          "type": "uint256"
        }
      ],
      "stateMutability": "view",
      "type": "function",
      "constant": true
    },
    {
      "inputs": [],
      "name": "LPGenerationCompleted",
      "outputs": [
        {
          "internalType": "bool",
          "name": "",
          "type": "bool"
        }
      ],
      "stateMutability": "view",
      "type": "function",
      "constant": true
    },
    {
      "inputs": [],
      "name": "LPperETHUnit",
      "outputs": [
        {
          "internalType": "uint256",
          "name": "",
          "type": "uint256"
        }
      ],
      "stateMutability": "view",
      "type": "function",
      "constant": true
    },
    {
      "inputs": [],
      "name": "SECONDS_PER_DAY",
      "outputs": [
        {
          "internalType": "uint256",
          "name": "",
          "type": "uint256"
        }
      ],
      "stateMutability": "view",
      "type": "function",
      "constant": true
    },
    {
      "inputs": [],
      "name": "TOTAL_DURATION",
      "outputs": [
        {
          "internalType": "uint256",
          "name": "",
          "type": "uint256"
        }
      ],
      "stateMutability": "view",
      "type": "function",
      "constant": true
    },
    {
      "inputs": [],
      "name": "apex",
      "outputs": [
        {
          "internalType": "contract ApexToken",
          "name": "",
          "type": "address"
        }
      ],
      "stateMutability": "view",
      "type": "function",
      "constant": true
    },
    {
      "inputs": [],
      "name": "connector",
      "outputs": [
        {
          "internalType": "contract ExchangeConnector",
          "name": "",
          "type": "address"
        }
      ],
      "stateMutability": "view",
      "type": "function",
      "constant": true
    },
    {
      "inputs": [],
      "name": "decreaseRewardRate",
      "outputs": [
        {
          "internalType": "uint256",
          "name": "",
          "type": "uint256"
        }
      ],
      "stateMutability": "view",
      "type": "function",
      "constant": true
    },
    {
      "inputs": [],
      "name": "decreaseRewardTime",
      "outputs": [
        {
          "internalType": "uint256",
          "name": "",
          "type": "uint256"
        }
      ],
      "stateMutability": "view",
      "type": "function",
      "constant": true
    },
    {
      "inputs": [],
      "name": "haveStarted",
      "outputs": [
        {
          "internalType": "bool",
          "name": "",
          "type": "bool"
        }
      ],
      "stateMutability": "view",
      "type": "function",
      "constant": true
    },
    {
      "inputs": [],
      "name": "initReward",
      "outputs": [
        {
          "internalType": "uint256",
          "name": "",
          "type": "uint256"
        }
      ],
      "stateMutability": "view",
      "type": "function",
      "constant": true
    },
    {
      "inputs": [
        {
          "internalType": "uint256",
          "name": "",
          "type": "uint256"
        }
      ],
      "name": "initialWhitelistParticipants",
      "outputs": [
        {
          "internalType": "address",
          "name": "",
          "type": "address"
        }
      ],
      "stateMutability": "view",
      "type": "function",
      "constant": true
    },
    {
      "inputs": [],
      "name": "lastDistributeTime",
      "outputs": [
        {
          "internalType": "uint256",
          "name": "",
          "type": "uint256"
        }
      ],
      "stateMutability": "view",
      "type": "function",
      "constant": true
    },
    {
      "inputs": [],
      "name": "lastUpdateTime",
      "outputs": [
        {
          "internalType": "uint256",
          "name": "",
          "type": "uint256"
        }
      ],
      "stateMutability": "view",
      "type": "function",
      "constant": true
    },
    {
      "inputs": [],
      "name": "owner",
      "outputs": [
        {
          "internalType": "address",
          "name": "",
          "type": "address"
        }
      ],
      "stateMutability": "view",
      "type": "function",
      "constant": true
    },
    {
      "inputs": [
        {
          "internalType": "uint256",
          "name": "",
          "type": "uint256"
        }
      ],
      "name": "poolInfo",
      "outputs": [
        {
          "internalType": "contract IERC20",
          "name": "poolToken",
          "type": "address"
        },
        {
          "internalType": "uint256",
          "name": "allocPoint",
          "type": "uint256"
        },
        {
          "internalType": "uint256",
          "name": "lastRewardBlock",
          "type": "uint256"
        },
        {
          "internalType": "uint256",
          "name": "accApexPerShare",
          "type": "uint256"
        }
      ],
      "stateMutability": "view",
      "type": "function",
      "constant": true
    },
    {
      "inputs": [
        {
          "internalType": "address",
          "name": "",
          "type": "address"
        }
      ],
      "name": "referrerInfo",
      "outputs": [
        {
          "internalType": "address",
          "name": "",
          "type": "address"
        }
      ],
      "stateMutability": "view",
      "type": "function",
      "constant": true
    },
    {
      "inputs": [],
      "name": "renounceOwnership",
      "outputs": [],
      "stateMutability": "nonpayable",
      "type": "function"
    },
    {
      "inputs": [],
      "name": "rewardPerLPToken",
      "outputs": [
        {
          "internalType": "uint256",
          "name": "",
          "type": "uint256"
        }
      ],
      "stateMutability": "view",
      "type": "function",
      "constant": true
    },
    {
      "inputs": [],
      "name": "rewardRate",
      "outputs": [
        {
          "internalType": "uint256",
          "name": "",
          "type": "uint256"
        }
      ],
      "stateMutability": "view",
      "type": "function",
      "constant": true
    },
    {
      "inputs": [],
      "name": "stableRewardStartTime",
      "outputs": [
        {
          "internalType": "uint256",
          "name": "",
          "type": "uint256"
        }
      ],
      "stateMutability": "view",
      "type": "function",
      "constant": true
    },
    {
      "inputs": [],
      "name": "topReferrer",
      "outputs": [
        {
          "internalType": "contract TopReferrer",
          "name": "",
          "type": "address"
        }
      ],
      "stateMutability": "view",
      "type": "function",
      "constant": true
    },
    {
      "inputs": [],
      "name": "totalAllocPoint",
      "outputs": [
        {
          "internalType": "uint256",
          "name": "",
          "type": "uint256"
        }
      ],
      "stateMutability": "view",
      "type": "function",
      "constant": true
    },
    {
      "inputs": [],
      "name": "totalLPTokensMinted",
      "outputs": [
        {
          "internalType": "uint256",
          "name": "",
          "type": "uint256"
        }
      ],
      "stateMutability": "view",
      "type": "function",
      "constant": true
    },
    {
      "inputs": [],
      "name": "totalPrizePool",
      "outputs": [
        {
          "internalType": "uint256",
          "name": "",
          "type": "uint256"
        }
      ],
      "stateMutability": "view",
      "type": "function",
      "constant": true
    },
    {
      "inputs": [],
      "name": "totalWhitelistContributed",
      "outputs": [
        {
          "internalType": "uint256",
          "name": "",
          "type": "uint256"
        }
      ],
      "stateMutability": "view",
      "type": "function",
      "constant": true
    },
    {
      "inputs": [
        {
          "internalType": "address",
          "name": "newOwner",
          "type": "address"
        }
      ],
      "name": "transferOwnership",
      "outputs": [],
      "stateMutability": "nonpayable",
      "type": "function"
    },
    {
      "inputs": [
        {
          "internalType": "uint256",
          "name": "",
          "type": "uint256"
        },
        {
          "internalType": "address",
          "name": "",
          "type": "address"
        }
      ],
      "name": "userInfo",
      "outputs": [
        {
          "internalType": "uint256",
          "name": "amount",
          "type": "uint256"
        },
        {
          "internalType": "uint256",
          "name": "rewardDebt",
          "type": "uint256"
        }
      ],
      "stateMutability": "view",
      "type": "function",
      "constant": true
    },
    {
      "inputs": [
        {
          "internalType": "address",
          "name": "",
          "type": "address"
        }
      ],
      "name": "whitelistContributed",
      "outputs": [
        {
          "internalType": "uint256",
          "name": "",
          "type": "uint256"
        }
      ],
      "stateMutability": "view",
      "type": "function",
      "constant": true
    },
    {
      "inputs": [
        {
          "internalType": "address payable",
          "name": "account",
          "type": "address"
        }
      ],
      "name": "setDevAddress",
      "outputs": [],
      "stateMutability": "nonpayable",
      "type": "function"
    },
    {
      "inputs": [],
      "name": "poolLength",
      "outputs": [
        {
          "internalType": "uint256",
          "name": "",
          "type": "uint256"
        }
      ],
      "stateMutability": "view",
      "type": "function",
      "constant": true
    },
    {
      "inputs": [],
      "name": "startFarming",
      "outputs": [],
      "stateMutability": "nonpayable",
      "type": "function"
    },
    {
      "inputs": [],
      "name": "distributePrizePool",
      "outputs": [],
      "stateMutability": "nonpayable",
      "type": "function"
    },
    {
      "inputs": [
        {
          "internalType": "uint256",
          "name": "_allocPoint",
          "type": "uint256"
        },
        {
          "internalType": "contract IERC20",
          "name": "_poolToken",
          "type": "address"
        },
        {
          "internalType": "bool",
          "name": "_withUpdate",
          "type": "bool"
        }
      ],
      "name": "add",
      "outputs": [],
      "stateMutability": "nonpayable",
      "type": "function"
    },
    {
      "inputs": [
        {
          "internalType": "uint256",
          "name": "_pid",
          "type": "uint256"
        },
        {
          "internalType": "address",
          "name": "_user",
          "type": "address"
        }
      ],
      "name": "pendingApex",
      "outputs": [
        {
          "internalType": "uint256",
          "name": "",
          "type": "uint256"
        }
      ],
      "stateMutability": "view",
      "type": "function",
      "constant": true
    },
    {
      "inputs": [],
      "name": "massUpdatePools",
      "outputs": [],
      "stateMutability": "nonpayable",
      "type": "function"
    },
    {
      "inputs": [
        {
          "internalType": "uint256",
          "name": "_pid",
          "type": "uint256"
        }
      ],
      "name": "updatePool",
      "outputs": [],
      "stateMutability": "nonpayable",
      "type": "function"
    },
    {
      "inputs": [
        {
          "internalType": "address",
          "name": "referrerAddress",
          "type": "address"
        }
      ],
      "name": "depositWhitelist",
      "outputs": [],
      "stateMutability": "payable",
      "type": "function",
      "payable": true
    },
    {
      "inputs": [],
      "name": "liquidityGenerationUniswapAPEXxWETHPair",
      "outputs": [],
      "stateMutability": "nonpayable",
      "type": "function"
    },
    {
      "inputs": [
        {
          "internalType": "uint256",
          "name": "_pid",
          "type": "uint256"
        },
        {
          "internalType": "uint256",
          "name": "_amount",
          "type": "uint256"
        },
        {
          "internalType": "address",
          "name": "referrerAddress",
          "type": "address"
        }
      ],
      "name": "deposit",
      "outputs": [],
      "stateMutability": "payable",
      "type": "function",
      "payable": true
    },
    {
      "inputs": [
        {
          "internalType": "uint256",
          "name": "_pid",
          "type": "uint256"
        },
        {
          "internalType": "uint256",
          "name": "_amount",
          "type": "uint256"
        }
      ],
      "name": "withdraw",
      "outputs": [],
      "stateMutability": "nonpayable",
      "type": "function"
    }
  ],
  "bytecode": "0x6080604052688a81bf7307a30c00006006556000600760006101000a81548160ff021916908315150217905550600060085560006009556001600a556000600b556000600c556000600d556000600e5560006018553480156200006157600080fd5b50604051620051fa380380620051fa833981810160405260808110156200008757600080fd5b81019080805190602001909291908051906020019092919080519060200190929190805190602001909291905050506000620000c8620003bb60201b60201c565b9050806000806101000a81548173ffffffffffffffffffffffffffffffffffffffff021916908373ffffffffffffffffffffffffffffffffffffffff1602179055508073ffffffffffffffffffffffffffffffffffffffff16600073ffffffffffffffffffffffffffffffffffffffff167f8be0079c531659141344cd1fd0a4f28419497f9722a3daafe3b4186f6b6457e060405160405180910390a35083600160006101000a81548173ffffffffffffffffffffffffffffffffffffffff021916908373ffffffffffffffffffffffffffffffffffffffff16021790555082600260006101000a81548173ffffffffffffffffffffffffffffffffffffffff021916908373ffffffffffffffffffffffffffffffffffffffff16021790555081600360006101000a81548173ffffffffffffffffffffffffffffffffffffffff021916908373ffffffffffffffffffffffffffffffffffffffff16021790555080600460006101000a81548173ffffffffffffffffffffffffffffffffffffffff021916908373ffffffffffffffffffffffffffffffffffffffff1602179055506013600460009054906101000a900473ffffffffffffffffffffffffffffffffffffffff169080600181540180825580915050600190039060005260206000200160009091909190916101000a81548173ffffffffffffffffffffffffffffffffffffffff021916908373ffffffffffffffffffffffffffffffffffffffff160217905550600460009054906101000a900473ffffffffffffffffffffffffffffffffffffffff1660166000600460009054906101000a900473ffffffffffffffffffffffffffffffffffffffff1673ffffffffffffffffffffffffffffffffffffffff1673ffffffffffffffffffffffffffffffffffffffff16815260200190815260200160002060006101000a81548173ffffffffffffffffffffffffffffffffffffffff021916908373ffffffffffffffffffffffffffffffffffffffff16021790555050505050620003c3565b600033905090565b614e2780620003d36000396000f3fe6080604052600436106102505760003560e01c8063711a4f6211610139578063afbcfea1116100b6578063d546cbbb1161007a578063d546cbbb14610ab7578063d970e67414610ae2578063f2f3d09214610b0d578063f2fde38b14610b38578063f712d92214610b89578063ff295c5d14610bb457610250565b8063afbcfea1146109b5578063c6570d85146109cc578063c8f33c91146109f7578063d0d41fe114610a22578063d1bc1d7314610a7357610250565b80638da5cb5b116100fd5780638da5cb5b146108645780638dbdbe6d146108a557806393f1a40b146108fd5780639bfffad7146109735780639ef3c4581461099e57610250565b8063711a4f621461073b578063715018a6146107b657806374f0314f146107cd5780637b0a47ee146107f857806383f3084f1461082357610250565b80633232ff7b116101d25780634195acdf116101965780634195acdf1461058f578063441a3e70146105d0578063456385731461061557806351eb05a61461067a578063630b5ba1146106b55780636bd6ee7c146106cc57610250565b80633232ff7b146104b657806335f50ade146104e1578063398ab9a71461050e5780633cee98a6146105395780633cf6bcfe1461056457610250565b806317caf6f11161021957806317caf6f1146103695780631be05289146103945780631eaaa045146103bf5780632af1af801461042657806331a22a201461048b57610250565b80622b132914610255578063081e3eda1461028057806314b8fecc146102ab57806314fbeba9146102d85780631526fe27146102ef575b600080fd5b34801561026157600080fd5b5061026a610bf5565b6040518082815260200191505060405180910390f35b34801561028c57600080fd5b50610295610bfb565b6040518082815260200191505060405180910390f35b3480156102b757600080fd5b506102c0610c08565b60405180821515815260200191505060405180910390f35b3480156102e457600080fd5b506102ed610c1b565b005b3480156102fb57600080fd5b506103286004803603602081101561031257600080fd5b810190808035906020019092919050505061171c565b604051808573ffffffffffffffffffffffffffffffffffffffff16815260200184815260200183815260200182815260200194505050505060405180910390f35b34801561037557600080fd5b5061037e611779565b6040518082815260200191505060405180910390f35b3480156103a057600080fd5b506103a961177f565b6040518082815260200191505060405180910390f35b3480156103cb57600080fd5b50610424600480360360608110156103e257600080fd5b8101908080359060200190929190803573ffffffffffffffffffffffffffffffffffffffff169060200190929190803515159060200190929190505050611786565b005b34801561043257600080fd5b506104756004803603602081101561044957600080fd5b81019080803573ffffffffffffffffffffffffffffffffffffffff16906020019092919050505061194d565b6040518082815260200191505060405180910390f35b34801561049757600080fd5b506104a0611965565b6040518082815260200191505060405180910390f35b3480156104c257600080fd5b506104cb61196b565b6040518082815260200191505060405180910390f35b3480156104ed57600080fd5b506104f6611971565b60405180821515815260200191505060405180910390f35b34801561051a57600080fd5b50610523611984565b6040518082815260200191505060405180910390f35b34801561054557600080fd5b5061054e61198a565b6040518082815260200191505060405180910390f35b34801561057057600080fd5b50610579611990565b6040518082815260200191505060405180910390f35b34801561059b57600080fd5b506105a4611996565b604051808273ffffffffffffffffffffffffffffffffffffffff16815260200191505060405180910390f35b3480156105dc57600080fd5b50610613600480360360408110156105f357600080fd5b8101908080359060200190929190803590602001909291905050506119bc565b005b34801561062157600080fd5b5061064e6004803603602081101561063857600080fd5b8101908080359060200190929190505050611c22565b604051808273ffffffffffffffffffffffffffffffffffffffff16815260200191505060405180910390f35b34801561068657600080fd5b506106b36004803603602081101561069d57600080fd5b8101908080359060200190929190505050611c5e565b005b3480156106c157600080fd5b506106ca611e57565b005b3480156106d857600080fd5b50610725600480360360408110156106ef57600080fd5b8101908080359060200190929190803573ffffffffffffffffffffffffffffffffffffffff169060200190929190505050611e84565b6040518082815260200191505060405180910390f35b34801561074757600080fd5b5061078a6004803603602081101561075e57600080fd5b81019080803573ffffffffffffffffffffffffffffffffffffffff169060200190929190505050612102565b604051808273ffffffffffffffffffffffffffffffffffffffff16815260200191505060405180910390f35b3480156107c257600080fd5b506107cb612135565b005b3480156107d957600080fd5b506107e26122bb565b6040518082815260200191505060405180910390f35b34801561080457600080fd5b5061080d6122c2565b6040518082815260200191505060405180910390f35b34801561082f57600080fd5b506108386122c8565b604051808273ffffffffffffffffffffffffffffffffffffffff16815260200191505060405180910390f35b34801561087057600080fd5b506108796122ee565b604051808273ffffffffffffffffffffffffffffffffffffffff16815260200191505060405180910390f35b6108fb600480360360608110156108bb57600080fd5b810190808035906020019092919080359060200190929190803573ffffffffffffffffffffffffffffffffffffffff169060200190929190505050612317565b005b34801561090957600080fd5b506109566004803603604081101561092057600080fd5b8101908080359060200190929190803573ffffffffffffffffffffffffffffffffffffffff169060200190929190505050612a3d565b604051808381526020018281526020019250505060405180910390f35b34801561097f57600080fd5b50610988612a6e565b6040518082815260200191505060405180910390f35b3480156109aa57600080fd5b506109b3612a74565b005b3480156109c157600080fd5b506109ca612bc0565b005b3480156109d857600080fd5b506109e1612f2a565b6040518082815260200191505060405180910390f35b348015610a0357600080fd5b50610a0c612f30565b6040518082815260200191505060405180910390f35b348015610a2e57600080fd5b50610a7160048036036020811015610a4557600080fd5b81019080803573ffffffffffffffffffffffffffffffffffffffff169060200190929190505050612f36565b005b610ab560048036036020811015610a8957600080fd5b81019080803573ffffffffffffffffffffffffffffffffffffffff169060200190929190505050613042565b005b348015610ac357600080fd5b50610acc613f35565b6040518082815260200191505060405180910390f35b348015610aee57600080fd5b50610af7613f3b565b6040518082815260200191505060405180910390f35b348015610b1957600080fd5b50610b22613f41565b6040518082815260200191505060405180910390f35b348015610b4457600080fd5b50610b8760048036036020811015610b5b57600080fd5b81019080803573ffffffffffffffffffffffffffffffffffffffff169060200190929190505050613f48565b005b348015610b9557600080fd5b50610b9e614153565b6040518082815260200191505060405180910390f35b348015610bc057600080fd5b50610bc9614159565b604051808273ffffffffffffffffffffffffffffffffffffffff16815260200191505060405180910390f35b600f5481565b6000601480549050905090565b600560149054906101000a900460ff1681565b60001515600560149054906101000a900460ff16151514610c87576040517f08c379a0000000000000000000000000000000000000000000000000000000008152600401808060200182810382526025815260200180614dcd6025913960400191505060405180910390fd5b610cae6064610ca060074761417f90919063ffffffff16565b61420590919063ffffffff16565b601181905550600560009054906101000a900473ffffffffffffffffffffffffffffffffffffffff1673ffffffffffffffffffffffffffffffffffffffff166108fc610d176064610d0960044761417f90919063ffffffff16565b61420590919063ffffffff16565b9081150290604051600060405180830381858888f19350505050158015610d42573d6000803e3d6000fd5b50600260009054906101000a900473ffffffffffffffffffffffffffffffffffffffff1673ffffffffffffffffffffffffffffffffffffffff1663855a0fe36011546040518263ffffffff1660e01b81526004016000604051808303818588803b158015610daf57600080fd5b505af1158015610dc3573d6000803e3d6000fd5b5050505050476010819055506000600360009054906101000a900473ffffffffffffffffffffffffffffffffffffffff1673ffffffffffffffffffffffffffffffffffffffff1663596fa9e36040518163ffffffff1660e01b815260040160206040518083038186803b158015610e3957600080fd5b505afa158015610e4d573d6000803e3d6000fd5b505050506040513d6020811015610e6357600080fd5b810190808051906020019092919050505073ffffffffffffffffffffffffffffffffffffffff1663ad5c46486040518163ffffffff1660e01b815260040160206040518083038186803b158015610eb957600080fd5b505afa158015610ecd573d6000803e3d6000fd5b505050506040513d6020811015610ee357600080fd5b810190808051906020019092919050505090508073ffffffffffffffffffffffffffffffffffffffff1663d0e30db06010546040518263ffffffff1660e01b81526004016000604051808303818588803b158015610f4057600080fd5b505af1158015610f54573d6000803e3d6000fd5b505050505060004714610fcf576040517f08c379a000000000000000000000000000000000000000000000000000000000815260040180806020018281038252600f8152602001807f5472616e73666572204661696c6564000000000000000000000000000000000081525060200191505060405180910390fd5b8073ffffffffffffffffffffffffffffffffffffffff1663a9059cbb600360009054906101000a900473ffffffffffffffffffffffffffffffffffffffff1673ffffffffffffffffffffffffffffffffffffffff1663a8aa1b316040518163ffffffff1660e01b815260040160206040518083038186803b15801561105357600080fd5b505afa158015611067573d6000803e3d6000fd5b505050506040513d602081101561107d57600080fd5b81019080805190602001909291905050506010546040518363ffffffff1660e01b8152600401808373ffffffffffffffffffffffffffffffffffffffff16815260200182815260200192505050602060405180830381600087803b1580156110e457600080fd5b505af11580156110f8573d6000803e3d6000fd5b505050506040513d602081101561110e57600080fd5b810190808051906020019092919050505050600160009054906101000a900473ffffffffffffffffffffffffffffffffffffffff1673ffffffffffffffffffffffffffffffffffffffff166340c10f19306907d5c6261d992d2000006040518363ffffffff1660e01b8152600401808373ffffffffffffffffffffffffffffffffffffffff16815260200182815260200192505050600060405180830381600087803b1580156111bd57600080fd5b505af11580156111d1573d6000803e3d6000fd5b50505050611344600360009054906101000a900473ffffffffffffffffffffffffffffffffffffffff1673ffffffffffffffffffffffffffffffffffffffff1663a8aa1b316040518163ffffffff1660e01b815260040160206040518083038186803b15801561124057600080fd5b505afa158015611254573d6000803e3d6000fd5b505050506040513d602081101561126a57600080fd5b8101908080519060200190929190505050600160009054906101000a900473ffffffffffffffffffffffffffffffffffffffff1673ffffffffffffffffffffffffffffffffffffffff166370a08231306040518263ffffffff1660e01b8152600401808273ffffffffffffffffffffffffffffffffffffffff16815260200191505060206040518083038186803b15801561130457600080fd5b505afa158015611318573d6000803e3d6000fd5b505050506040513d602081101561132e57600080fd5b810190808051906020019092919050505061424f565b600360009054906101000a900473ffffffffffffffffffffffffffffffffffffffff1673ffffffffffffffffffffffffffffffffffffffff1663a8aa1b316040518163ffffffff1660e01b815260040160206040518083038186803b1580156113ac57600080fd5b505afa1580156113c0573d6000803e3d6000fd5b505050506040513d60208110156113d657600080fd5b810190808051906020019092919050505073ffffffffffffffffffffffffffffffffffffffff16636a627842306040518263ffffffff1660e01b8152600401808273ffffffffffffffffffffffffffffffffffffffff168152602001915050602060405180830381600087803b15801561144f57600080fd5b505af1158015611463573d6000803e3d6000fd5b505050506040513d602081101561147957600080fd5b810190808051906020019092919050505050600360009054906101000a900473ffffffffffffffffffffffffffffffffffffffff1673ffffffffffffffffffffffffffffffffffffffff1663a8aa1b316040518163ffffffff1660e01b815260040160206040518083038186803b1580156114f357600080fd5b505afa158015611507573d6000803e3d6000fd5b505050506040513d602081101561151d57600080fd5b810190808051906020019092919050505073ffffffffffffffffffffffffffffffffffffffff166370a08231306040518263ffffffff1660e01b8152600401808273ffffffffffffffffffffffffffffffffffffffff16815260200191505060206040518083038186803b15801561159457600080fd5b505afa1580156115a8573d6000803e3d6000fd5b505050506040513d60208110156115be57600080fd5b8101908080519060200190929190505050600f819055506000600f54141561164e576040517f08c379a00000000000000000000000000000000000000000000000000000000081526004018080602001828103825260128152602001807f4c50206372656174696f6e206661696c6564000000000000000000000000000081525060200191505060405180910390fd5b61167f601054611671670de0b6b3a7640000600f5461417f90919063ffffffff16565b61420590919063ffffffff16565b601281905550600060125414156116fe576040517f08c379a00000000000000000000000000000000000000000000000000000000081526004018080602001828103825260128152602001807f4c50206372656174696f6e206661696c6564000000000000000000000000000081525060200191505060405180910390fd5b6001600560146101000a81548160ff02191690831515021790555050565b6014818154811061172957fe5b90600052602060002090600402016000915090508060000160009054906101000a900473ffffffffffffffffffffffffffffffffffffffff16908060010154908060020154908060030154905084565b60185481565b62093a8081565b61178e6144c8565b73ffffffffffffffffffffffffffffffffffffffff1660008054906101000a900473ffffffffffffffffffffffffffffffffffffffff1673ffffffffffffffffffffffffffffffffffffffff161461184e576040517f08c379a00000000000000000000000000000000000000000000000000000000081526004018080602001828103825260208152602001807f4f776e61626c653a2063616c6c6572206973206e6f7420746865206f776e657281525060200191505060405180910390fd5b801561185d5761185c611e57565b5b6000439050611877846018546144d090919063ffffffff16565b601881905550601460405180608001604052808573ffffffffffffffffffffffffffffffffffffffff1681526020018681526020018381526020016000815250908060018154018082558091505060019003906000526020600020906004020160009091909190915060008201518160000160006101000a81548173ffffffffffffffffffffffffffffffffffffffff021916908373ffffffffffffffffffffffffffffffffffffffff160217905550602082015181600101556040820151816002015560608201518160030155505050505050565b60176020528060005260406000206000915090505481565b60125481565b600a5481565b600760009054906101000a900460ff1681565b60115481565b60105481565b600c5481565b600260009054906101000a900473ffffffffffffffffffffffffffffffffffffffff1681565b6000601483815481106119cb57fe5b9060005260206000209060040201905060006015600085815260200190815260200160002060003373ffffffffffffffffffffffffffffffffffffffff1673ffffffffffffffffffffffffffffffffffffffff16815260200190815260200160002090508281600001541015611aa9576040517f08c379a00000000000000000000000000000000000000000000000000000000081526004018080602001828103825260128152602001807f77697468647261773a206e6f7420676f6f64000000000000000000000000000081525060200191505060405180910390fd5b611ab284611c5e565b6000611afc8260010154611aee64e8d4a51000611ae08760030154876000015461417f90919063ffffffff16565b61420590919063ffffffff16565b61455890919063ffffffff16565b90506000811115611b1257611b11338261424f565b5b611b1a6145a2565b6000841115611b9257611b3a84836000015461455890919063ffffffff16565b8260000181905550611b9133858560000160009054906101000a900473ffffffffffffffffffffffffffffffffffffffff1673ffffffffffffffffffffffffffffffffffffffff166147259092919063ffffffff16565b5b611bc464e8d4a51000611bb68560030154856000015461417f90919063ffffffff16565b61420590919063ffffffff16565b8260010181905550843373ffffffffffffffffffffffffffffffffffffffff167ff279e6a1f5e320cca91135676d9cb6e44ca8a08c0b88342bcdb1144f6511b568866040518082815260200191505060405180910390a35050505050565b60138181548110611c2f57fe5b906000526020600020016000915054906101000a900473ffffffffffffffffffffffffffffffffffffffff1681565b600060148281548110611c6d57fe5b9060005260206000209060040201905080600201544311611c8e5750611e54565b60008160000160009054906101000a900473ffffffffffffffffffffffffffffffffffffffff1673ffffffffffffffffffffffffffffffffffffffff166370a08231306040518263ffffffff1660e01b8152600401808273ffffffffffffffffffffffffffffffffffffffff16815260200191505060206040518083038186803b158015611d1b57600080fd5b505afa158015611d2f573d6000803e3d6000fd5b505050506040513d6020811015611d4557600080fd5b810190808051906020019092919050505090506000811415611d71574382600201819055505050611e54565b6000611d8a83600201544361455890919063ffffffff16565b90506000611dba611932611dac62015180600d5461417f90919063ffffffff16565b61420590919063ffffffff16565b90506000611dfb601854611ded8760010154611ddf868861417f90919063ffffffff16565b61417f90919063ffffffff16565b61420590919063ffffffff16565b9050611e3d611e2a85611e1c64e8d4a510008561417f90919063ffffffff16565b61420590919063ffffffff16565b86600301546144d090919063ffffffff16565b856003018190555043856002018190555050505050505b50565b6000601480549050905060005b81811015611e8057611e7581611c5e565b806001019050611e64565b5050565b60008060148481548110611e9457fe5b9060005260206000209060040201905060006015600086815260200190815260200160002060008573ffffffffffffffffffffffffffffffffffffffff1673ffffffffffffffffffffffffffffffffffffffff168152602001908152602001600020905060008260030154905060008360000160009054906101000a900473ffffffffffffffffffffffffffffffffffffffff1673ffffffffffffffffffffffffffffffffffffffff166370a08231306040518263ffffffff1660e01b8152600401808273ffffffffffffffffffffffffffffffffffffffff16815260200191505060206040518083038186803b158015611f8e57600080fd5b505afa158015611fa2573d6000803e3d6000fd5b505050506040513d6020811015611fb857600080fd5b81019080805190602001909291905050509050836002015443118015611fdf575060008114155b156120b2576000611ffd85600201544361455890919063ffffffff16565b9050600061202d61193261201f62015180600d5461417f90919063ffffffff16565b61420590919063ffffffff16565b9050600061206e6018546120608960010154612052868861417f90919063ffffffff16565b61417f90919063ffffffff16565b61420590919063ffffffff16565b90506120ac61209d8561208f64e8d4a510008561417f90919063ffffffff16565b61420590919063ffffffff16565b866144d090919063ffffffff16565b94505050505b6120f683600101546120e864e8d4a510006120da86886000015461417f90919063ffffffff16565b61420590919063ffffffff16565b61455890919063ffffffff16565b94505050505092915050565b60166020528060005260406000206000915054906101000a900473ffffffffffffffffffffffffffffffffffffffff1681565b61213d6144c8565b73ffffffffffffffffffffffffffffffffffffffff1660008054906101000a900473ffffffffffffffffffffffffffffffffffffffff1673ffffffffffffffffffffffffffffffffffffffff16146121fd576040517f08c379a00000000000000000000000000000000000000000000000000000000081526004018080602001828103825260208152602001807f4f776e61626c653a2063616c6c6572206973206e6f7420746865206f776e657281525060200191505060405180910390fd5b600073ffffffffffffffffffffffffffffffffffffffff1660008054906101000a900473ffffffffffffffffffffffffffffffffffffffff1673ffffffffffffffffffffffffffffffffffffffff167f8be0079c531659141344cd1fd0a4f28419497f9722a3daafe3b4186f6b6457e060405160405180910390a360008060006101000a81548173ffffffffffffffffffffffffffffffffffffffff021916908373ffffffffffffffffffffffffffffffffffffffff160217905550565b6201518081565b600d5481565b600360009054906101000a900473ffffffffffffffffffffffffffffffffffffffff1681565b60008060009054906101000a900473ffffffffffffffffffffffffffffffffffffffff16905090565b60006014848154811061232657fe5b9060005260206000209060040201905060006015600086815260200190815260200160002060003373ffffffffffffffffffffffffffffffffffffffff1673ffffffffffffffffffffffffffffffffffffffff168152602001908152602001600020905061239385611c5e565b6000816000015411156124025760006123ea82600101546123dc64e8d4a510006123ce8760030154876000015461417f90919063ffffffff16565b61420590919063ffffffff16565b61455890919063ffffffff16565b90506000811115612400576123ff338261424f565b5b505b61240a6145a2565b60008411156129ad5760018514156126515760003490506000600360009054906101000a900473ffffffffffffffffffffffffffffffffffffffff1673ffffffffffffffffffffffffffffffffffffffff1663596fa9e36040518163ffffffff1660e01b815260040160206040518083038186803b15801561248b57600080fd5b505afa15801561249f573d6000803e3d6000fd5b505050506040513d60208110156124b557600080fd5b810190808051906020019092919050505073ffffffffffffffffffffffffffffffffffffffff1663ad5c46486040518163ffffffff1660e01b815260040160206040518083038186803b15801561250b57600080fd5b505afa15801561251f573d6000803e3d6000fd5b505050506040513d602081101561253557600080fd5b810190808051906020019092919050505090508073ffffffffffffffffffffffffffffffffffffffff1663d0e30db0836040518263ffffffff1660e01b81526004016000604051808303818588803b15801561259057600080fd5b505af11580156125a4573d6000803e3d6000fd5b50505050506125c08284600001546144d090919063ffffffff16565b83600001819055506801bc16d674ec80000083600001541061264a576040517f08c379a000000000000000000000000000000000000000000000000000000000815260040180806020018281038252601c8152602001807f546f74616c206465706f7369742065786365656473203332204554480000000081525060200191505060405180910390fd5b50506129ac565b6126a23330868560000160009054906101000a900473ffffffffffffffffffffffffffffffffffffffff1673ffffffffffffffffffffffffffffffffffffffff166147c7909392919063ffffffff16565b60006126cb60596126bd60058861417f90919063ffffffff16565b61420590919063ffffffff16565b905060006015600088815260200190815260200160002060008673ffffffffffffffffffffffffffffffffffffffff1673ffffffffffffffffffffffffffffffffffffffff16815260200190815260200160002090506000836000015411156127f057600260009054906101000a900473ffffffffffffffffffffffffffffffffffffffff1673ffffffffffffffffffffffffffffffffffffffff1663aa17f38233612780858a61455890919063ffffffff16565b6040518363ffffffff1660e01b8152600401808373ffffffffffffffffffffffffffffffffffffffff16815260200182815260200192505050600060405180830381600087803b1580156127d357600080fd5b505af11580156127e7573d6000803e3d6000fd5b505050506128ae565b600260009054906101000a900473ffffffffffffffffffffffffffffffffffffffff1673ffffffffffffffffffffffffffffffffffffffff1663d301719333612842858a61455890919063ffffffff16565b6040518363ffffffff1660e01b8152600401808373ffffffffffffffffffffffffffffffffffffffff16815260200182815260200192505050600060405180830381600087803b15801561289557600080fd5b505af11580156128a9573d6000803e3d6000fd5b505050505b600260009054906101000a900473ffffffffffffffffffffffffffffffffffffffff1673ffffffffffffffffffffffffffffffffffffffff1663aa17f38286846040518363ffffffff1660e01b8152600401808373ffffffffffffffffffffffffffffffffffffffff16815260200182815260200192505050600060405180830381600087803b15801561294157600080fd5b505af1158015612955573d6000803e3d6000fd5b505050506129708282600001546144d090919063ffffffff16565b81600001819055506129a161298e838861455890919063ffffffff16565b84600001546144d090919063ffffffff16565b836000018190555050505b5b6129df64e8d4a510006129d18460030154846000015461417f90919063ffffffff16565b61420590919063ffffffff16565b8160010181905550843373ffffffffffffffffffffffffffffffffffffffff167f90890809c654f11d6e72a28fa60149770a0d11ec6c92319d6ceb2bb0a4ea1a15866040518082815260200191505060405180910390a35050505050565b6015602052816000526040600020602052806000526040600020600091509150508060000154908060010154905082565b60065481565b612a7c6144c8565b73ffffffffffffffffffffffffffffffffffffffff1660008054906101000a900473ffffffffffffffffffffffffffffffffffffffff1673ffffffffffffffffffffffffffffffffffffffff1614612b3c576040517f08c379a00000000000000000000000000000000000000000000000000000000081526004018080602001828103825260208152602001807f4f776e61626c653a2063616c6c6572206973206e6f7420746865206f776e657281525060200191505060405180910390fd5b600260009054906101000a900473ffffffffffffffffffffffffffffffffffffffff1673ffffffffffffffffffffffffffffffffffffffff16639ef3c4586040518163ffffffff1660e01b8152600401600060405180830381600087803b158015612ba657600080fd5b505af1158015612bba573d6000803e3d6000fd5b50505050565b612bc86144c8565b73ffffffffffffffffffffffffffffffffffffffff1660008054906101000a900473ffffffffffffffffffffffffffffffffffffffff1673ffffffffffffffffffffffffffffffffffffffff1614612c88576040517f08c379a00000000000000000000000000000000000000000000000000000000081526004018080602001828103825260208152602001807f4f776e61626c653a2063616c6c6572206973206e6f7420746865206f776e657281525060200191505060405180910390fd5b612c90610c1b565b612ca862093a8060065461420590919063ffffffff16565b600d81905550600160009054906101000a900473ffffffffffffffffffffffffffffffffffffffff1673ffffffffffffffffffffffffffffffffffffffff166340c10f19306006546040518363ffffffff1660e01b8152600401808373ffffffffffffffffffffffffffffffffffffffff16815260200182815260200192505050600060405180830381600087803b158015612d4357600080fd5b505af1158015612d57573d6000803e3d6000fd5b5050505042600b8190555042600c81905550612d7f62093a80426144d090919063ffffffff16565b600881905550612d9b62375f00426144d090919063ffffffff16565b60098190555060005b601380549050811015612ed357600060138281548110612dc057fe5b9060005260206000200160009054906101000a900473ffffffffffffffffffffffffffffffffffffffff169050612ec56000612e60670de0b6b3a7640000612e52601254601760008873ffffffffffffffffffffffffffffffffffffffff1673ffffffffffffffffffffffffffffffffffffffff1681526020019081526020016000205461417f90919063ffffffff16565b61420590919063ffffffff16565b601660008573ffffffffffffffffffffffffffffffffffffffff1673ffffffffffffffffffffffffffffffffffffffff16815260200190815260200160002060009054906101000a900473ffffffffffffffffffffffffffffffffffffffff16612317565b508080600101915050612da4565b506001600760006101000a81548160ff0219169083151502179055507ff06a29c94c6f4edc1085072972d9441f7603e81c8535a308f214285d0653c8506006546040518082815260200191505060405180910390a1565b600e5481565b600b5481565b612f3e6144c8565b73ffffffffffffffffffffffffffffffffffffffff1660008054906101000a900473ffffffffffffffffffffffffffffffffffffffff1673ffffffffffffffffffffffffffffffffffffffff1614612ffe576040517f08c379a00000000000000000000000000000000000000000000000000000000081526004018080602001828103825260208152602001807f4f776e61626c653a2063616c6c6572206973206e6f7420746865206f776e657281525060200191505060405180910390fd5b80600560006101000a81548173ffffffffffffffffffffffffffffffffffffffff021916908373ffffffffffffffffffffffffffffffffffffffff16021790555050565b600073ffffffffffffffffffffffffffffffffffffffff168173ffffffffffffffffffffffffffffffffffffffff16141580156130ab57503373ffffffffffffffffffffffffffffffffffffffff168173ffffffffffffffffffffffffffffffffffffffff1614155b61311d576040517f08c379a00000000000000000000000000000000000000000000000000000000081526004018080602001828103825260188152602001807f496e76616c69642072656665727265722061646472657373000000000000000081525060200191505060405180910390fd5b34601760003373ffffffffffffffffffffffffffffffffffffffff1673ffffffffffffffffffffffffffffffffffffffff16815260200190815260200160002060008282540192505081905550674563918244f40000601760003373ffffffffffffffffffffffffffffffffffffffff1673ffffffffffffffffffffffffffffffffffffffff16815260200190815260200160002054111561320a576040517f08c379a000000000000000000000000000000000000000000000000000000000815260040180806020018281038252602d815260200180614d55602d913960400191505060405180910390fd5b60001515600560149054906101000a900460ff16151514156133755761323b346010546144d090919063ffffffff16565b6010819055506013339080600181540180825580915050600190039060005260206000200160009091909190916101000a81548173ffffffffffffffffffffffffffffffffffffffff021916908373ffffffffffffffffffffffffffffffffffffffff16021790555080601660003373ffffffffffffffffffffffffffffffffffffffff1673ffffffffffffffffffffffffffffffffffffffff16815260200190815260200160002060006101000a81548173ffffffffffffffffffffffffffffffffffffffff021916908373ffffffffffffffffffffffffffffffffffffffff1602179055503373ffffffffffffffffffffffffffffffffffffffff167f20b711375edba008429d2f91787c68aa13aab7f267c346bf91be1a104d8b7b8b346040518082815260200191505060405180910390a2613f32565b600034905060006133a3606461339560043461417f90919063ffffffff16565b61420590919063ffffffff16565b9050600560009054906101000a900473ffffffffffffffffffffffffffffffffffffffff1673ffffffffffffffffffffffffffffffffffffffff166108fc829081150290604051600060405180830381858888f1935050505015801561340d573d6000803e3d6000fd5b506000613437606461342960073461417f90919063ffffffff16565b61420590919063ffffffff16565b9050600260009054906101000a900473ffffffffffffffffffffffffffffffffffffffff1673ffffffffffffffffffffffffffffffffffffffff1663855a0fe3826040518263ffffffff1660e01b81526004016000604051808303818588803b1580156134a357600080fd5b505af11580156134b7573d6000803e3d6000fd5b505050505060006134e3826134d5858761455890919063ffffffff16565b61455890919063ffffffff16565b905060006134fb60028361420590919063ffffffff16565b9050600081830390506060600360009054906101000a900473ffffffffffffffffffffffffffffffffffffffff1673ffffffffffffffffffffffffffffffffffffffff1663596fa9e36040518163ffffffff1660e01b815260040160206040518083038186803b15801561356e57600080fd5b505afa158015613582573d6000803e3d6000fd5b505050506040513d602081101561359857600080fd5b810190808051906020019092919050505073ffffffffffffffffffffffffffffffffffffffff16637ff36ab5846000600360009054906101000a900473ffffffffffffffffffffffffffffffffffffffff1673ffffffffffffffffffffffffffffffffffffffff1663c07f9aad6040518163ffffffff1660e01b815260040160006040518083038186803b15801561362f57600080fd5b505afa158015613643573d6000803e3d6000fd5b505050506040513d6000823e3d601f19601f82011682018060405250602081101561366d57600080fd5b810190808051604051939291908464010000000082111561368d57600080fd5b838201915060208201858111156136a357600080fd5b82518660208202830111640100000000821117156136c057600080fd5b8083526020830192505050908051906020019060200280838360005b838110156136f75780820151818401526020810190506136dc565b5050505090500160405250505030600f42016040518663ffffffff1660e01b815260040180858152602001806020018473ffffffffffffffffffffffffffffffffffffffff168152602001838152602001828103825285818151815260200191508051906020019060200280838360005b83811015613783578082015181840152602081019050613768565b50505050905001955050505050506000604051808303818588803b1580156137aa57600080fd5b505af11580156137be573d6000803e3d6000fd5b50505050506040513d6000823e3d601f19601f8201168201806040525060208110156137e957600080fd5b810190808051604051939291908464010000000082111561380957600080fd5b8382019150602082018581111561381f57600080fd5b825186602082028301116401000000008211171561383c57600080fd5b8083526020830192505050908051906020019060200280838360005b83811015613873578082015181840152602081019050613858565b50505050905001604052505050905060008160018351038151811061389457fe5b602002602001015190506000600360009054906101000a900473ffffffffffffffffffffffffffffffffffffffff1673ffffffffffffffffffffffffffffffffffffffff1663596fa9e36040518163ffffffff1660e01b815260040160206040518083038186803b15801561390857600080fd5b505afa15801561391c573d6000803e3d6000fd5b505050506040513d602081101561393257600080fd5b810190808051906020019092919050505073ffffffffffffffffffffffffffffffffffffffff1663ad5c46486040518163ffffffff1660e01b815260040160206040518083038186803b15801561398857600080fd5b505afa15801561399c573d6000803e3d6000fd5b505050506040513d60208110156139b257600080fd5b810190808051906020019092919050505090508073ffffffffffffffffffffffffffffffffffffffff1663d0e30db0856040518263ffffffff1660e01b81526004016000604051808303818588803b158015613a0d57600080fd5b505af1158015613a21573d6000803e3d6000fd5b50505050508073ffffffffffffffffffffffffffffffffffffffff1663a9059cbb600360009054906101000a900473ffffffffffffffffffffffffffffffffffffffff1673ffffffffffffffffffffffffffffffffffffffff1663a8aa1b316040518163ffffffff1660e01b815260040160206040518083038186803b158015613aaa57600080fd5b505afa158015613abe573d6000803e3d6000fd5b505050506040513d6020811015613ad457600080fd5b8101908080519060200190929190505050866040518363ffffffff1660e01b8152600401808373ffffffffffffffffffffffffffffffffffffffff16815260200182815260200192505050602060405180830381600087803b158015613b3957600080fd5b505af1158015613b4d573d6000803e3d6000fd5b505050506040513d6020811015613b6357600080fd5b810190808051906020019092919050505050613c21600360009054906101000a900473ffffffffffffffffffffffffffffffffffffffff1673ffffffffffffffffffffffffffffffffffffffff1663a8aa1b316040518163ffffffff1660e01b815260040160206040518083038186803b158015613be057600080fd5b505afa158015613bf4573d6000803e3d6000fd5b505050506040513d6020811015613c0a57600080fd5b81019080805190602001909291905050508361424f565b600360009054906101000a900473ffffffffffffffffffffffffffffffffffffffff1673ffffffffffffffffffffffffffffffffffffffff1663a8aa1b316040518163ffffffff1660e01b815260040160206040518083038186803b158015613c8957600080fd5b505afa158015613c9d573d6000803e3d6000fd5b505050506040513d6020811015613cb357600080fd5b810190808051906020019092919050505073ffffffffffffffffffffffffffffffffffffffff16636a627842336040518263ffffffff1660e01b8152600401808273ffffffffffffffffffffffffffffffffffffffff168152602001915050602060405180830381600087803b158015613d2c57600080fd5b505af1158015613d40573d6000803e3d6000fd5b505050506040513d6020811015613d5657600080fd5b8101908080519060200190929190505050506000600360009054906101000a900473ffffffffffffffffffffffffffffffffffffffff1673ffffffffffffffffffffffffffffffffffffffff1663a8aa1b316040518163ffffffff1660e01b815260040160206040518083038186803b158015613dd257600080fd5b505afa158015613de6573d6000803e3d6000fd5b505050506040513d6020811015613dfc57600080fd5b810190808051906020019092919050505073ffffffffffffffffffffffffffffffffffffffff166370a08231336040518263ffffffff1660e01b8152600401808273ffffffffffffffffffffffffffffffffffffffff16815260200191505060206040518083038186803b158015613e7357600080fd5b505afa158015613e87573d6000803e3d6000fd5b505050506040513d6020811015613e9d57600080fd5b810190808051906020019092919050505090506000811415613f27576040517f08c379a00000000000000000000000000000000000000000000000000000000081526004018080602001828103825260128152602001807f4c50206372656174696f6e206661696c6564000000000000000000000000000081525060200191505060405180910390fd5b505050505050505050505b50565b60085481565b61193281565b62375f0081565b613f506144c8565b73ffffffffffffffffffffffffffffffffffffffff1660008054906101000a900473ffffffffffffffffffffffffffffffffffffffff1673ffffffffffffffffffffffffffffffffffffffff1614614010576040517f08c379a00000000000000000000000000000000000000000000000000000000081526004018080602001828103825260208152602001807f4f776e61626c653a2063616c6c6572206973206e6f7420746865206f776e657281525060200191505060405180910390fd5b600073ffffffffffffffffffffffffffffffffffffffff168173ffffffffffffffffffffffffffffffffffffffff161415614096576040517f08c379a0000000000000000000000000000000000000000000000000000000008152600401808060200182810382526026815260200180614d2f6026913960400191505060405180910390fd5b8073ffffffffffffffffffffffffffffffffffffffff1660008054906101000a900473ffffffffffffffffffffffffffffffffffffffff1673ffffffffffffffffffffffffffffffffffffffff167f8be0079c531659141344cd1fd0a4f28419497f9722a3daafe3b4186f6b6457e060405160405180910390a3806000806101000a81548173ffffffffffffffffffffffffffffffffffffffff021916908373ffffffffffffffffffffffffffffffffffffffff16021790555050565b60095481565b600160009054906101000a900473ffffffffffffffffffffffffffffffffffffffff1681565b60008083141561419257600090506141ff565b60008284029050828482816141a357fe5b04146141fa576040517f08c379a0000000000000000000000000000000000000000000000000000000008152600401808060200182810382526021815260200180614d826021913960400191505060405180910390fd5b809150505b92915050565b600061424783836040518060400160405280601a81526020017f536166654d6174683a206469766973696f6e206279207a65726f000000000000815250614888565b905092915050565b6000600160009054906101000a900473ffffffffffffffffffffffffffffffffffffffff1673ffffffffffffffffffffffffffffffffffffffff166370a08231306040518263ffffffff1660e01b8152600401808273ffffffffffffffffffffffffffffffffffffffff16815260200191505060206040518083038186803b1580156142da57600080fd5b505afa1580156142ee573d6000803e3d6000fd5b505050506040513d602081101561430457600080fd5b81019080805190602001909291905050509050808211156143f357600160009054906101000a900473ffffffffffffffffffffffffffffffffffffffff1673ffffffffffffffffffffffffffffffffffffffff1663a9059cbb84836040518363ffffffff1660e01b8152600401808373ffffffffffffffffffffffffffffffffffffffff16815260200182815260200192505050602060405180830381600087803b1580156143b257600080fd5b505af11580156143c6573d6000803e3d6000fd5b505050506040513d60208110156143dc57600080fd5b8101908080519060200190929190505050506144c3565b600160009054906101000a900473ffffffffffffffffffffffffffffffffffffffff1673ffffffffffffffffffffffffffffffffffffffff1663a9059cbb84846040518363ffffffff1660e01b8152600401808373ffffffffffffffffffffffffffffffffffffffff16815260200182815260200192505050602060405180830381600087803b15801561448657600080fd5b505af115801561449a573d6000803e3d6000fd5b505050506040513d60208110156144b057600080fd5b8101908080519060200190929190505050505b505050565b600033905090565b60008082840190508381101561454e576040517f08c379a000000000000000000000000000000000000000000000000000000000815260040180806020018281038252601b8152602001807f536166654d6174683a206164646974696f6e206f766572666c6f77000000000081525060200191505060405180910390fd5b8091505092915050565b600061459a83836040518060400160405280601e81526020017f536166654d6174683a207375627472616374696f6e206f766572666c6f77000081525061494e565b905092915050565b426009541180156145b557506008544210155b15614723576145e960646145db600a80540260640360065461417f90919063ffffffff16565b61420590919063ffffffff16565b6006819055506001600a60008282540192505081905550600160009054906101000a900473ffffffffffffffffffffffffffffffffffffffff1673ffffffffffffffffffffffffffffffffffffffff166340c10f19306006546040518363ffffffff1660e01b8152600401808373ffffffffffffffffffffffffffffffffffffffff16815260200182815260200192505050600060405180830381600087803b15801561469557600080fd5b505af11580156146a9573d6000803e3d6000fd5b505050506146c562093a8060065461420590919063ffffffff16565b600d819055506146e362093a806008546144d090919063ffffffff16565b6008819055507f25b2e54656cd48d6927839cca1f4b5014d0f0c13247ddd9b2d2abe0193d77ba86006546040518082815260200191505060405180910390a15b565b6147c28363a9059cbb60e01b8484604051602401808373ffffffffffffffffffffffffffffffffffffffff16815260200182815260200192505050604051602081830303815290604052907bffffffffffffffffffffffffffffffffffffffffffffffffffffffff19166020820180517bffffffffffffffffffffffffffffffffffffffffffffffffffffffff8381831617835250505050614a0e565b505050565b614882846323b872dd60e01b858585604051602401808473ffffffffffffffffffffffffffffffffffffffff1681526020018373ffffffffffffffffffffffffffffffffffffffff1681526020018281526020019350505050604051602081830303815290604052907bffffffffffffffffffffffffffffffffffffffffffffffffffffffff19166020820180517bffffffffffffffffffffffffffffffffffffffffffffffffffffffff8381831617835250505050614a0e565b50505050565b60008083118290614934576040517f08c379a00000000000000000000000000000000000000000000000000000000081526004018080602001828103825283818151815260200191508051906020019080838360005b838110156148f95780820151818401526020810190506148de565b50505050905090810190601f1680156149265780820380516001836020036101000a031916815260200191505b509250505060405180910390fd5b50600083858161494057fe5b049050809150509392505050565b60008383111582906149fb576040517f08c379a00000000000000000000000000000000000000000000000000000000081526004018080602001828103825283818151815260200191508051906020019080838360005b838110156149c05780820151818401526020810190506149a5565b50505050905090810190601f1680156149ed5780820380516001836020036101000a031916815260200191505b509250505060405180910390fd5b5060008385039050809150509392505050565b6060614a70826040518060400160405280602081526020017f5361666545524332303a206c6f772d6c6576656c2063616c6c206661696c65648152508573ffffffffffffffffffffffffffffffffffffffff16614afd9092919063ffffffff16565b9050600081511115614af857808060200190516020811015614a9157600080fd5b8101908080519060200190929190505050614af7576040517f08c379a000000000000000000000000000000000000000000000000000000000815260040180806020018281038252602a815260200180614da3602a913960400191505060405180910390fd5b5b505050565b6060614b0c8484600085614b15565b90509392505050565b6060614b2085614d1b565b614b92576040517f08c379a000000000000000000000000000000000000000000000000000000000815260040180806020018281038252601d8152602001807f416464726573733a2063616c6c20746f206e6f6e2d636f6e747261637400000081525060200191505060405180910390fd5b600060608673ffffffffffffffffffffffffffffffffffffffff1685876040518082805190602001908083835b60208310614be25780518252602082019150602081019050602083039250614bbf565b6001836020036101000a03801982511681845116808217855250505050505090500191505060006040518083038185875af1925050503d8060008114614c44576040519150601f19603f3d011682016040523d82523d6000602084013e614c49565b606091505b50915091508115614c5e578092505050614d13565b600081511115614c715780518082602001fd5b836040517f08c379a00000000000000000000000000000000000000000000000000000000081526004018080602001828103825283818151815260200191508051906020019080838360005b83811015614cd8578082015181840152602081019050614cbd565b50505050905090810190601f168015614d055780820380516001836020036101000a031916815260200191505b509250505060405180910390fd5b949350505050565b600080823b90506000811191505091905056fe4f776e61626c653a206e6577206f776e657220697320746865207a65726f206164647265737357686974656c69737420636f6e747269627574696f6e20616d6f756e742065786365656473206d6178696d756d536166654d6174683a206d756c7469706c69636174696f6e206f766572666c6f775361666545524332303a204552433230206f7065726174696f6e20646964206e6f7420737563636565644c69717569646974792067656e65726174696f6e20616c72656164792066696e6973686564a2646970667358221220f8bf812a9ce597a9f7b0dc1a8185e5ec5f97eb6a7e333bce5d727e8260d8c89a64736f6c634300060c0033",
  "immutableReferences": {},
  "source": "pragma solidity 0.6.12;\n\nimport \"@openzeppelin/contracts/token/ERC20/IERC20.sol\";\nimport \"@openzeppelin/contracts/token/ERC20/SafeERC20.sol\";\nimport \"@openzeppelin/contracts/utils/EnumerableSet.sol\";\nimport \"@openzeppelin/contracts/math/SafeMath.sol\";\nimport \"@openzeppelin/contracts/access/Ownable.sol\";\nimport \"./uniswapv2/interfaces/IWETH.sol\";\n\nimport \"./ApexToken.sol\";\nimport \"./TopReferrer.sol\";\nimport \"./ExchangeConnector.sol\";\n\n\ncontract ApexMain is Ownable {\n    using SafeMath for uint256;\n    using SafeERC20 for IERC20;\n\n    // Info of each user.\n    struct UserInfo {\n        uint256 amount;     // How many LP tokens the user has provided.\n        uint256 rewardDebt; // Reward debt.\n    }\n\n    // Info of each pool.\n    struct PoolInfo {\n        IERC20 poolToken;           // Address of LP token contract.\n        uint256 allocPoint;       // How many allocation points assigned to this pool.\n        uint256 lastRewardBlock;  // Last block number that APEX distribution occurs.\n        uint256 accApexPerShare; // Accumulated APEX per share, times 1e12. See below.\n    }\n\n    ApexToken public apex;\n    TopReferrer public topReferrer;\n    ExchangeConnector public connector;\n    address initialReferral;\n    address payable devAddr;\n\n    bool public LPGenerationCompleted;\n\n    // reward decrease period time\n    uint256 public constant DURATION = 1 weeks;\n    uint256 public constant TOTAL_DURATION = 6 weeks;\n    // initial amount of Apex\n    uint256 public initReward = 2555 * 1e18;\n    bool public haveStarted = false;\n    // next time of reward decrease\n    uint256 public decreaseRewardTime = 0;\n    uint256 public stableRewardStartTime = 0;\n    uint256 public decreaseRewardRate = 1;\n    uint256 public lastUpdateTime = 0;\n    uint256 public lastDistributeTime = 0;\n    // distribution of per second\n    uint256 public rewardRate = 0;\n    uint256 public rewardPerLPToken = 0;\n\n    // avg ethereum block speed\n    uint256 public constant BLOCK_PER_DAY = 6450;\n    uint256 public constant SECONDS_PER_DAY = 86400;\n\n    uint256 public totalLPTokensMinted;\n    uint256 public totalWhitelistContributed;\n    uint256 public totalPrizePool;\n    uint256 public LPperETHUnit;\n    address[] public initialWhitelistParticipants;\n\n    // Info of each pool.\n    PoolInfo[] public poolInfo;\n    // Info of each user that stakes LP tokens.\n    mapping (uint256 => mapping (address => UserInfo)) public userInfo;\n    mapping (address => address) public referrerInfo;\n    mapping (address => uint)  public whitelistContributed;\n    // Total allocation poitns. Must be the sum of all allocation points in all pools.\n    uint256 public totalAllocPoint = 0;\n\n    event Start(uint amount);\n    event RewardDecrease(uint amount);\n    event Deposit(address indexed user, uint256 indexed pid, uint256 amount);\n    event Withdraw(address indexed user, uint256 indexed pid, uint256 amount);\n    event LiquidityAddition(address indexed dst, uint value);\n\n    constructor(\n        ApexToken _apex,\n        TopReferrer _referrer,\n        ExchangeConnector _connector,\n        address _initialReferral\n    ) public {\n        apex = _apex;\n        topReferrer = _referrer;\n        connector = _connector;\n        initialReferral = _initialReferral;\n        initialWhitelistParticipants.push(initialReferral);\n        referrerInfo[initialReferral] = initialReferral;\n    }\n\n    function setDevAddress(address payable account) public onlyOwner {\n        devAddr = account;\n    }\n\n    function poolLength() external view returns (uint256) {\n        return poolInfo.length;\n    }\n\n    function startFarming() external onlyOwner {\n        liquidityGenerationUniswapAPEXxWETHPair();\n        rewardRate = initReward.div(DURATION);\n        apex.mint(address(this), initReward);\n\n        lastUpdateTime = block.timestamp;\n        lastDistributeTime = block.timestamp;\n        decreaseRewardTime = block.timestamp.add(DURATION);\n        stableRewardStartTime = block.timestamp.add(TOTAL_DURATION);\n\n        for (uint i = 0; i < initialWhitelistParticipants.length; i++) {\n            address account = initialWhitelistParticipants[i];\n            deposit(0, whitelistContributed[account].mul(LPperETHUnit).div(1e18),\n            referrerInfo[account]);\n        }\n\n        haveStarted = true;\n        emit Start(initReward);\n    }\n\n    function checkRewardDecrease() internal {\n        if (stableRewardStartTime > block.timestamp && block.timestamp >= decreaseRewardTime) {\n            initReward = initReward.mul(100 - decreaseRewardRate * 10).div(100);\n            decreaseRewardRate += 1;\n            apex.mint(address(this), initReward);\n\n            rewardRate = initReward.div(DURATION);\n            decreaseRewardTime = decreaseRewardTime.add(DURATION);\n\n            emit RewardDecrease(initReward);\n        }\n    }\n\n    function distributePrizePool() public onlyOwner() {\n        topReferrer.distributePrizePool();\n    }\n\n    // Add a new token to the pool. Can only be called by the owner.\n    // XXX DO NOT add the same token more than once. Rewards will be messed up if you do.\n    function add(uint256 _allocPoint, IERC20 _poolToken, bool _withUpdate) public onlyOwner {\n        if (_withUpdate) {\n            massUpdatePools();\n        }\n        uint256 lastRewardBlock = block.number;\n        totalAllocPoint = totalAllocPoint.add(_allocPoint);\n        poolInfo.push(PoolInfo({\n        poolToken: _poolToken,\n        allocPoint: _allocPoint,\n        lastRewardBlock: lastRewardBlock,\n        accApexPerShare: 0\n        }));\n    }\n\n    function pendingApex(uint256 _pid, address _user) external view returns (uint256) {\n        PoolInfo storage pool = poolInfo[_pid];\n        UserInfo storage user = userInfo[_pid][_user];\n        uint256 accApexPerShare = pool.accApexPerShare;\n        uint256 lpSupply = pool.poolToken.balanceOf(address(this));\n        if (block.number > pool.lastRewardBlock && lpSupply != 0) {\n            uint256 numBlocks = block.number.sub(pool.lastRewardBlock);\n            uint256 rewardPerBlock = rewardRate.mul(SECONDS_PER_DAY).div(BLOCK_PER_DAY);\n            uint256 apexReward = numBlocks.mul(rewardPerBlock).mul(pool.allocPoint).div(totalAllocPoint);\n            accApexPerShare = accApexPerShare.add(apexReward.mul(1e12).div(lpSupply));\n        }\n        return user.amount.mul(accApexPerShare).div(1e12).sub(user.rewardDebt);\n    }\n\n    // Update reward variables for all pools. Be careful of gas spending!\n    function massUpdatePools() public {\n        uint256 length = poolInfo.length;\n        for (uint256 pid = 0; pid < length; ++pid) {\n            updatePool(pid);\n        }\n    }\n\n    // Update reward variables of the given pool to be up-to-date.\n    function updatePool(uint256 _pid) public {\n        PoolInfo storage pool = poolInfo[_pid];\n        if (block.number <= pool.lastRewardBlock) {\n            return;\n        }\n        uint256 tokenSupply = pool.poolToken.balanceOf(address(this));\n        if (tokenSupply == 0) {\n            pool.lastRewardBlock = block.number;\n            return;\n        }\n        uint256 numBlocks = block.number.sub(pool.lastRewardBlock);\n        uint256 rewardPerBlock = rewardRate.mul(SECONDS_PER_DAY).div(BLOCK_PER_DAY);\n        uint256 apexReward = numBlocks.mul(rewardPerBlock).mul(pool.allocPoint).div(totalAllocPoint);\n        pool.accApexPerShare = pool.accApexPerShare.add(apexReward.mul(1e12).div(tokenSupply));\n        pool.lastRewardBlock = block.number;\n    }\n\n    function depositWhitelist(address referrerAddress) public payable {\n        require(referrerAddress != address(0) && referrerAddress != msg.sender, \"Invalid referrer address\");\n        whitelistContributed[msg.sender] += msg.value; // Overflow protection from safemath is not needed here\n        require(whitelistContributed[msg.sender] <= 5 * 1e18, \"Whitelist contribution amount exceeds maximum\");\n\n        if(LPGenerationCompleted == false) {\n            totalWhitelistContributed = totalWhitelistContributed.add(msg.value); // for front end display during LGE\n            initialWhitelistParticipants.push(msg.sender);\n            referrerInfo[msg.sender] = referrerAddress;\n            emit LiquidityAddition(msg.sender, msg.value);\n        } else {\n            uint ethReceived = msg.value;\n            uint devPortion = msg.value.mul(4).div(100);\n            devAddr.transfer(devPortion);\n            uint prizePoolPortion = msg.value.mul(7).div(100);\n            topReferrer.dep{value: prizePoolPortion}();\n            uint ethRemaining = ethReceived.sub(devPortion).sub(prizePoolPortion);\n            uint ethToConvert = ethRemaining.div(2);\n            uint ethToTransfer = ethRemaining - ethToConvert;\n            uint[] memory amounts = connector.uniswapRouterV2().swapExactETHForTokens{value: ethToConvert}(0,\n                connector.getPathForETHToApex(), address(this), block.timestamp+15);\n            uint apexAmount = amounts[amounts.length - 1];\n            address WETH = connector.uniswapRouterV2().WETH();\n            IWETH(WETH).deposit{value : ethToTransfer}();\n            IWETH(WETH).transfer(address(connector.pair()),ethToTransfer);\n            safeApexTransfer(address(connector.pair()), apexAmount);\n            connector.pair().mint(msg.sender);\n            uint256 lPTokensMinted = connector.pair().balanceOf(msg.sender);\n            require(lPTokensMinted != 0 , \"LP creation failed\");\n        }\n    }\n\n    function liquidityGenerationUniswapAPEXxWETHPair() public {\n        require(LPGenerationCompleted == false, \"Liquidity generation already finished\");\n        totalPrizePool = address(this).balance.mul(7).div(100);\n        devAddr.transfer(address(this).balance.mul(4).div(100));\n        topReferrer.dep{value: totalPrizePool}();\n        totalWhitelistContributed = address(this).balance;\n\n        //Wrap eth\n        address WETH = connector.uniswapRouterV2().WETH();\n        IWETH(WETH).deposit{value : totalWhitelistContributed}();\n        require(address(this).balance == 0 , \"Transfer Failed\");\n        IWETH(WETH).transfer(address(connector.pair()),totalWhitelistContributed);\n        apex.mint(address(this), 37000 * 1e18);\n        safeApexTransfer(address(connector.pair()), apex.balanceOf(address(this)));\n        connector.pair().mint(address(this));\n        totalLPTokensMinted = connector.pair().balanceOf(address(this));\n        require(totalLPTokensMinted != 0 , \"LP creation failed\");\n        LPperETHUnit = totalLPTokensMinted.mul(1e18).div(totalWhitelistContributed); // 1e18x for  change\n\n        require(LPperETHUnit != 0 , \"LP creation failed\");\n        LPGenerationCompleted = true;\n    }\n\n    // Deposit tokens for APEX allocation.\n    function deposit(uint256 _pid, uint256 _amount, address referrerAddress) public payable {\n        PoolInfo storage pool = poolInfo[_pid];\n        UserInfo storage user = userInfo[_pid][msg.sender];\n        updatePool(_pid);\n        if (user.amount > 0) {\n            uint256 pending = user.amount.mul(pool.accApexPerShare).div(1e12).sub(user.rewardDebt);\n            if(pending > 0) {\n                safeApexTransfer(msg.sender, pending);\n            }\n        }\n        checkRewardDecrease();\n        if (_amount > 0) {\n            if (_pid == 1) {\n                uint ethReceived = msg.value;\n                address WETH = connector.uniswapRouterV2().WETH();\n                IWETH(WETH).deposit{value : ethReceived}();\n                user.amount = user.amount.add(ethReceived);\n                require(user.amount < 32 * 1e18, \"Total deposit exceeds 32 ETH\");\n            } else {\n                pool.poolToken.safeTransferFrom(address(msg.sender), address(this), _amount);\n                uint256 amountToReferrer = _amount.mul(5).div(89);\n                UserInfo storage referrer = userInfo[_pid][referrerAddress];\n\n                if(user.amount > 0) {\n                    topReferrer.updateLpAmount(msg.sender, _amount.sub(amountToReferrer));\n                } else {\n                    topReferrer.addUser(msg.sender, _amount.sub(amountToReferrer));\n                }\n                topReferrer.updateLpAmount(referrerAddress, amountToReferrer);\n\n                referrer.amount = referrer.amount.add(amountToReferrer);\n                user.amount = user.amount.add(_amount.sub(amountToReferrer));\n            }\n        }\n\n        user.rewardDebt = user.amount.mul(pool.accApexPerShare).div(1e12);\n        emit Deposit(msg.sender, _pid, _amount);\n    }\n\n    // Withdraw staked tokens.\n    function withdraw(uint256 _pid, uint256 _amount) public {\n        PoolInfo storage pool = poolInfo[_pid];\n        UserInfo storage user = userInfo[_pid][msg.sender];\n        require(user.amount >= _amount, \"withdraw: not good\");\n        updatePool(_pid);\n        uint256 pending = user.amount.mul(pool.accApexPerShare).div(1e12).sub(user.rewardDebt);\n        if(pending > 0) {\n            safeApexTransfer(msg.sender, pending);\n        }\n        checkRewardDecrease();\n        if(_amount > 0) {\n            user.amount = user.amount.sub(_amount);\n            pool.poolToken.safeTransfer(address(msg.sender), _amount);\n        }\n        user.rewardDebt = user.amount.mul(pool.accApexPerShare).div(1e12);\n        emit Withdraw(msg.sender, _pid, _amount);\n    }\n\n    // Safe APEX transfer function, just in case if rounding error causes pool to not have enough APEX.\n    function safeApexTransfer(address _to, uint256 _amount) internal {\n        uint256 apexBal = apex.balanceOf(address(this));\n        if (_amount > apexBal) {\n            apex.transfer(_to, apexBal);\n        } else {\n            apex.transfer(_to, _amount);\n        }\n    }\n}\n",
  "sourcePath": "/home/pudin/dev/eattheblocks/screencast/235-fork-sushiswap/contracts/ApexMain.sol",
  "compiler": {
    "name": "solc",
    "version": "0.6.12+commit.27d51765.Emscripten.clang"
  },
  "schemaVersion": "3.3.1",
  "updatedAt": "2020-11-16T11:03:56.656Z",
  "networkType": "ethereum",
  "devdoc": {
    "kind": "dev",
    "methods": {
      "owner()": {
        "details": "Returns the address of the current owner."
      },
      "renounceOwnership()": {
        "details": "Leaves the contract without owner. It will not be possible to call `onlyOwner` functions anymore. Can only be called by the current owner. NOTE: Renouncing ownership will leave the contract without an owner, thereby removing any functionality that is only available to the owner."
      },
      "transferOwnership(address)": {
        "details": "Transfers ownership of the contract to a new account (`newOwner`). Can only be called by the current owner."
      }
    },
    "version": 1
  },
  "userdoc": {
    "kind": "user",
    "methods": {},
    "version": 1
  }
}