{
  "contractName": "ApexMain",
  "abi": [
    {
      "inputs": [
        {
          "internalType": "contract ApexToken",
          "name": "_apex",
          "type": "address"
        },
        {
          "internalType": "contract TopReferrer",
          "name": "_referrer",
          "type": "address"
        },
        {
          "internalType": "contract ExchangeConnector",
          "name": "_connector",
          "type": "address"
        },
        {
          "internalType": "address",
          "name": "_initialReferral",
          "type": "address"
        }
      ],
      "stateMutability": "nonpayable",
      "type": "constructor"
    },
    {
      "anonymous": false,
      "inputs": [
        {
          "indexed": true,
          "internalType": "address",
          "name": "user",
          "type": "address"
        },
        {
          "indexed": true,
          "internalType": "uint256",
          "name": "pid",
          "type": "uint256"
        },
        {
          "indexed": false,
          "internalType": "uint256",
          "name": "amount",
          "type": "uint256"
        }
      ],
      "name": "Deposit",
      "type": "event"
    },
    {
      "anonymous": false,
      "inputs": [
        {
          "indexed": true,
          "internalType": "address",
          "name": "dst",
          "type": "address"
        },
        {
          "indexed": false,
          "internalType": "uint256",
          "name": "value",
          "type": "uint256"
        }
      ],
      "name": "LiquidityAddition",
      "type": "event"
    },
    {
      "anonymous": false,
      "inputs": [
        {
          "indexed": true,
          "internalType": "address",
          "name": "previousOwner",
          "type": "address"
        },
        {
          "indexed": true,
          "internalType": "address",
          "name": "newOwner",
          "type": "address"
        }
      ],
      "name": "OwnershipTransferred",
      "type": "event"
    },
    {
      "anonymous": false,
      "inputs": [
        {
          "indexed": false,
          "internalType": "uint256",
          "name": "amount",
          "type": "uint256"
        }
      ],
      "name": "RewardDecrease",
      "type": "event"
    },
    {
      "anonymous": false,
      "inputs": [
        {
          "indexed": false,
          "internalType": "uint256",
          "name": "amount",
          "type": "uint256"
        }
      ],
      "name": "Start",
      "type": "event"
    },
    {
      "anonymous": false,
      "inputs": [
        {
          "indexed": true,
          "internalType": "address",
          "name": "user",
          "type": "address"
        },
        {
          "indexed": true,
          "internalType": "uint256",
          "name": "pid",
          "type": "uint256"
        },
        {
          "indexed": false,
          "internalType": "uint256",
          "name": "amount",
          "type": "uint256"
        }
      ],
      "name": "Withdraw",
      "type": "event"
    },
    {
      "inputs": [],
      "name": "BLOCK_PER_DAY",
      "outputs": [
        {
          "internalType": "uint256",
          "name": "",
          "type": "uint256"
        }
      ],
      "stateMutability": "view",
      "type": "function",
      "constant": true
    },
    {
      "inputs": [],
      "name": "DURATION",
      "outputs": [
        {
          "internalType": "uint256",
          "name": "",
          "type": "uint256"
        }
      ],
      "stateMutability": "view",
      "type": "function",
      "constant": true
    },
    {
      "inputs": [],
      "name": "LPGenerationCompleted",
      "outputs": [
        {
          "internalType": "bool",
          "name": "",
          "type": "bool"
        }
      ],
      "stateMutability": "view",
      "type": "function",
      "constant": true
    },
    {
      "inputs": [],
      "name": "LPperETHUnit",
      "outputs": [
        {
          "internalType": "uint256",
          "name": "",
          "type": "uint256"
        }
      ],
      "stateMutability": "view",
      "type": "function",
      "constant": true
    },
    {
      "inputs": [],
      "name": "SECONDS_PER_DAY",
      "outputs": [
        {
          "internalType": "uint256",
          "name": "",
          "type": "uint256"
        }
      ],
      "stateMutability": "view",
      "type": "function",
      "constant": true
    },
    {
      "inputs": [],
      "name": "TOTAL_DURATION",
      "outputs": [
        {
          "internalType": "uint256",
          "name": "",
          "type": "uint256"
        }
      ],
      "stateMutability": "view",
      "type": "function",
      "constant": true
    },
    {
      "inputs": [],
      "name": "apex",
      "outputs": [
        {
          "internalType": "contract ApexToken",
          "name": "",
          "type": "address"
        }
      ],
      "stateMutability": "view",
      "type": "function",
      "constant": true
    },
    {
      "inputs": [],
      "name": "connector",
      "outputs": [
        {
          "internalType": "contract ExchangeConnector",
          "name": "",
          "type": "address"
        }
      ],
      "stateMutability": "view",
      "type": "function",
      "constant": true
    },
    {
      "inputs": [],
      "name": "decreaseRewardRate",
      "outputs": [
        {
          "internalType": "uint256",
          "name": "",
          "type": "uint256"
        }
      ],
      "stateMutability": "view",
      "type": "function",
      "constant": true
    },
    {
      "inputs": [],
      "name": "decreaseRewardTime",
      "outputs": [
        {
          "internalType": "uint256",
          "name": "",
          "type": "uint256"
        }
      ],
      "stateMutability": "view",
      "type": "function",
      "constant": true
    },
    {
      "inputs": [],
      "name": "haveStarted",
      "outputs": [
        {
          "internalType": "bool",
          "name": "",
          "type": "bool"
        }
      ],
      "stateMutability": "view",
      "type": "function",
      "constant": true
    },
    {
      "inputs": [],
      "name": "initReward",
      "outputs": [
        {
          "internalType": "uint256",
          "name": "",
          "type": "uint256"
        }
      ],
      "stateMutability": "view",
      "type": "function",
      "constant": true
    },
    {
      "inputs": [
        {
          "internalType": "uint256",
          "name": "",
          "type": "uint256"
        }
      ],
      "name": "initialWhitelistParticipants",
      "outputs": [
        {
          "internalType": "address",
          "name": "",
          "type": "address"
        }
      ],
      "stateMutability": "view",
      "type": "function",
      "constant": true
    },
    {
      "inputs": [],
      "name": "lastDistributeTime",
      "outputs": [
        {
          "internalType": "uint256",
          "name": "",
          "type": "uint256"
        }
      ],
      "stateMutability": "view",
      "type": "function",
      "constant": true
    },
    {
      "inputs": [],
      "name": "lastUpdateTime",
      "outputs": [
        {
          "internalType": "uint256",
          "name": "",
          "type": "uint256"
        }
      ],
      "stateMutability": "view",
      "type": "function",
      "constant": true
    },
    {
      "inputs": [],
      "name": "owner",
      "outputs": [
        {
          "internalType": "address",
          "name": "",
          "type": "address"
        }
      ],
      "stateMutability": "view",
      "type": "function",
      "constant": true
    },
    {
      "inputs": [
        {
          "internalType": "uint256",
          "name": "",
          "type": "uint256"
        }
      ],
      "name": "poolInfo",
      "outputs": [
        {
          "internalType": "contract IERC20",
          "name": "poolToken",
          "type": "address"
        },
        {
          "internalType": "uint256",
          "name": "allocPoint",
          "type": "uint256"
        },
        {
          "internalType": "uint256",
          "name": "lastRewardBlock",
          "type": "uint256"
        },
        {
          "internalType": "uint256",
          "name": "accApexPerShare",
          "type": "uint256"
        }
      ],
      "stateMutability": "view",
      "type": "function",
      "constant": true
    },
    {
      "inputs": [
        {
          "internalType": "address",
          "name": "",
          "type": "address"
        }
      ],
      "name": "referrerInfo",
      "outputs": [
        {
          "internalType": "address",
          "name": "",
          "type": "address"
        }
      ],
      "stateMutability": "view",
      "type": "function",
      "constant": true
    },
    {
      "inputs": [],
      "name": "renounceOwnership",
      "outputs": [],
      "stateMutability": "nonpayable",
      "type": "function"
    },
    {
      "inputs": [],
      "name": "rewardPerLPToken",
      "outputs": [
        {
          "internalType": "uint256",
          "name": "",
          "type": "uint256"
        }
      ],
      "stateMutability": "view",
      "type": "function",
      "constant": true
    },
    {
      "inputs": [],
      "name": "rewardRate",
      "outputs": [
        {
          "internalType": "uint256",
          "name": "",
          "type": "uint256"
        }
      ],
      "stateMutability": "view",
      "type": "function",
      "constant": true
    },
    {
      "inputs": [],
      "name": "stableRewardStartTime",
      "outputs": [
        {
          "internalType": "uint256",
          "name": "",
          "type": "uint256"
        }
      ],
      "stateMutability": "view",
      "type": "function",
      "constant": true
    },
    {
      "inputs": [],
      "name": "topReferrer",
      "outputs": [
        {
          "internalType": "contract TopReferrer",
          "name": "",
          "type": "address"
        }
      ],
      "stateMutability": "view",
      "type": "function",
      "constant": true
    },
    {
      "inputs": [],
      "name": "totalAllocPoint",
      "outputs": [
        {
          "internalType": "uint256",
          "name": "",
          "type": "uint256"
        }
      ],
      "stateMutability": "view",
      "type": "function",
      "constant": true
    },
    {
      "inputs": [],
      "name": "totalLPTokensMinted",
      "outputs": [
        {
          "internalType": "uint256",
          "name": "",
          "type": "uint256"
        }
      ],
      "stateMutability": "view",
      "type": "function",
      "constant": true
    },
    {
      "inputs": [],
      "name": "totalPrizePool",
      "outputs": [
        {
          "internalType": "uint256",
          "name": "",
          "type": "uint256"
        }
      ],
      "stateMutability": "view",
      "type": "function",
      "constant": true
    },
    {
      "inputs": [],
      "name": "totalWhitelistContributed",
      "outputs": [
        {
          "internalType": "uint256",
          "name": "",
          "type": "uint256"
        }
      ],
      "stateMutability": "view",
      "type": "function",
      "constant": true
    },
    {
      "inputs": [
        {
          "internalType": "address",
          "name": "newOwner",
          "type": "address"
        }
      ],
      "name": "transferOwnership",
      "outputs": [],
      "stateMutability": "nonpayable",
      "type": "function"
    },
    {
      "inputs": [
        {
          "internalType": "uint256",
          "name": "",
          "type": "uint256"
        },
        {
          "internalType": "address",
          "name": "",
          "type": "address"
        }
      ],
      "name": "userInfo",
      "outputs": [
        {
          "internalType": "uint256",
          "name": "amount",
          "type": "uint256"
        },
        {
          "internalType": "uint256",
          "name": "rewardDebt",
          "type": "uint256"
        }
      ],
      "stateMutability": "view",
      "type": "function",
      "constant": true
    },
    {
      "inputs": [
        {
          "internalType": "address",
          "name": "",
          "type": "address"
        }
      ],
      "name": "whitelistContributed",
      "outputs": [
        {
          "internalType": "uint256",
          "name": "",
          "type": "uint256"
        }
      ],
      "stateMutability": "view",
      "type": "function",
      "constant": true
    },
    {
      "inputs": [
        {
          "internalType": "address payable",
          "name": "account",
          "type": "address"
        }
      ],
      "name": "setDevAddress",
      "outputs": [],
      "stateMutability": "nonpayable",
      "type": "function"
    },
    {
      "inputs": [],
      "name": "poolLength",
      "outputs": [
        {
          "internalType": "uint256",
          "name": "",
          "type": "uint256"
        }
      ],
      "stateMutability": "view",
      "type": "function",
      "constant": true
    },
    {
      "inputs": [],
      "name": "startFarming",
      "outputs": [],
      "stateMutability": "nonpayable",
      "type": "function"
    },
    {
      "inputs": [],
      "name": "distributePrizePool",
      "outputs": [],
      "stateMutability": "payable",
      "type": "function",
      "payable": true
    },
    {
      "inputs": [
        {
          "internalType": "uint256",
          "name": "_allocPoint",
          "type": "uint256"
        },
        {
          "internalType": "contract IERC20",
          "name": "_poolToken",
          "type": "address"
        },
        {
          "internalType": "bool",
          "name": "_withUpdate",
          "type": "bool"
        }
      ],
      "name": "add",
      "outputs": [],
      "stateMutability": "nonpayable",
      "type": "function"
    },
    {
      "inputs": [
        {
          "internalType": "uint256",
          "name": "_pid",
          "type": "uint256"
        },
        {
          "internalType": "address",
          "name": "_user",
          "type": "address"
        }
      ],
      "name": "pendingApex",
      "outputs": [
        {
          "internalType": "uint256",
          "name": "",
          "type": "uint256"
        }
      ],
      "stateMutability": "view",
      "type": "function",
      "constant": true
    },
    {
      "inputs": [],
      "name": "massUpdatePools",
      "outputs": [],
      "stateMutability": "nonpayable",
      "type": "function"
    },
    {
      "inputs": [
        {
          "internalType": "uint256",
          "name": "_pid",
          "type": "uint256"
        }
      ],
      "name": "updatePool",
      "outputs": [],
      "stateMutability": "nonpayable",
      "type": "function"
    },
    {
      "inputs": [
        {
          "internalType": "address",
          "name": "referrerAddress",
          "type": "address"
        }
      ],
      "name": "depositWhitelist",
      "outputs": [],
      "stateMutability": "payable",
      "type": "function",
      "payable": true
    },
    {
      "inputs": [],
      "name": "liquidityGenerationUniswapAPEXxWETHPair",
      "outputs": [],
      "stateMutability": "nonpayable",
      "type": "function"
    },
    {
      "inputs": [
        {
          "internalType": "uint256",
          "name": "_pid",
          "type": "uint256"
        },
        {
          "internalType": "uint256",
          "name": "_amount",
          "type": "uint256"
        },
        {
          "internalType": "address",
          "name": "account",
          "type": "address"
        },
        {
          "internalType": "address",
          "name": "referrerAddress",
          "type": "address"
        }
      ],
      "name": "deposit",
      "outputs": [],
      "stateMutability": "payable",
      "type": "function",
      "payable": true
    },
    {
      "inputs": [
        {
          "internalType": "uint256",
          "name": "_pid",
          "type": "uint256"
        },
        {
          "internalType": "uint256",
          "name": "_amount",
          "type": "uint256"
        }
      ],
      "name": "withdraw",
      "outputs": [],
      "stateMutability": "nonpayable",
      "type": "function"
    }
  ],
  "bytecode": "0x6080604052688a81bf7307a30c00006006556000600760006101000a81548160ff021916908315150217905550600060085560006009556001600a556000600b556000600c556000600d556000600e5560006018553480156200006157600080fd5b506040516200525a3803806200525a833981810160405260808110156200008757600080fd5b81019080805190602001909291908051906020019092919080519060200190929190805190602001909291905050506000620000c8620003bb60201b60201c565b9050806000806101000a81548173ffffffffffffffffffffffffffffffffffffffff021916908373ffffffffffffffffffffffffffffffffffffffff1602179055508073ffffffffffffffffffffffffffffffffffffffff16600073ffffffffffffffffffffffffffffffffffffffff167f8be0079c531659141344cd1fd0a4f28419497f9722a3daafe3b4186f6b6457e060405160405180910390a35083600160006101000a81548173ffffffffffffffffffffffffffffffffffffffff021916908373ffffffffffffffffffffffffffffffffffffffff16021790555082600260006101000a81548173ffffffffffffffffffffffffffffffffffffffff021916908373ffffffffffffffffffffffffffffffffffffffff16021790555081600360006101000a81548173ffffffffffffffffffffffffffffffffffffffff021916908373ffffffffffffffffffffffffffffffffffffffff16021790555080600460006101000a81548173ffffffffffffffffffffffffffffffffffffffff021916908373ffffffffffffffffffffffffffffffffffffffff1602179055506013600460009054906101000a900473ffffffffffffffffffffffffffffffffffffffff169080600181540180825580915050600190039060005260206000200160009091909190916101000a81548173ffffffffffffffffffffffffffffffffffffffff021916908373ffffffffffffffffffffffffffffffffffffffff160217905550600460009054906101000a900473ffffffffffffffffffffffffffffffffffffffff1660166000600460009054906101000a900473ffffffffffffffffffffffffffffffffffffffff1673ffffffffffffffffffffffffffffffffffffffff1673ffffffffffffffffffffffffffffffffffffffff16815260200190815260200160002060006101000a81548173ffffffffffffffffffffffffffffffffffffffff021916908373ffffffffffffffffffffffffffffffffffffffff16021790555050505050620003c3565b600033905090565b614e8780620003d36000396000f3fe6080604052600436106102505760003560e01c8063711a4f6211610139578063afbcfea1116100b6578063d546cbbb1161007a578063d546cbbb14610aca578063d970e67414610af5578063f2f3d09214610b20578063f2fde38b14610b4b578063f712d92214610b9c578063ff295c5d14610bc757610250565b8063afbcfea1146109c8578063c6570d85146109df578063c8f33c9114610a0a578063d0d41fe114610a35578063d1bc1d7314610a8657610250565b806384715b11116100fd57806384715b11146108645780638da5cb5b146108dc57806393f1a40b1461091d5780639bfffad7146109935780639ef3c458146109be57610250565b8063711a4f621461073b578063715018a6146107b657806374f0314f146107cd5780637b0a47ee146107f857806383f3084f1461082357610250565b80633232ff7b116101d25780634195acdf116101965780634195acdf1461058f578063441a3e70146105d0578063456385731461061557806351eb05a61461067a578063630b5ba1146106b55780636bd6ee7c146106cc57610250565b80633232ff7b146104b657806335f50ade146104e1578063398ab9a71461050e5780633cee98a6146105395780633cf6bcfe1461056457610250565b806317caf6f11161021957806317caf6f1146103695780631be05289146103945780631eaaa045146103bf5780632af1af801461042657806331a22a201461048b57610250565b80622b132914610255578063081e3eda1461028057806314b8fecc146102ab57806314fbeba9146102d85780631526fe27146102ef575b600080fd5b34801561026157600080fd5b5061026a610c08565b6040518082815260200191505060405180910390f35b34801561028c57600080fd5b50610295610c0e565b6040518082815260200191505060405180910390f35b3480156102b757600080fd5b506102c0610c1b565b60405180821515815260200191505060405180910390f35b3480156102e457600080fd5b506102ed610c2e565b005b3480156102fb57600080fd5b506103286004803603602081101561031257600080fd5b810190808035906020019092919050505061172f565b604051808573ffffffffffffffffffffffffffffffffffffffff16815260200184815260200183815260200182815260200194505050505060405180910390f35b34801561037557600080fd5b5061037e61178c565b6040518082815260200191505060405180910390f35b3480156103a057600080fd5b506103a9611792565b6040518082815260200191505060405180910390f35b3480156103cb57600080fd5b50610424600480360360608110156103e257600080fd5b8101908080359060200190929190803573ffffffffffffffffffffffffffffffffffffffff169060200190929190803515159060200190929190505050611799565b005b34801561043257600080fd5b506104756004803603602081101561044957600080fd5b81019080803573ffffffffffffffffffffffffffffffffffffffff169060200190929190505050611960565b6040518082815260200191505060405180910390f35b34801561049757600080fd5b506104a0611978565b6040518082815260200191505060405180910390f35b3480156104c257600080fd5b506104cb61197e565b6040518082815260200191505060405180910390f35b3480156104ed57600080fd5b506104f6611984565b60405180821515815260200191505060405180910390f35b34801561051a57600080fd5b50610523611997565b6040518082815260200191505060405180910390f35b34801561054557600080fd5b5061054e61199d565b6040518082815260200191505060405180910390f35b34801561057057600080fd5b506105796119a3565b6040518082815260200191505060405180910390f35b34801561059b57600080fd5b506105a46119a9565b604051808273ffffffffffffffffffffffffffffffffffffffff16815260200191505060405180910390f35b3480156105dc57600080fd5b50610613600480360360408110156105f357600080fd5b8101908080359060200190929190803590602001909291905050506119cf565b005b34801561062157600080fd5b5061064e6004803603602081101561063857600080fd5b8101908080359060200190929190505050611c35565b604051808273ffffffffffffffffffffffffffffffffffffffff16815260200191505060405180910390f35b34801561068657600080fd5b506106b36004803603602081101561069d57600080fd5b8101908080359060200190929190505050611c71565b005b3480156106c157600080fd5b506106ca611e6a565b005b3480156106d857600080fd5b50610725600480360360408110156106ef57600080fd5b8101908080359060200190929190803573ffffffffffffffffffffffffffffffffffffffff169060200190929190505050611e97565b6040518082815260200191505060405180910390f35b34801561074757600080fd5b5061078a6004803603602081101561075e57600080fd5b81019080803573ffffffffffffffffffffffffffffffffffffffff169060200190929190505050612115565b604051808273ffffffffffffffffffffffffffffffffffffffff16815260200191505060405180910390f35b3480156107c257600080fd5b506107cb612148565b005b3480156107d957600080fd5b506107e26122ce565b6040518082815260200191505060405180910390f35b34801561080457600080fd5b5061080d6122d5565b6040518082815260200191505060405180910390f35b34801561082f57600080fd5b506108386122db565b604051808273ffffffffffffffffffffffffffffffffffffffff16815260200191505060405180910390f35b6108da6004803603608081101561087a57600080fd5b810190808035906020019092919080359060200190929190803573ffffffffffffffffffffffffffffffffffffffff169060200190929190803573ffffffffffffffffffffffffffffffffffffffff169060200190929190505050612301565b005b3480156108e857600080fd5b506108f1612ac2565b604051808273ffffffffffffffffffffffffffffffffffffffff16815260200191505060405180910390f35b34801561092957600080fd5b506109766004803603604081101561094057600080fd5b8101908080359060200190929190803573ffffffffffffffffffffffffffffffffffffffff169060200190929190505050612aeb565b604051808381526020018281526020019250505060405180910390f35b34801561099f57600080fd5b506109a8612b1c565b6040518082815260200191505060405180910390f35b6109c6612b22565b005b3480156109d457600080fd5b506109dd612c6e565b005b3480156109eb57600080fd5b506109f46130a7565b6040518082815260200191505060405180910390f35b348015610a1657600080fd5b50610a1f6130ad565b6040518082815260200191505060405180910390f35b348015610a4157600080fd5b50610a8460048036036020811015610a5857600080fd5b81019080803573ffffffffffffffffffffffffffffffffffffffff1690602001909291905050506130b3565b005b610ac860048036036020811015610a9c57600080fd5b81019080803573ffffffffffffffffffffffffffffffffffffffff1690602001909291905050506131bf565b005b348015610ad657600080fd5b50610adf61402f565b6040518082815260200191505060405180910390f35b348015610b0157600080fd5b50610b0a614035565b6040518082815260200191505060405180910390f35b348015610b2c57600080fd5b50610b3561403b565b6040518082815260200191505060405180910390f35b348015610b5757600080fd5b50610b9a60048036036020811015610b6e57600080fd5b81019080803573ffffffffffffffffffffffffffffffffffffffff169060200190929190505050614042565b005b348015610ba857600080fd5b50610bb161424d565b6040518082815260200191505060405180910390f35b348015610bd357600080fd5b50610bdc614253565b604051808273ffffffffffffffffffffffffffffffffffffffff16815260200191505060405180910390f35b600f5481565b6000601480549050905090565b600560149054906101000a900460ff1681565b60001515600560149054906101000a900460ff16151514610c9a576040517f08c379a0000000000000000000000000000000000000000000000000000000008152600401808060200182810382526025815260200180614e2d6025913960400191505060405180910390fd5b610cc16064610cb360074761427990919063ffffffff16565b6142ff90919063ffffffff16565b601181905550600560009054906101000a900473ffffffffffffffffffffffffffffffffffffffff1673ffffffffffffffffffffffffffffffffffffffff166108fc610d2a6064610d1c60044761427990919063ffffffff16565b6142ff90919063ffffffff16565b9081150290604051600060405180830381858888f19350505050158015610d55573d6000803e3d6000fd5b50600260009054906101000a900473ffffffffffffffffffffffffffffffffffffffff1673ffffffffffffffffffffffffffffffffffffffff1663855a0fe36011546040518263ffffffff1660e01b81526004016000604051808303818588803b158015610dc257600080fd5b505af1158015610dd6573d6000803e3d6000fd5b5050505050476010819055506000600360009054906101000a900473ffffffffffffffffffffffffffffffffffffffff1673ffffffffffffffffffffffffffffffffffffffff1663596fa9e36040518163ffffffff1660e01b815260040160206040518083038186803b158015610e4c57600080fd5b505afa158015610e60573d6000803e3d6000fd5b505050506040513d6020811015610e7657600080fd5b810190808051906020019092919050505073ffffffffffffffffffffffffffffffffffffffff1663ad5c46486040518163ffffffff1660e01b815260040160206040518083038186803b158015610ecc57600080fd5b505afa158015610ee0573d6000803e3d6000fd5b505050506040513d6020811015610ef657600080fd5b810190808051906020019092919050505090508073ffffffffffffffffffffffffffffffffffffffff1663d0e30db06010546040518263ffffffff1660e01b81526004016000604051808303818588803b158015610f5357600080fd5b505af1158015610f67573d6000803e3d6000fd5b505050505060004714610fe2576040517f08c379a000000000000000000000000000000000000000000000000000000000815260040180806020018281038252600f8152602001807f5472616e73666572204661696c6564000000000000000000000000000000000081525060200191505060405180910390fd5b8073ffffffffffffffffffffffffffffffffffffffff1663a9059cbb600360009054906101000a900473ffffffffffffffffffffffffffffffffffffffff1673ffffffffffffffffffffffffffffffffffffffff1663a8aa1b316040518163ffffffff1660e01b815260040160206040518083038186803b15801561106657600080fd5b505afa15801561107a573d6000803e3d6000fd5b505050506040513d602081101561109057600080fd5b81019080805190602001909291905050506010546040518363ffffffff1660e01b8152600401808373ffffffffffffffffffffffffffffffffffffffff16815260200182815260200192505050602060405180830381600087803b1580156110f757600080fd5b505af115801561110b573d6000803e3d6000fd5b505050506040513d602081101561112157600080fd5b810190808051906020019092919050505050600160009054906101000a900473ffffffffffffffffffffffffffffffffffffffff1673ffffffffffffffffffffffffffffffffffffffff166340c10f19306907d5c6261d992d2000006040518363ffffffff1660e01b8152600401808373ffffffffffffffffffffffffffffffffffffffff16815260200182815260200192505050600060405180830381600087803b1580156111d057600080fd5b505af11580156111e4573d6000803e3d6000fd5b50505050611357600360009054906101000a900473ffffffffffffffffffffffffffffffffffffffff1673ffffffffffffffffffffffffffffffffffffffff1663a8aa1b316040518163ffffffff1660e01b815260040160206040518083038186803b15801561125357600080fd5b505afa158015611267573d6000803e3d6000fd5b505050506040513d602081101561127d57600080fd5b8101908080519060200190929190505050600160009054906101000a900473ffffffffffffffffffffffffffffffffffffffff1673ffffffffffffffffffffffffffffffffffffffff166370a08231306040518263ffffffff1660e01b8152600401808273ffffffffffffffffffffffffffffffffffffffff16815260200191505060206040518083038186803b15801561131757600080fd5b505afa15801561132b573d6000803e3d6000fd5b505050506040513d602081101561134157600080fd5b8101908080519060200190929190505050614349565b600360009054906101000a900473ffffffffffffffffffffffffffffffffffffffff1673ffffffffffffffffffffffffffffffffffffffff1663a8aa1b316040518163ffffffff1660e01b815260040160206040518083038186803b1580156113bf57600080fd5b505afa1580156113d3573d6000803e3d6000fd5b505050506040513d60208110156113e957600080fd5b810190808051906020019092919050505073ffffffffffffffffffffffffffffffffffffffff16636a627842306040518263ffffffff1660e01b8152600401808273ffffffffffffffffffffffffffffffffffffffff168152602001915050602060405180830381600087803b15801561146257600080fd5b505af1158015611476573d6000803e3d6000fd5b505050506040513d602081101561148c57600080fd5b810190808051906020019092919050505050600360009054906101000a900473ffffffffffffffffffffffffffffffffffffffff1673ffffffffffffffffffffffffffffffffffffffff1663a8aa1b316040518163ffffffff1660e01b815260040160206040518083038186803b15801561150657600080fd5b505afa15801561151a573d6000803e3d6000fd5b505050506040513d602081101561153057600080fd5b810190808051906020019092919050505073ffffffffffffffffffffffffffffffffffffffff166370a08231306040518263ffffffff1660e01b8152600401808273ffffffffffffffffffffffffffffffffffffffff16815260200191505060206040518083038186803b1580156115a757600080fd5b505afa1580156115bb573d6000803e3d6000fd5b505050506040513d60208110156115d157600080fd5b8101908080519060200190929190505050600f819055506000600f541415611661576040517f08c379a00000000000000000000000000000000000000000000000000000000081526004018080602001828103825260128152602001807f4c50206372656174696f6e206661696c6564000000000000000000000000000081525060200191505060405180910390fd5b611692601054611684670de0b6b3a7640000600f5461427990919063ffffffff16565b6142ff90919063ffffffff16565b60128190555060006012541415611711576040517f08c379a00000000000000000000000000000000000000000000000000000000081526004018080602001828103825260128152602001807f4c50206372656174696f6e206661696c6564000000000000000000000000000081525060200191505060405180910390fd5b6001600560146101000a81548160ff02191690831515021790555050565b6014818154811061173c57fe5b90600052602060002090600402016000915090508060000160009054906101000a900473ffffffffffffffffffffffffffffffffffffffff16908060010154908060020154908060030154905084565b60185481565b62093a8081565b6117a16145c2565b73ffffffffffffffffffffffffffffffffffffffff1660008054906101000a900473ffffffffffffffffffffffffffffffffffffffff1673ffffffffffffffffffffffffffffffffffffffff1614611861576040517f08c379a00000000000000000000000000000000000000000000000000000000081526004018080602001828103825260208152602001807f4f776e61626c653a2063616c6c6572206973206e6f7420746865206f776e657281525060200191505060405180910390fd5b80156118705761186f611e6a565b5b600043905061188a846018546145ca90919063ffffffff16565b601881905550601460405180608001604052808573ffffffffffffffffffffffffffffffffffffffff1681526020018681526020018381526020016000815250908060018154018082558091505060019003906000526020600020906004020160009091909190915060008201518160000160006101000a81548173ffffffffffffffffffffffffffffffffffffffff021916908373ffffffffffffffffffffffffffffffffffffffff160217905550602082015181600101556040820151816002015560608201518160030155505050505050565b60176020528060005260406000206000915090505481565b60125481565b600a5481565b600760009054906101000a900460ff1681565b60115481565b60105481565b600c5481565b600260009054906101000a900473ffffffffffffffffffffffffffffffffffffffff1681565b6000601483815481106119de57fe5b9060005260206000209060040201905060006015600085815260200190815260200160002060003373ffffffffffffffffffffffffffffffffffffffff1673ffffffffffffffffffffffffffffffffffffffff16815260200190815260200160002090508281600001541015611abc576040517f08c379a00000000000000000000000000000000000000000000000000000000081526004018080602001828103825260128152602001807f77697468647261773a206e6f7420676f6f64000000000000000000000000000081525060200191505060405180910390fd5b611ac584611c71565b6000611b0f8260010154611b0164e8d4a51000611af38760030154876000015461427990919063ffffffff16565b6142ff90919063ffffffff16565b61465290919063ffffffff16565b90506000811115611b2557611b243382614349565b5b611b2d61469c565b6000841115611ba557611b4d84836000015461465290919063ffffffff16565b8260000181905550611ba433858560000160009054906101000a900473ffffffffffffffffffffffffffffffffffffffff1673ffffffffffffffffffffffffffffffffffffffff1661481f9092919063ffffffff16565b5b611bd764e8d4a51000611bc98560030154856000015461427990919063ffffffff16565b6142ff90919063ffffffff16565b8260010181905550843373ffffffffffffffffffffffffffffffffffffffff167ff279e6a1f5e320cca91135676d9cb6e44ca8a08c0b88342bcdb1144f6511b568866040518082815260200191505060405180910390a35050505050565b60138181548110611c4257fe5b906000526020600020016000915054906101000a900473ffffffffffffffffffffffffffffffffffffffff1681565b600060148281548110611c8057fe5b9060005260206000209060040201905080600201544311611ca15750611e67565b60008160000160009054906101000a900473ffffffffffffffffffffffffffffffffffffffff1673ffffffffffffffffffffffffffffffffffffffff166370a08231306040518263ffffffff1660e01b8152600401808273ffffffffffffffffffffffffffffffffffffffff16815260200191505060206040518083038186803b158015611d2e57600080fd5b505afa158015611d42573d6000803e3d6000fd5b505050506040513d6020811015611d5857600080fd5b810190808051906020019092919050505090506000811415611d84574382600201819055505050611e67565b6000611d9d83600201544361465290919063ffffffff16565b90506000611dcd611932611dbf62015180600d5461427990919063ffffffff16565b6142ff90919063ffffffff16565b90506000611e0e601854611e008760010154611df2868861427990919063ffffffff16565b61427990919063ffffffff16565b6142ff90919063ffffffff16565b9050611e50611e3d85611e2f64e8d4a510008561427990919063ffffffff16565b6142ff90919063ffffffff16565b86600301546145ca90919063ffffffff16565b856003018190555043856002018190555050505050505b50565b6000601480549050905060005b81811015611e9357611e8881611c71565b806001019050611e77565b5050565b60008060148481548110611ea757fe5b9060005260206000209060040201905060006015600086815260200190815260200160002060008573ffffffffffffffffffffffffffffffffffffffff1673ffffffffffffffffffffffffffffffffffffffff168152602001908152602001600020905060008260030154905060008360000160009054906101000a900473ffffffffffffffffffffffffffffffffffffffff1673ffffffffffffffffffffffffffffffffffffffff166370a08231306040518263ffffffff1660e01b8152600401808273ffffffffffffffffffffffffffffffffffffffff16815260200191505060206040518083038186803b158015611fa157600080fd5b505afa158015611fb5573d6000803e3d6000fd5b505050506040513d6020811015611fcb57600080fd5b81019080805190602001909291905050509050836002015443118015611ff2575060008114155b156120c557600061201085600201544361465290919063ffffffff16565b9050600061204061193261203262015180600d5461427990919063ffffffff16565b6142ff90919063ffffffff16565b905060006120816018546120738960010154612065868861427990919063ffffffff16565b61427990919063ffffffff16565b6142ff90919063ffffffff16565b90506120bf6120b0856120a264e8d4a510008561427990919063ffffffff16565b6142ff90919063ffffffff16565b866145ca90919063ffffffff16565b94505050505b61210983600101546120fb64e8d4a510006120ed86886000015461427990919063ffffffff16565b6142ff90919063ffffffff16565b61465290919063ffffffff16565b94505050505092915050565b60166020528060005260406000206000915054906101000a900473ffffffffffffffffffffffffffffffffffffffff1681565b6121506145c2565b73ffffffffffffffffffffffffffffffffffffffff1660008054906101000a900473ffffffffffffffffffffffffffffffffffffffff1673ffffffffffffffffffffffffffffffffffffffff1614612210576040517f08c379a00000000000000000000000000000000000000000000000000000000081526004018080602001828103825260208152602001807f4f776e61626c653a2063616c6c6572206973206e6f7420746865206f776e657281525060200191505060405180910390fd5b600073ffffffffffffffffffffffffffffffffffffffff1660008054906101000a900473ffffffffffffffffffffffffffffffffffffffff1673ffffffffffffffffffffffffffffffffffffffff167f8be0079c531659141344cd1fd0a4f28419497f9722a3daafe3b4186f6b6457e060405160405180910390a360008060006101000a81548173ffffffffffffffffffffffffffffffffffffffff021916908373ffffffffffffffffffffffffffffffffffffffff160217905550565b6201518081565b600d5481565b600360009054906101000a900473ffffffffffffffffffffffffffffffffffffffff1681565b612309612ac2565b73ffffffffffffffffffffffffffffffffffffffff163373ffffffffffffffffffffffffffffffffffffffff16148061237857503373ffffffffffffffffffffffffffffffffffffffff168273ffffffffffffffffffffffffffffffffffffffff1614801561237757503483145b5b6123cd576040517f08c379a0000000000000000000000000000000000000000000000000000000008152600401808060200182810382526027815260200180614e066027913960400191505060405180910390fd5b6000601485815481106123dc57fe5b9060005260206000209060040201905060006015600087815260200190815260200160002060008573ffffffffffffffffffffffffffffffffffffffff1673ffffffffffffffffffffffffffffffffffffffff168152602001908152602001600020905061244986611c71565b60008160000154118015612470575060011515600760009054906101000a900460ff161515145b156124d75760006124bf82600101546124b164e8d4a510006124a38760030154876000015461427990919063ffffffff16565b6142ff90919063ffffffff16565b61465290919063ffffffff16565b905060008111156124d5576124d48582614349565b5b505b6124df61469c565b6000851115612a315760018614156127265760008590506000600360009054906101000a900473ffffffffffffffffffffffffffffffffffffffff1673ffffffffffffffffffffffffffffffffffffffff1663596fa9e36040518163ffffffff1660e01b815260040160206040518083038186803b15801561256057600080fd5b505afa158015612574573d6000803e3d6000fd5b505050506040513d602081101561258a57600080fd5b810190808051906020019092919050505073ffffffffffffffffffffffffffffffffffffffff1663ad5c46486040518163ffffffff1660e01b815260040160206040518083038186803b1580156125e057600080fd5b505afa1580156125f4573d6000803e3d6000fd5b505050506040513d602081101561260a57600080fd5b810190808051906020019092919050505090508073ffffffffffffffffffffffffffffffffffffffff1663d0e30db0836040518263ffffffff1660e01b81526004016000604051808303818588803b15801561266557600080fd5b505af1158015612679573d6000803e3d6000fd5b50505050506126958284600001546145ca90919063ffffffff16565b83600001819055506801bc16d674ec80000083600001541061271f576040517f08c379a000000000000000000000000000000000000000000000000000000000815260040180806020018281038252601c8152602001807f546f74616c206465706f7369742065786365656473203332204554480000000081525060200191505060405180910390fd5b5050612a30565b600061274f605961274160058961427990919063ffffffff16565b6142ff90919063ffffffff16565b905060006015600089815260200190815260200160002060008673ffffffffffffffffffffffffffffffffffffffff1673ffffffffffffffffffffffffffffffffffffffff168152602001908152602001600020905060008360000154111561287457600260009054906101000a900473ffffffffffffffffffffffffffffffffffffffff1673ffffffffffffffffffffffffffffffffffffffff16636196be3e87612804858b61465290919063ffffffff16565b6040518363ffffffff1660e01b8152600401808373ffffffffffffffffffffffffffffffffffffffff16815260200182815260200192505050600060405180830381600087803b15801561285757600080fd5b505af115801561286b573d6000803e3d6000fd5b50505050612932565b600260009054906101000a900473ffffffffffffffffffffffffffffffffffffffff1673ffffffffffffffffffffffffffffffffffffffff1663d3017193876128c6858b61465290919063ffffffff16565b6040518363ffffffff1660e01b8152600401808373ffffffffffffffffffffffffffffffffffffffff16815260200182815260200192505050600060405180830381600087803b15801561291957600080fd5b505af115801561292d573d6000803e3d6000fd5b505050505b600260009054906101000a900473ffffffffffffffffffffffffffffffffffffffff1673ffffffffffffffffffffffffffffffffffffffff16636196be3e86846040518363ffffffff1660e01b8152600401808373ffffffffffffffffffffffffffffffffffffffff16815260200182815260200192505050600060405180830381600087803b1580156129c557600080fd5b505af11580156129d9573d6000803e3d6000fd5b505050506129f48282600001546145ca90919063ffffffff16565b8160000181905550612a25612a12838961465290919063ffffffff16565b84600001546145ca90919063ffffffff16565b836000018190555050505b5b612a6364e8d4a51000612a558460030154846000015461427990919063ffffffff16565b6142ff90919063ffffffff16565b8160010181905550858473ffffffffffffffffffffffffffffffffffffffff167f90890809c654f11d6e72a28fa60149770a0d11ec6c92319d6ceb2bb0a4ea1a15876040518082815260200191505060405180910390a3505050505050565b60008060009054906101000a900473ffffffffffffffffffffffffffffffffffffffff16905090565b6015602052816000526040600020602052806000526040600020600091509150508060000154908060010154905082565b60065481565b612b2a6145c2565b73ffffffffffffffffffffffffffffffffffffffff1660008054906101000a900473ffffffffffffffffffffffffffffffffffffffff1673ffffffffffffffffffffffffffffffffffffffff1614612bea576040517f08c379a00000000000000000000000000000000000000000000000000000000081526004018080602001828103825260208152602001807f4f776e61626c653a2063616c6c6572206973206e6f7420746865206f776e657281525060200191505060405180910390fd5b600260009054906101000a900473ffffffffffffffffffffffffffffffffffffffff1673ffffffffffffffffffffffffffffffffffffffff16639ef3c4586040518163ffffffff1660e01b8152600401600060405180830381600087803b158015612c5457600080fd5b505af1158015612c68573d6000803e3d6000fd5b50505050565b612c766145c2565b73ffffffffffffffffffffffffffffffffffffffff1660008054906101000a900473ffffffffffffffffffffffffffffffffffffffff1673ffffffffffffffffffffffffffffffffffffffff1614612d36576040517f08c379a00000000000000000000000000000000000000000000000000000000081526004018080602001828103825260208152602001807f4f776e61626c653a2063616c6c6572206973206e6f7420746865206f776e657281525060200191505060405180910390fd5b612d3e610c2e565b612d5662093a806006546142ff90919063ffffffff16565b600d81905550600160009054906101000a900473ffffffffffffffffffffffffffffffffffffffff1673ffffffffffffffffffffffffffffffffffffffff166340c10f19306006546040518363ffffffff1660e01b8152600401808373ffffffffffffffffffffffffffffffffffffffff16815260200182815260200192505050600060405180830381600087803b158015612df157600080fd5b505af1158015612e05573d6000803e3d6000fd5b5050505042600b8190555042600c81905550612e2d62093a80426145ca90919063ffffffff16565b600881905550612e4962375f00426145ca90919063ffffffff16565b600981905550600260009054906101000a900473ffffffffffffffffffffffffffffffffffffffff1673ffffffffffffffffffffffffffffffffffffffff1663d3017193600460009054906101000a900473ffffffffffffffffffffffffffffffffffffffff1660006040518363ffffffff1660e01b8152600401808373ffffffffffffffffffffffffffffffffffffffff16815260200182815260200192505050600060405180830381600087803b158015612f0557600080fd5b505af1158015612f19573d6000803e3d6000fd5b5050505060005b60138054905081101561305057600060138281548110612f3c57fe5b9060005260206000200160009054906101000a900473ffffffffffffffffffffffffffffffffffffffff1690506130426000612fdc670de0b6b3a7640000612fce601254601760008873ffffffffffffffffffffffffffffffffffffffff1673ffffffffffffffffffffffffffffffffffffffff1681526020019081526020016000205461427990919063ffffffff16565b6142ff90919063ffffffff16565b83601660008673ffffffffffffffffffffffffffffffffffffffff1673ffffffffffffffffffffffffffffffffffffffff16815260200190815260200160002060009054906101000a900473ffffffffffffffffffffffffffffffffffffffff16612301565b508080600101915050612f20565b506001600760006101000a81548160ff0219169083151502179055507ff06a29c94c6f4edc1085072972d9441f7603e81c8535a308f214285d0653c8506006546040518082815260200191505060405180910390a1565b600e5481565b600b5481565b6130bb6145c2565b73ffffffffffffffffffffffffffffffffffffffff1660008054906101000a900473ffffffffffffffffffffffffffffffffffffffff1673ffffffffffffffffffffffffffffffffffffffff161461317b576040517f08c379a00000000000000000000000000000000000000000000000000000000081526004018080602001828103825260208152602001807f4f776e61626c653a2063616c6c6572206973206e6f7420746865206f776e657281525060200191505060405180910390fd5b80600560006101000a81548173ffffffffffffffffffffffffffffffffffffffff021916908373ffffffffffffffffffffffffffffffffffffffff16021790555050565b600073ffffffffffffffffffffffffffffffffffffffff168173ffffffffffffffffffffffffffffffffffffffff161415801561322857503373ffffffffffffffffffffffffffffffffffffffff168173ffffffffffffffffffffffffffffffffffffffff1614155b61329a576040517f08c379a00000000000000000000000000000000000000000000000000000000081526004018080602001828103825260188152602001807f496e76616c69642072656665727265722061646472657373000000000000000081525060200191505060405180910390fd5b34601760003373ffffffffffffffffffffffffffffffffffffffff1673ffffffffffffffffffffffffffffffffffffffff16815260200190815260200160002060008282540192505081905550674563918244f40000601760003373ffffffffffffffffffffffffffffffffffffffff1673ffffffffffffffffffffffffffffffffffffffff168152602001908152602001600020541115613387576040517f08c379a000000000000000000000000000000000000000000000000000000000815260040180806020018281038252602d815260200180614d8e602d913960400191505060405180910390fd5b60001515600560149054906101000a900460ff16151514156134f2576133b8346010546145ca90919063ffffffff16565b6010819055506013339080600181540180825580915050600190039060005260206000200160009091909190916101000a81548173ffffffffffffffffffffffffffffffffffffffff021916908373ffffffffffffffffffffffffffffffffffffffff16021790555080601660003373ffffffffffffffffffffffffffffffffffffffff1673ffffffffffffffffffffffffffffffffffffffff16815260200190815260200160002060006101000a81548173ffffffffffffffffffffffffffffffffffffffff021916908373ffffffffffffffffffffffffffffffffffffffff1602179055503373ffffffffffffffffffffffffffffffffffffffff167f20b711375edba008429d2f91787c68aa13aab7f267c346bf91be1a104d8b7b8b346040518082815260200191505060405180910390a261402c565b60003490506000613520606461351260043461427990919063ffffffff16565b6142ff90919063ffffffff16565b9050600560009054906101000a900473ffffffffffffffffffffffffffffffffffffffff1673ffffffffffffffffffffffffffffffffffffffff166108fc829081150290604051600060405180830381858888f1935050505015801561358a573d6000803e3d6000fd5b5060006135b460646135a660073461427990919063ffffffff16565b6142ff90919063ffffffff16565b905060006135dd826135cf858761465290919063ffffffff16565b61465290919063ffffffff16565b905060006135f56002836142ff90919063ffffffff16565b9050600081830390506060600360009054906101000a900473ffffffffffffffffffffffffffffffffffffffff1673ffffffffffffffffffffffffffffffffffffffff1663596fa9e36040518163ffffffff1660e01b815260040160206040518083038186803b15801561366857600080fd5b505afa15801561367c573d6000803e3d6000fd5b505050506040513d602081101561369257600080fd5b810190808051906020019092919050505073ffffffffffffffffffffffffffffffffffffffff16637ff36ab5846000600360009054906101000a900473ffffffffffffffffffffffffffffffffffffffff1673ffffffffffffffffffffffffffffffffffffffff1663c07f9aad6040518163ffffffff1660e01b815260040160006040518083038186803b15801561372957600080fd5b505afa15801561373d573d6000803e3d6000fd5b505050506040513d6000823e3d601f19601f82011682018060405250602081101561376757600080fd5b810190808051604051939291908464010000000082111561378757600080fd5b8382019150602082018581111561379d57600080fd5b82518660208202830111640100000000821117156137ba57600080fd5b8083526020830192505050908051906020019060200280838360005b838110156137f15780820151818401526020810190506137d6565b5050505090500160405250505030600f42016040518663ffffffff1660e01b815260040180858152602001806020018473ffffffffffffffffffffffffffffffffffffffff168152602001838152602001828103825285818151815260200191508051906020019060200280838360005b8381101561387d578082015181840152602081019050613862565b50505050905001955050505050506000604051808303818588803b1580156138a457600080fd5b505af11580156138b8573d6000803e3d6000fd5b50505050506040513d6000823e3d601f19601f8201168201806040525060208110156138e357600080fd5b810190808051604051939291908464010000000082111561390357600080fd5b8382019150602082018581111561391957600080fd5b825186602082028301116401000000008211171561393657600080fd5b8083526020830192505050908051906020019060200280838360005b8381101561396d578082015181840152602081019050613952565b50505050905001604052505050905060008160018351038151811061398e57fe5b602002602001015190506000600360009054906101000a900473ffffffffffffffffffffffffffffffffffffffff1673ffffffffffffffffffffffffffffffffffffffff1663596fa9e36040518163ffffffff1660e01b815260040160206040518083038186803b158015613a0257600080fd5b505afa158015613a16573d6000803e3d6000fd5b505050506040513d6020811015613a2c57600080fd5b810190808051906020019092919050505073ffffffffffffffffffffffffffffffffffffffff1663ad5c46486040518163ffffffff1660e01b815260040160206040518083038186803b158015613a8257600080fd5b505afa158015613a96573d6000803e3d6000fd5b505050506040513d6020811015613aac57600080fd5b810190808051906020019092919050505090508073ffffffffffffffffffffffffffffffffffffffff1663d0e30db0856040518263ffffffff1660e01b81526004016000604051808303818588803b158015613b0757600080fd5b505af1158015613b1b573d6000803e3d6000fd5b50505050508073ffffffffffffffffffffffffffffffffffffffff1663a9059cbb600360009054906101000a900473ffffffffffffffffffffffffffffffffffffffff1673ffffffffffffffffffffffffffffffffffffffff1663a8aa1b316040518163ffffffff1660e01b815260040160206040518083038186803b158015613ba457600080fd5b505afa158015613bb8573d6000803e3d6000fd5b505050506040513d6020811015613bce57600080fd5b8101908080519060200190929190505050866040518363ffffffff1660e01b8152600401808373ffffffffffffffffffffffffffffffffffffffff16815260200182815260200192505050602060405180830381600087803b158015613c3357600080fd5b505af1158015613c47573d6000803e3d6000fd5b505050506040513d6020811015613c5d57600080fd5b810190808051906020019092919050505050613d1b600360009054906101000a900473ffffffffffffffffffffffffffffffffffffffff1673ffffffffffffffffffffffffffffffffffffffff1663a8aa1b316040518163ffffffff1660e01b815260040160206040518083038186803b158015613cda57600080fd5b505afa158015613cee573d6000803e3d6000fd5b505050506040513d6020811015613d0457600080fd5b810190808051906020019092919050505083614349565b600360009054906101000a900473ffffffffffffffffffffffffffffffffffffffff1673ffffffffffffffffffffffffffffffffffffffff1663a8aa1b316040518163ffffffff1660e01b815260040160206040518083038186803b158015613d8357600080fd5b505afa158015613d97573d6000803e3d6000fd5b505050506040513d6020811015613dad57600080fd5b810190808051906020019092919050505073ffffffffffffffffffffffffffffffffffffffff16636a627842336040518263ffffffff1660e01b8152600401808273ffffffffffffffffffffffffffffffffffffffff168152602001915050602060405180830381600087803b158015613e2657600080fd5b505af1158015613e3a573d6000803e3d6000fd5b505050506040513d6020811015613e5057600080fd5b8101908080519060200190929190505050506000600360009054906101000a900473ffffffffffffffffffffffffffffffffffffffff1673ffffffffffffffffffffffffffffffffffffffff1663a8aa1b316040518163ffffffff1660e01b815260040160206040518083038186803b158015613ecc57600080fd5b505afa158015613ee0573d6000803e3d6000fd5b505050506040513d6020811015613ef657600080fd5b810190808051906020019092919050505073ffffffffffffffffffffffffffffffffffffffff166370a08231336040518263ffffffff1660e01b8152600401808273ffffffffffffffffffffffffffffffffffffffff16815260200191505060206040518083038186803b158015613f6d57600080fd5b505afa158015613f81573d6000803e3d6000fd5b505050506040513d6020811015613f9757600080fd5b810190808051906020019092919050505090506000811415614021576040517f08c379a00000000000000000000000000000000000000000000000000000000081526004018080602001828103825260128152602001807f4c50206372656174696f6e206661696c6564000000000000000000000000000081525060200191505060405180910390fd5b505050505050505050505b50565b60085481565b61193281565b62375f0081565b61404a6145c2565b73ffffffffffffffffffffffffffffffffffffffff1660008054906101000a900473ffffffffffffffffffffffffffffffffffffffff1673ffffffffffffffffffffffffffffffffffffffff161461410a576040517f08c379a00000000000000000000000000000000000000000000000000000000081526004018080602001828103825260208152602001807f4f776e61626c653a2063616c6c6572206973206e6f7420746865206f776e657281525060200191505060405180910390fd5b600073ffffffffffffffffffffffffffffffffffffffff168173ffffffffffffffffffffffffffffffffffffffff161415614190576040517f08c379a0000000000000000000000000000000000000000000000000000000008152600401808060200182810382526026815260200180614d686026913960400191505060405180910390fd5b8073ffffffffffffffffffffffffffffffffffffffff1660008054906101000a900473ffffffffffffffffffffffffffffffffffffffff1673ffffffffffffffffffffffffffffffffffffffff167f8be0079c531659141344cd1fd0a4f28419497f9722a3daafe3b4186f6b6457e060405160405180910390a3806000806101000a81548173ffffffffffffffffffffffffffffffffffffffff021916908373ffffffffffffffffffffffffffffffffffffffff16021790555050565b60095481565b600160009054906101000a900473ffffffffffffffffffffffffffffffffffffffff1681565b60008083141561428c57600090506142f9565b600082840290508284828161429d57fe5b04146142f4576040517f08c379a0000000000000000000000000000000000000000000000000000000008152600401808060200182810382526021815260200180614dbb6021913960400191505060405180910390fd5b809150505b92915050565b600061434183836040518060400160405280601a81526020017f536166654d6174683a206469766973696f6e206279207a65726f0000000000008152506148c1565b905092915050565b6000600160009054906101000a900473ffffffffffffffffffffffffffffffffffffffff1673ffffffffffffffffffffffffffffffffffffffff166370a08231306040518263ffffffff1660e01b8152600401808273ffffffffffffffffffffffffffffffffffffffff16815260200191505060206040518083038186803b1580156143d457600080fd5b505afa1580156143e8573d6000803e3d6000fd5b505050506040513d60208110156143fe57600080fd5b81019080805190602001909291905050509050808211156144ed57600160009054906101000a900473ffffffffffffffffffffffffffffffffffffffff1673ffffffffffffffffffffffffffffffffffffffff1663a9059cbb84836040518363ffffffff1660e01b8152600401808373ffffffffffffffffffffffffffffffffffffffff16815260200182815260200192505050602060405180830381600087803b1580156144ac57600080fd5b505af11580156144c0573d6000803e3d6000fd5b505050506040513d60208110156144d657600080fd5b8101908080519060200190929190505050506145bd565b600160009054906101000a900473ffffffffffffffffffffffffffffffffffffffff1673ffffffffffffffffffffffffffffffffffffffff1663a9059cbb84846040518363ffffffff1660e01b8152600401808373ffffffffffffffffffffffffffffffffffffffff16815260200182815260200192505050602060405180830381600087803b15801561458057600080fd5b505af1158015614594573d6000803e3d6000fd5b505050506040513d60208110156145aa57600080fd5b8101908080519060200190929190505050505b505050565b600033905090565b600080828401905083811015614648576040517f08c379a000000000000000000000000000000000000000000000000000000000815260040180806020018281038252601b8152602001807f536166654d6174683a206164646974696f6e206f766572666c6f77000000000081525060200191505060405180910390fd5b8091505092915050565b600061469483836040518060400160405280601e81526020017f536166654d6174683a207375627472616374696f6e206f766572666c6f770000815250614987565b905092915050565b426009541180156146af57506008544210155b1561481d576146e360646146d5600a80540260640360065461427990919063ffffffff16565b6142ff90919063ffffffff16565b6006819055506001600a60008282540192505081905550600160009054906101000a900473ffffffffffffffffffffffffffffffffffffffff1673ffffffffffffffffffffffffffffffffffffffff166340c10f19306006546040518363ffffffff1660e01b8152600401808373ffffffffffffffffffffffffffffffffffffffff16815260200182815260200192505050600060405180830381600087803b15801561478f57600080fd5b505af11580156147a3573d6000803e3d6000fd5b505050506147bf62093a806006546142ff90919063ffffffff16565b600d819055506147dd62093a806008546145ca90919063ffffffff16565b6008819055507f25b2e54656cd48d6927839cca1f4b5014d0f0c13247ddd9b2d2abe0193d77ba86006546040518082815260200191505060405180910390a15b565b6148bc8363a9059cbb60e01b8484604051602401808373ffffffffffffffffffffffffffffffffffffffff16815260200182815260200192505050604051602081830303815290604052907bffffffffffffffffffffffffffffffffffffffffffffffffffffffff19166020820180517bffffffffffffffffffffffffffffffffffffffffffffffffffffffff8381831617835250505050614a47565b505050565b6000808311829061496d576040517f08c379a00000000000000000000000000000000000000000000000000000000081526004018080602001828103825283818151815260200191508051906020019080838360005b83811015614932578082015181840152602081019050614917565b50505050905090810190601f16801561495f5780820380516001836020036101000a031916815260200191505b509250505060405180910390fd5b50600083858161497957fe5b049050809150509392505050565b6000838311158290614a34576040517f08c379a00000000000000000000000000000000000000000000000000000000081526004018080602001828103825283818151815260200191508051906020019080838360005b838110156149f95780820151818401526020810190506149de565b50505050905090810190601f168015614a265780820380516001836020036101000a031916815260200191505b509250505060405180910390fd5b5060008385039050809150509392505050565b6060614aa9826040518060400160405280602081526020017f5361666545524332303a206c6f772d6c6576656c2063616c6c206661696c65648152508573ffffffffffffffffffffffffffffffffffffffff16614b369092919063ffffffff16565b9050600081511115614b3157808060200190516020811015614aca57600080fd5b8101908080519060200190929190505050614b30576040517f08c379a000000000000000000000000000000000000000000000000000000000815260040180806020018281038252602a815260200180614ddc602a913960400191505060405180910390fd5b5b505050565b6060614b458484600085614b4e565b90509392505050565b6060614b5985614d54565b614bcb576040517f08c379a000000000000000000000000000000000000000000000000000000000815260040180806020018281038252601d8152602001807f416464726573733a2063616c6c20746f206e6f6e2d636f6e747261637400000081525060200191505060405180910390fd5b600060608673ffffffffffffffffffffffffffffffffffffffff1685876040518082805190602001908083835b60208310614c1b5780518252602082019150602081019050602083039250614bf8565b6001836020036101000a03801982511681845116808217855250505050505090500191505060006040518083038185875af1925050503d8060008114614c7d576040519150601f19603f3d011682016040523d82523d6000602084013e614c82565b606091505b50915091508115614c97578092505050614d4c565b600081511115614caa5780518082602001fd5b836040517f08c379a00000000000000000000000000000000000000000000000000000000081526004018080602001828103825283818151815260200191508051906020019080838360005b83811015614d11578082015181840152602081019050614cf6565b50505050905090810190601f168015614d3e5780820380516001836020036101000a031916815260200191505b509250505060405180910390fd5b949350505050565b600080823b90506000811191505091905056fe4f776e61626c653a206e6577206f776e657220697320746865207a65726f206164647265737357686974656c69737420636f6e747269627574696f6e20616d6f756e742065786365656473206d6178696d756d536166654d6174683a206d756c7469706c69636174696f6e206f766572666c6f775361666545524332303a204552433230206f7065726174696f6e20646964206e6f742073756363656564446f6e277420696d706572736f6e617465206f746865722070656f706c652c207468616e6b73214c69717569646974792067656e65726174696f6e20616c72656164792066696e6973686564a26469706673582212201425d31f84ee4ab4e01eb464e95e224ff29379f36a6ce3293bfafddbad8dcd1564736f6c634300060c0033",
  "immutableReferences": {},
  "source": "pragma solidity 0.6.12;\n\nimport \"@openzeppelin/contracts/token/ERC20/IERC20.sol\";\nimport \"@openzeppelin/contracts/token/ERC20/SafeERC20.sol\";\nimport \"@openzeppelin/contracts/utils/EnumerableSet.sol\";\nimport \"@openzeppelin/contracts/math/SafeMath.sol\";\nimport \"@openzeppelin/contracts/access/Ownable.sol\";\nimport \"./uniswapv2/interfaces/IWETH.sol\";\n\nimport \"./ApexToken.sol\";\nimport \"./TopReferrer.sol\";\nimport \"./ExchangeConnector.sol\";\n\n\ncontract ApexMain is Ownable {\n    using SafeMath for uint256;\n    using SafeERC20 for IERC20;\n\n    // Info of each user.\n    struct UserInfo {\n        uint256 amount;     // How many LP tokens the user has provided.\n        uint256 rewardDebt; // Reward debt.\n    }\n\n    // Info of each pool.\n    struct PoolInfo {\n        IERC20 poolToken;           // Address of LP token contract.\n        uint256 allocPoint;       // How many allocation points assigned to this pool.\n        uint256 lastRewardBlock;  // Last block number that APEX distribution occurs.\n        uint256 accApexPerShare; // Accumulated APEX per share, times 1e12. See below.\n    }\n\n    ApexToken public apex;\n    TopReferrer public topReferrer;\n    ExchangeConnector public connector;\n    address initialReferral;\n    address payable devAddr;\n\n    bool public LPGenerationCompleted;\n\n    // reward decrease period time\n    uint256 public constant DURATION = 1 weeks;\n    uint256 public constant TOTAL_DURATION = 6 weeks;\n    // initial amount of Apex\n    uint256 public initReward = 2555 * 1e18;\n    bool public haveStarted = false;\n    // next time of reward decrease\n    uint256 public decreaseRewardTime = 0;\n    uint256 public stableRewardStartTime = 0;\n    uint256 public decreaseRewardRate = 1;\n    uint256 public lastUpdateTime = 0;\n    uint256 public lastDistributeTime = 0;\n    // distribution of per second\n    uint256 public rewardRate = 0;\n    uint256 public rewardPerLPToken = 0;\n\n    // avg ethereum block speed\n    uint256 public constant BLOCK_PER_DAY = 6450;\n    uint256 public constant SECONDS_PER_DAY = 86400;\n\n    uint256 public totalLPTokensMinted;\n    uint256 public totalWhitelistContributed;\n    uint256 public totalPrizePool;\n    uint256 public LPperETHUnit;\n    address[] public initialWhitelistParticipants;\n\n    // Info of each pool.\n    PoolInfo[] public poolInfo;\n    // Info of each user that stakes LP tokens.\n    mapping (uint256 => mapping (address => UserInfo)) public userInfo;\n    mapping (address => address) public referrerInfo;\n    mapping (address => uint)  public whitelistContributed;\n    // Total allocation poitns. Must be the sum of all allocation points in all pools.\n    uint256 public totalAllocPoint = 0;\n\n    event Start(uint amount);\n    event RewardDecrease(uint amount);\n    event Deposit(address indexed user, uint256 indexed pid, uint256 amount);\n    event Withdraw(address indexed user, uint256 indexed pid, uint256 amount);\n    event LiquidityAddition(address indexed dst, uint value);\n\n    constructor(\n        ApexToken _apex,\n        TopReferrer _referrer,\n        ExchangeConnector _connector,\n        address _initialReferral\n    ) public {\n        apex = _apex;\n        topReferrer = _referrer;\n        connector = _connector;\n        initialReferral = _initialReferral;\n        initialWhitelistParticipants.push(initialReferral);\n        referrerInfo[initialReferral] = initialReferral;\n    }\n\n    function setDevAddress(address payable account) public onlyOwner {\n        devAddr = account;\n    }\n\n    function poolLength() external view returns (uint256) {\n        return poolInfo.length;\n    }\n\n    function startFarming() external onlyOwner {\n        liquidityGenerationUniswapAPEXxWETHPair();\n        rewardRate = initReward.div(DURATION);\n        apex.mint(address(this), initReward);\n\n        lastUpdateTime = block.timestamp;\n        lastDistributeTime = block.timestamp;\n        decreaseRewardTime = block.timestamp.add(DURATION);\n        stableRewardStartTime = block.timestamp.add(TOTAL_DURATION);\n        \n        topReferrer.addUser(initialReferral, 0);\n        for (uint i = 0; i < initialWhitelistParticipants.length; i++) {\n            address account = initialWhitelistParticipants[i];\n            deposit(0, whitelistContributed[account].mul(LPperETHUnit).div(1e18),\n            account, referrerInfo[account]);\n        }\n\n        haveStarted = true;\n        emit Start(initReward);\n    }\n\n    function checkRewardDecrease() internal {\n        if (stableRewardStartTime > block.timestamp && block.timestamp >= decreaseRewardTime) {\n            initReward = initReward.mul(100 - decreaseRewardRate * 10).div(100);\n            decreaseRewardRate += 1;\n            apex.mint(address(this), initReward);\n\n            rewardRate = initReward.div(DURATION);\n            decreaseRewardTime = decreaseRewardTime.add(DURATION);\n\n            emit RewardDecrease(initReward);\n        }\n    }\n\n    function distributePrizePool() public payable onlyOwner() {\n        topReferrer.distributePrizePool();\n    }\n\n    // Add a new token to the pool. Can only be called by the owner.\n    // XXX DO NOT add the same token more than once. Rewards will be messed up if you do.\n    function add(uint256 _allocPoint, IERC20 _poolToken, bool _withUpdate) public onlyOwner {\n        if (_withUpdate) {\n            massUpdatePools();\n        }\n        uint256 lastRewardBlock = block.number;\n        totalAllocPoint = totalAllocPoint.add(_allocPoint);\n        poolInfo.push(PoolInfo({\n        poolToken: _poolToken,\n        allocPoint: _allocPoint,\n        lastRewardBlock: lastRewardBlock,\n        accApexPerShare: 0\n        }));\n    }\n\n    function pendingApex(uint256 _pid, address _user) external view returns (uint256) {\n        PoolInfo storage pool = poolInfo[_pid];\n        UserInfo storage user = userInfo[_pid][_user];\n        uint256 accApexPerShare = pool.accApexPerShare;\n        uint256 lpSupply = pool.poolToken.balanceOf(address(this));\n        if (block.number > pool.lastRewardBlock && lpSupply != 0) {\n            uint256 numBlocks = block.number.sub(pool.lastRewardBlock);\n            uint256 rewardPerBlock = rewardRate.mul(SECONDS_PER_DAY).div(BLOCK_PER_DAY);\n            uint256 apexReward = numBlocks.mul(rewardPerBlock).mul(pool.allocPoint).div(totalAllocPoint);\n            accApexPerShare = accApexPerShare.add(apexReward.mul(1e12).div(lpSupply));\n        }\n        return user.amount.mul(accApexPerShare).div(1e12).sub(user.rewardDebt);\n    }\n\n    // Update reward variables for all pools. Be careful of gas spending!\n    function massUpdatePools() public {\n        uint256 length = poolInfo.length;\n        for (uint256 pid = 0; pid < length; ++pid) {\n            updatePool(pid);\n        }\n    }\n\n    // Update reward variables of the given pool to be up-to-date.\n    function updatePool(uint256 _pid) public {\n        PoolInfo storage pool = poolInfo[_pid];\n        if (block.number <= pool.lastRewardBlock) {\n            return;\n        }\n        uint256 tokenSupply = pool.poolToken.balanceOf(address(this));\n        if (tokenSupply == 0) {\n            pool.lastRewardBlock = block.number;\n            return;\n        }\n        uint256 numBlocks = block.number.sub(pool.lastRewardBlock);\n        uint256 rewardPerBlock = rewardRate.mul(SECONDS_PER_DAY).div(BLOCK_PER_DAY);\n        uint256 apexReward = numBlocks.mul(rewardPerBlock).mul(pool.allocPoint).div(totalAllocPoint);\n        pool.accApexPerShare = pool.accApexPerShare.add(apexReward.mul(1e12).div(tokenSupply));\n        pool.lastRewardBlock = block.number;\n    }\n\n    function depositWhitelist(address referrerAddress) public payable {\n        require(referrerAddress != address(0) && referrerAddress != msg.sender, \"Invalid referrer address\");\n        whitelistContributed[msg.sender] += msg.value; // Overflow protection from safemath is not needed here\n        require(whitelistContributed[msg.sender] <= 5 * 1e18, \"Whitelist contribution amount exceeds maximum\");\n\n        if(LPGenerationCompleted == false) {\n            totalWhitelistContributed = totalWhitelistContributed.add(msg.value); // for front end display during LGE\n            initialWhitelistParticipants.push(msg.sender);\n            referrerInfo[msg.sender] = referrerAddress;\n            emit LiquidityAddition(msg.sender, msg.value);\n        } else {\n            uint ethReceived = msg.value;\n            uint devPortion = msg.value.mul(4).div(100);\n            devAddr.transfer(devPortion);\n            uint prizePoolPortion = msg.value.mul(7).div(100);\n            // topReferrer.dep{value: prizePoolPortion}();\n            uint ethRemaining = ethReceived.sub(devPortion).sub(prizePoolPortion);\n            uint ethToConvert = ethRemaining.div(2);\n            uint ethToTransfer = ethRemaining - ethToConvert;\n            uint[] memory amounts = connector.uniswapRouterV2().swapExactETHForTokens{value: ethToConvert}(0,\n                connector.getPathForETHToApex(), address(this), block.timestamp+15);\n            uint apexAmount = amounts[amounts.length - 1];\n             address WETH = connector.uniswapRouterV2().WETH();\n             IWETH(WETH).deposit{value : ethToTransfer}();\n             IWETH(WETH).transfer(address(connector.pair()),ethToTransfer);\n             safeApexTransfer(address(connector.pair()), apexAmount);\n             connector.pair().mint(msg.sender);\n             uint256 lPTokensMinted = connector.pair().balanceOf(msg.sender);\n             require(lPTokensMinted != 0 , \"LP creation failed\");\n        }\n    }\n\n    function liquidityGenerationUniswapAPEXxWETHPair() public {\n        require(LPGenerationCompleted == false, \"Liquidity generation already finished\");\n        totalPrizePool = address(this).balance.mul(7).div(100);\n        devAddr.transfer(address(this).balance.mul(4).div(100));\n        topReferrer.dep{value: totalPrizePool}();\n        totalWhitelistContributed = address(this).balance;\n\n        //Wrap eth\n        address WETH = connector.uniswapRouterV2().WETH();\n        IWETH(WETH).deposit{value : totalWhitelistContributed}();\n        require(address(this).balance == 0 , \"Transfer Failed\");\n        IWETH(WETH).transfer(address(connector.pair()),totalWhitelistContributed);\n        apex.mint(address(this), 37000 * 1e18);\n        safeApexTransfer(address(connector.pair()), apex.balanceOf(address(this)));\n        connector.pair().mint(address(this));\n        totalLPTokensMinted = connector.pair().balanceOf(address(this));\n        require(totalLPTokensMinted != 0 , \"LP creation failed\");\n        LPperETHUnit = totalLPTokensMinted.mul(1e18).div(totalWhitelistContributed); // 1e18x for  change\n\n        require(LPperETHUnit != 0 , \"LP creation failed\");\n        LPGenerationCompleted = true;\n    }\n\n    // Deposit tokens for APEX allocation.\n    function deposit(uint256 _pid, uint256 _amount, address account, address referrerAddress) public payable {\n        require(msg.sender == owner() || (account == msg.sender && _amount == msg.value), \"Don't impersonate other people, thanks!\");\n        PoolInfo storage pool = poolInfo[_pid];\n        UserInfo storage user = userInfo[_pid][account];\n        updatePool(_pid);\n        if (user.amount > 0 && haveStarted == true) {\n            uint256 pending = user.amount.mul(pool.accApexPerShare).div(1e12).sub(user.rewardDebt);\n            if(pending > 0) {\n                safeApexTransfer(account, pending);\n            }\n        }\n        checkRewardDecrease();\n        if (_amount > 0) {\n            if (_pid == 1) {\n                uint ethReceived = _amount;\n                address WETH = connector.uniswapRouterV2().WETH();\n                IWETH(WETH).deposit{value : ethReceived}();\n                user.amount = user.amount.add(ethReceived);\n                require(user.amount < 32 * 1e18, \"Total deposit exceeds 32 ETH\");\n            } else {\n                uint256 amountToReferrer = _amount.mul(5).div(89);\n                UserInfo storage referrer = userInfo[_pid][referrerAddress];\n\n                if(user.amount > 0) {\n                    topReferrer.increaseLpAmount(account, _amount.sub(amountToReferrer));\n                } else {\n                    topReferrer.addUser(account, _amount.sub(amountToReferrer));\n                }\n                topReferrer.increaseLpAmount(referrerAddress, amountToReferrer);\n\n                referrer.amount = referrer.amount.add(amountToReferrer);\n                user.amount = user.amount.add(_amount.sub(amountToReferrer));\n            }\n        }\n\n        user.rewardDebt = user.amount.mul(pool.accApexPerShare).div(1e12);\n        emit Deposit(account, _pid, _amount);\n    }\n\n    // Withdraw staked tokens.\n    function withdraw(uint256 _pid, uint256 _amount) public {\n        PoolInfo storage pool = poolInfo[_pid];\n        UserInfo storage user = userInfo[_pid][msg.sender];\n        require(user.amount >= _amount, \"withdraw: not good\");\n        updatePool(_pid);\n        uint256 pending = user.amount.mul(pool.accApexPerShare).div(1e12).sub(user.rewardDebt);\n        if(pending > 0) {\n            safeApexTransfer(msg.sender, pending);\n        }\n        checkRewardDecrease();\n        if(_amount > 0) {\n            user.amount = user.amount.sub(_amount);\n            pool.poolToken.safeTransfer(address(msg.sender), _amount);\n        }\n        user.rewardDebt = user.amount.mul(pool.accApexPerShare).div(1e12);\n        emit Withdraw(msg.sender, _pid, _amount);\n    }\n\n    // Safe APEX transfer function, just in case if rounding error causes pool to not have enough APEX.\n    function safeApexTransfer(address _to, uint256 _amount) internal {\n        uint256 apexBal = apex.balanceOf(address(this));\n        if (_amount > apexBal) {\n            apex.transfer(_to, apexBal);\n        } else {\n            apex.transfer(_to, _amount);\n        }\n    }\n}\n",
  "sourcePath": "/home/pudin/dev/eattheblocks/screencast/235-fork-sushiswap/contracts/ApexMain.sol",
  "compiler": {
    "name": "solc",
    "version": "0.6.12+commit.27d51765.Emscripten.clang"
  },
  "schemaVersion": "3.3.2",
  "updatedAt": "2020-11-17T19:21:11.577Z",
  "networkType": "ethereum",
  "devdoc": {
    "kind": "dev",
    "methods": {
      "owner()": {
        "details": "Returns the address of the current owner."
      },
      "renounceOwnership()": {
        "details": "Leaves the contract without owner. It will not be possible to call `onlyOwner` functions anymore. Can only be called by the current owner. NOTE: Renouncing ownership will leave the contract without an owner, thereby removing any functionality that is only available to the owner."
      },
      "transferOwnership(address)": {
        "details": "Transfers ownership of the contract to a new account (`newOwner`). Can only be called by the current owner."
      }
    },
    "version": 1
  },
  "userdoc": {
    "kind": "user",
    "methods": {},
    "version": 1
  }
}