{
  "contractName": "MasterChef",
  "abi": [
    {
      "inputs": [
        {
          "internalType": "contract ApexToken",
          "name": "_apex",
          "type": "address"
        }
      ],
      "stateMutability": "nonpayable",
      "type": "constructor"
    },
    {
      "anonymous": false,
      "inputs": [
        {
          "indexed": true,
          "internalType": "address",
          "name": "user",
          "type": "address"
        },
        {
          "indexed": true,
          "internalType": "uint256",
          "name": "pid",
          "type": "uint256"
        },
        {
          "indexed": false,
          "internalType": "uint256",
          "name": "amount",
          "type": "uint256"
        }
      ],
      "name": "Deposit",
      "type": "event"
    },
    {
      "anonymous": false,
      "inputs": [
        {
          "indexed": true,
          "internalType": "address",
          "name": "user",
          "type": "address"
        },
        {
          "indexed": true,
          "internalType": "uint256",
          "name": "pid",
          "type": "uint256"
        },
        {
          "indexed": false,
          "internalType": "uint256",
          "name": "amount",
          "type": "uint256"
        }
      ],
      "name": "EmergencyWithdraw",
      "type": "event"
    },
    {
      "anonymous": false,
      "inputs": [
        {
          "indexed": false,
          "internalType": "address",
          "name": "dst",
          "type": "address"
        },
        {
          "indexed": false,
          "internalType": "uint256",
          "name": "value",
          "type": "uint256"
        }
      ],
      "name": "LPTokenClaimed",
      "type": "event"
    },
    {
      "anonymous": false,
      "inputs": [
        {
          "indexed": true,
          "internalType": "address",
          "name": "dst",
          "type": "address"
        },
        {
          "indexed": false,
          "internalType": "uint256",
          "name": "value",
          "type": "uint256"
        }
      ],
      "name": "LiquidityAddition",
      "type": "event"
    },
    {
      "anonymous": false,
      "inputs": [
        {
          "indexed": true,
          "internalType": "address",
          "name": "previousOwner",
          "type": "address"
        },
        {
          "indexed": true,
          "internalType": "address",
          "name": "newOwner",
          "type": "address"
        }
      ],
      "name": "OwnershipTransferred",
      "type": "event"
    },
    {
      "anonymous": false,
      "inputs": [
        {
          "indexed": false,
          "internalType": "uint256",
          "name": "amount",
          "type": "uint256"
        }
      ],
      "name": "RewardDecrease",
      "type": "event"
    },
    {
      "anonymous": false,
      "inputs": [
        {
          "indexed": false,
          "internalType": "uint256",
          "name": "amount",
          "type": "uint256"
        }
      ],
      "name": "Start",
      "type": "event"
    },
    {
      "anonymous": false,
      "inputs": [
        {
          "indexed": true,
          "internalType": "address",
          "name": "from",
          "type": "address"
        },
        {
          "indexed": true,
          "internalType": "address",
          "name": "to",
          "type": "address"
        },
        {
          "indexed": false,
          "internalType": "uint256",
          "name": "value",
          "type": "uint256"
        }
      ],
      "name": "Transfer",
      "type": "event"
    },
    {
      "anonymous": false,
      "inputs": [
        {
          "indexed": true,
          "internalType": "address",
          "name": "user",
          "type": "address"
        },
        {
          "indexed": true,
          "internalType": "uint256",
          "name": "pid",
          "type": "uint256"
        },
        {
          "indexed": false,
          "internalType": "uint256",
          "name": "amount",
          "type": "uint256"
        }
      ],
      "name": "Withdraw",
      "type": "event"
    },
    {
      "inputs": [],
      "name": "BLOCK_PER_DAY",
      "outputs": [
        {
          "internalType": "uint256",
          "name": "",
          "type": "uint256"
        }
      ],
      "stateMutability": "view",
      "type": "function",
      "constant": true
    },
    {
      "inputs": [],
      "name": "DURATION",
      "outputs": [
        {
          "internalType": "uint256",
          "name": "",
          "type": "uint256"
        }
      ],
      "stateMutability": "view",
      "type": "function",
      "constant": true
    },
    {
      "inputs": [
        {
          "internalType": "address",
          "name": "",
          "type": "address"
        }
      ],
      "name": "LPGClaimed",
      "outputs": [
        {
          "internalType": "bool",
          "name": "",
          "type": "bool"
        }
      ],
      "stateMutability": "view",
      "type": "function",
      "constant": true
    },
    {
      "inputs": [],
      "name": "LPGenerationCompleted",
      "outputs": [
        {
          "internalType": "bool",
          "name": "",
          "type": "bool"
        }
      ],
      "stateMutability": "view",
      "type": "function",
      "constant": true
    },
    {
      "inputs": [],
      "name": "LPperETHUnit",
      "outputs": [
        {
          "internalType": "uint256",
          "name": "",
          "type": "uint256"
        }
      ],
      "stateMutability": "view",
      "type": "function",
      "constant": true
    },
    {
      "inputs": [],
      "name": "SECONDS_PER_DAY",
      "outputs": [
        {
          "internalType": "uint256",
          "name": "",
          "type": "uint256"
        }
      ],
      "stateMutability": "view",
      "type": "function",
      "constant": true
    },
    {
      "inputs": [],
      "name": "TOTAL_DURATION",
      "outputs": [
        {
          "internalType": "uint256",
          "name": "",
          "type": "uint256"
        }
      ],
      "stateMutability": "view",
      "type": "function",
      "constant": true
    },
    {
      "inputs": [],
      "name": "apex",
      "outputs": [
        {
          "internalType": "contract ApexToken",
          "name": "",
          "type": "address"
        }
      ],
      "stateMutability": "view",
      "type": "function",
      "constant": true
    },
    {
      "inputs": [],
      "name": "decreaseRewardRate",
      "outputs": [
        {
          "internalType": "uint256",
          "name": "",
          "type": "uint256"
        }
      ],
      "stateMutability": "view",
      "type": "function",
      "constant": true
    },
    {
      "inputs": [],
      "name": "decreaseRewardTime",
      "outputs": [
        {
          "internalType": "uint256",
          "name": "",
          "type": "uint256"
        }
      ],
      "stateMutability": "view",
      "type": "function",
      "constant": true
    },
    {
      "inputs": [],
      "name": "haveStarted",
      "outputs": [
        {
          "internalType": "bool",
          "name": "",
          "type": "bool"
        }
      ],
      "stateMutability": "view",
      "type": "function",
      "constant": true
    },
    {
      "inputs": [],
      "name": "initReward",
      "outputs": [
        {
          "internalType": "uint256",
          "name": "",
          "type": "uint256"
        }
      ],
      "stateMutability": "view",
      "type": "function",
      "constant": true
    },
    {
      "inputs": [],
      "name": "lastDistributeTime",
      "outputs": [
        {
          "internalType": "uint256",
          "name": "",
          "type": "uint256"
        }
      ],
      "stateMutability": "view",
      "type": "function",
      "constant": true
    },
    {
      "inputs": [],
      "name": "lastUpdateTime",
      "outputs": [
        {
          "internalType": "uint256",
          "name": "",
          "type": "uint256"
        }
      ],
      "stateMutability": "view",
      "type": "function",
      "constant": true
    },
    {
      "inputs": [],
      "name": "owner",
      "outputs": [
        {
          "internalType": "address",
          "name": "",
          "type": "address"
        }
      ],
      "stateMutability": "view",
      "type": "function",
      "constant": true
    },
    {
      "inputs": [
        {
          "internalType": "uint256",
          "name": "",
          "type": "uint256"
        }
      ],
      "name": "poolInfo",
      "outputs": [
        {
          "internalType": "contract IERC20",
          "name": "poolToken",
          "type": "address"
        },
        {
          "internalType": "uint256",
          "name": "allocPoint",
          "type": "uint256"
        },
        {
          "internalType": "uint256",
          "name": "lastRewardBlock",
          "type": "uint256"
        },
        {
          "internalType": "uint256",
          "name": "accApexPerShare",
          "type": "uint256"
        }
      ],
      "stateMutability": "view",
      "type": "function",
      "constant": true
    },
    {
      "inputs": [],
      "name": "renounceOwnership",
      "outputs": [],
      "stateMutability": "nonpayable",
      "type": "function"
    },
    {
      "inputs": [],
      "name": "rewardPerLPToken",
      "outputs": [
        {
          "internalType": "uint256",
          "name": "",
          "type": "uint256"
        }
      ],
      "stateMutability": "view",
      "type": "function",
      "constant": true
    },
    {
      "inputs": [],
      "name": "rewardRate",
      "outputs": [
        {
          "internalType": "uint256",
          "name": "",
          "type": "uint256"
        }
      ],
      "stateMutability": "view",
      "type": "function",
      "constant": true
    },
    {
      "inputs": [],
      "name": "stableRewardStartTime",
      "outputs": [
        {
          "internalType": "uint256",
          "name": "",
          "type": "uint256"
        }
      ],
      "stateMutability": "view",
      "type": "function",
      "constant": true
    },
    {
      "inputs": [],
      "name": "tokenUniswapPair",
      "outputs": [
        {
          "internalType": "address",
          "name": "",
          "type": "address"
        }
      ],
      "stateMutability": "view",
      "type": "function",
      "constant": true
    },
    {
      "inputs": [],
      "name": "totalAllocPoint",
      "outputs": [
        {
          "internalType": "uint256",
          "name": "",
          "type": "uint256"
        }
      ],
      "stateMutability": "view",
      "type": "function",
      "constant": true
    },
    {
      "inputs": [],
      "name": "totalLPTokensMinted",
      "outputs": [
        {
          "internalType": "uint256",
          "name": "",
          "type": "uint256"
        }
      ],
      "stateMutability": "view",
      "type": "function",
      "constant": true
    },
    {
      "inputs": [],
      "name": "totalWhitelistContributed",
      "outputs": [
        {
          "internalType": "uint256",
          "name": "",
          "type": "uint256"
        }
      ],
      "stateMutability": "view",
      "type": "function",
      "constant": true
    },
    {
      "inputs": [
        {
          "internalType": "address",
          "name": "newOwner",
          "type": "address"
        }
      ],
      "name": "transferOwnership",
      "outputs": [],
      "stateMutability": "nonpayable",
      "type": "function"
    },
    {
      "inputs": [],
      "name": "uniswapFactory",
      "outputs": [
        {
          "internalType": "contract IUniswapV2Factory",
          "name": "",
          "type": "address"
        }
      ],
      "stateMutability": "view",
      "type": "function",
      "constant": true
    },
    {
      "inputs": [],
      "name": "uniswapRouterV2",
      "outputs": [
        {
          "internalType": "contract IUniswapV2Router02",
          "name": "",
          "type": "address"
        }
      ],
      "stateMutability": "view",
      "type": "function",
      "constant": true
    },
    {
      "inputs": [
        {
          "internalType": "uint256",
          "name": "",
          "type": "uint256"
        },
        {
          "internalType": "address",
          "name": "",
          "type": "address"
        }
      ],
      "name": "userInfo",
      "outputs": [
        {
          "internalType": "uint256",
          "name": "amount",
          "type": "uint256"
        },
        {
          "internalType": "uint256",
          "name": "rewardDebt",
          "type": "uint256"
        }
      ],
      "stateMutability": "view",
      "type": "function",
      "constant": true
    },
    {
      "inputs": [
        {
          "internalType": "address",
          "name": "",
          "type": "address"
        }
      ],
      "name": "whitelistContributed",
      "outputs": [
        {
          "internalType": "uint256",
          "name": "",
          "type": "uint256"
        }
      ],
      "stateMutability": "view",
      "type": "function",
      "constant": true
    },
    {
      "inputs": [],
      "name": "createUniswapPairMainnet",
      "outputs": [
        {
          "internalType": "address",
          "name": "",
          "type": "address"
        }
      ],
      "stateMutability": "nonpayable",
      "type": "function"
    },
    {
      "inputs": [],
      "name": "poolLength",
      "outputs": [
        {
          "internalType": "uint256",
          "name": "",
          "type": "uint256"
        }
      ],
      "stateMutability": "view",
      "type": "function",
      "constant": true
    },
    {
      "inputs": [],
      "name": "startFarming",
      "outputs": [],
      "stateMutability": "nonpayable",
      "type": "function"
    },
    {
      "inputs": [
        {
          "internalType": "uint256",
          "name": "_allocPoint",
          "type": "uint256"
        },
        {
          "internalType": "contract IERC20",
          "name": "_poolToken",
          "type": "address"
        },
        {
          "internalType": "bool",
          "name": "_withUpdate",
          "type": "bool"
        }
      ],
      "name": "add",
      "outputs": [],
      "stateMutability": "nonpayable",
      "type": "function"
    },
    {
      "inputs": [
        {
          "internalType": "uint256",
          "name": "_pid",
          "type": "uint256"
        },
        {
          "internalType": "address",
          "name": "_user",
          "type": "address"
        }
      ],
      "name": "pendingApex",
      "outputs": [
        {
          "internalType": "uint256",
          "name": "",
          "type": "uint256"
        }
      ],
      "stateMutability": "view",
      "type": "function",
      "constant": true
    },
    {
      "inputs": [],
      "name": "massUpdatePools",
      "outputs": [],
      "stateMutability": "nonpayable",
      "type": "function"
    },
    {
      "inputs": [
        {
          "internalType": "uint256",
          "name": "_pid",
          "type": "uint256"
        }
      ],
      "name": "updatePool",
      "outputs": [],
      "stateMutability": "nonpayable",
      "type": "function"
    },
    {
      "inputs": [
        {
          "internalType": "address",
          "name": "referrerAddress",
          "type": "address"
        }
      ],
      "name": "depositWhitelist",
      "outputs": [],
      "stateMutability": "payable",
      "type": "function",
      "payable": true
    },
    {
      "inputs": [],
      "name": "liquidityGenerationUniswapENCORExWETHPair",
      "outputs": [],
      "stateMutability": "nonpayable",
      "type": "function"
    },
    {
      "inputs": [],
      "name": "claimLPTokens",
      "outputs": [],
      "stateMutability": "nonpayable",
      "type": "function"
    },
    {
      "inputs": [
        {
          "internalType": "uint256",
          "name": "_pid",
          "type": "uint256"
        },
        {
          "internalType": "uint256",
          "name": "_amount",
          "type": "uint256"
        }
      ],
      "name": "deposit",
      "outputs": [],
      "stateMutability": "nonpayable",
      "type": "function"
    },
    {
      "inputs": [
        {
          "internalType": "uint256",
          "name": "_pid",
          "type": "uint256"
        },
        {
          "internalType": "uint256",
          "name": "_amount",
          "type": "uint256"
        }
      ],
      "name": "withdraw",
      "outputs": [],
      "stateMutability": "nonpayable",
      "type": "function"
    },
    {
      "inputs": [
        {
          "internalType": "uint256",
          "name": "_pid",
          "type": "uint256"
        }
      ],
      "name": "emergencyWithdraw",
      "outputs": [],
      "stateMutability": "nonpayable",
      "type": "function"
    }
  ],
  "bytecode": "0x6080604052688a81bf7307a30c00006005556000600660006101000a81548160ff0219169083151502179055506000600755600060085560016009556000600a556000600b556000600c556000600d5560006015553480156200006157600080fd5b506040516200496638038062004966833981810160405260208110156200008757600080fd5b81019080805190602001909291905050506000620000aa620001a060201b60201c565b9050806000806101000a81548173ffffffffffffffffffffffffffffffffffffffff021916908373ffffffffffffffffffffffffffffffffffffffff1602179055508073ffffffffffffffffffffffffffffffffffffffff16600073ffffffffffffffffffffffffffffffffffffffff167f8be0079c531659141344cd1fd0a4f28419497f9722a3daafe3b4186f6b6457e060405160405180910390a35080600160006101000a81548173ffffffffffffffffffffffffffffffffffffffff021916908373ffffffffffffffffffffffffffffffffffffffff16021790555062000199620001a860201b60201c565b5062000541565b600033905090565b737a250d5630b4cf539739df2c5dacb4c659f2488d600260006101000a81548173ffffffffffffffffffffffffffffffffffffffff021916908373ffffffffffffffffffffffffffffffffffffffff160217905550735c69bee701ef814a2b6a3edd4b1652cb9cc5aa6f600360006101000a81548173ffffffffffffffffffffffffffffffffffffffff021916908373ffffffffffffffffffffffffffffffffffffffff160217905550620002626200026560201b60201c565b50565b60008073ffffffffffffffffffffffffffffffffffffffff16600460009054906101000a900473ffffffffffffffffffffffffffffffffffffffff1673ffffffffffffffffffffffffffffffffffffffff16146200032b576040517f08c379a000000000000000000000000000000000000000000000000000000000815260040180806020018281038252601b8152602001807f546f6b656e3a20706f6f6c20616c72656164792063726561746564000000000081525060200191505060405180910390fd5b600360009054906101000a900473ffffffffffffffffffffffffffffffffffffffff1673ffffffffffffffffffffffffffffffffffffffff1663c9c65396600260009054906101000a900473ffffffffffffffffffffffffffffffffffffffff1673ffffffffffffffffffffffffffffffffffffffff1663ad5c46486040518163ffffffff1660e01b815260040160206040518083038186803b158015620003d257600080fd5b505afa158015620003e7573d6000803e3d6000fd5b505050506040513d6020811015620003fe57600080fd5b8101908080519060200190929190505050600160009054906101000a900473ffffffffffffffffffffffffffffffffffffffff166040518363ffffffff1660e01b8152600401808373ffffffffffffffffffffffffffffffffffffffff1681526020018273ffffffffffffffffffffffffffffffffffffffff16815260200192505050602060405180830381600087803b1580156200049c57600080fd5b505af1158015620004b1573d6000803e3d6000fd5b505050506040513d6020811015620004c857600080fd5b8101908080519060200190929190505050600460006101000a81548173ffffffffffffffffffffffffffffffffffffffff021916908373ffffffffffffffffffffffffffffffffffffffff160217905550600460009054906101000a900473ffffffffffffffffffffffffffffffffffffffff16905090565b61441580620005516000396000f3fe6080604052600436106102505760003560e01c80636cc02ef511610139578063c6570d85116100b6578063d970e6741161007a578063d970e67414610a52578063e2bbb15814610a7d578063f2f3d09214610ac2578063f2fde38b14610aed578063f712d92214610b3e578063ff295c5d14610b6957610250565b8063c6570d8514610926578063c8f33c9114610951578063d13ba3131461097c578063d1bc1d73146109e3578063d546cbbb14610a2757610250565b80638bdb2afa116100fd5780638bdb2afa146107ec5780638da5cb5b1461082d57806393f1a40b1461086e5780639bfffad7146108e4578063afbcfea11461090f57610250565b80636cc02ef514610727578063715018a61461073e57806374f0314f1461075557806375b208bc146107805780637b0a47ee146107c157610250565b806335f50ade116101d25780634d332457116101965780634d332457146105a957806351eb05a6146105ea5780635312ea8e14610625578063596fa9e314610660578063630b5ba1146106a15780636bd6ee7c146106b857610250565b806335f50ade146104ca57806338af6632146104f75780633cee98a61461050e5780633cf6bcfe14610539578063441a3e701461056457610250565b80631be05289116102195780631be052891461037d5780631eaaa045146103a85780632af1af801461040f57806331a22a20146104745780633232ff7b1461049f57610250565b80622b132914610255578063081e3eda1461028057806314b8fecc146102ab5780631526fe27146102d857806317caf6f114610352575b600080fd5b34801561026157600080fd5b5061026a610baa565b6040518082815260200191505060405180910390f35b34801561028c57600080fd5b50610295610bb0565b6040518082815260200191505060405180910390f35b3480156102b757600080fd5b506102c0610bbd565b60405180821515815260200191505060405180910390f35b3480156102e457600080fd5b50610311600480360360208110156102fb57600080fd5b8101908080359060200190929190505050610bd0565b604051808573ffffffffffffffffffffffffffffffffffffffff16815260200184815260200183815260200182815260200194505050505060405180910390f35b34801561035e57600080fd5b50610367610c2d565b6040518082815260200191505060405180910390f35b34801561038957600080fd5b50610392610c33565b6040518082815260200191505060405180910390f35b3480156103b457600080fd5b5061040d600480360360608110156103cb57600080fd5b8101908080359060200190929190803573ffffffffffffffffffffffffffffffffffffffff169060200190929190803515159060200190929190505050610c3a565b005b34801561041b57600080fd5b5061045e6004803603602081101561043257600080fd5b81019080803573ffffffffffffffffffffffffffffffffffffffff169060200190929190505050610e01565b6040518082815260200191505060405180910390f35b34801561048057600080fd5b50610489610e19565b6040518082815260200191505060405180910390f35b3480156104ab57600080fd5b506104b4610e1f565b6040518082815260200191505060405180910390f35b3480156104d657600080fd5b506104df610e25565b60405180821515815260200191505060405180910390f35b34801561050357600080fd5b5061050c610e38565b005b34801561051a57600080fd5b50610523611224565b6040518082815260200191505060405180910390f35b34801561054557600080fd5b5061054e61122a565b6040518082815260200191505060405180910390f35b34801561057057600080fd5b506105a76004803603604081101561058757600080fd5b810190808035906020019092919080359060200190929190505050611230565b005b3480156105b557600080fd5b506105be611496565b604051808273ffffffffffffffffffffffffffffffffffffffff16815260200191505060405180910390f35b3480156105f657600080fd5b506106236004803603602081101561060d57600080fd5b81019080803590602001909291905050506114bc565b005b34801561063157600080fd5b5061065e6004803603602081101561064857600080fd5b81019080803590602001909291905050506116b5565b005b34801561066c57600080fd5b506106756117e7565b604051808273ffffffffffffffffffffffffffffffffffffffff16815260200191505060405180910390f35b3480156106ad57600080fd5b506106b661180d565b005b3480156106c457600080fd5b50610711600480360360408110156106db57600080fd5b8101908080359060200190929190803573ffffffffffffffffffffffffffffffffffffffff16906020019092919050505061183a565b6040518082815260200191505060405180910390f35b34801561073357600080fd5b5061073c611ab8565b005b34801561074a57600080fd5b5061075361220b565b005b34801561076157600080fd5b5061076a612391565b6040518082815260200191505060405180910390f35b34801561078c57600080fd5b50610795612398565b604051808273ffffffffffffffffffffffffffffffffffffffff16815260200191505060405180910390f35b3480156107cd57600080fd5b506107d661266d565b6040518082815260200191505060405180910390f35b3480156107f857600080fd5b50610801612673565b604051808273ffffffffffffffffffffffffffffffffffffffff16815260200191505060405180910390f35b34801561083957600080fd5b50610842612699565b604051808273ffffffffffffffffffffffffffffffffffffffff16815260200191505060405180910390f35b34801561087a57600080fd5b506108c76004803603604081101561089157600080fd5b8101908080359060200190929190803573ffffffffffffffffffffffffffffffffffffffff1690602001909291905050506126c2565b604051808381526020018281526020019250505060405180910390f35b3480156108f057600080fd5b506108f96126f3565b6040518082815260200191505060405180910390f35b34801561091b57600080fd5b506109246126f9565b005b34801561093257600080fd5b5061093b612928565b6040518082815260200191505060405180910390f35b34801561095d57600080fd5b5061096661292e565b6040518082815260200191505060405180910390f35b34801561098857600080fd5b506109cb6004803603602081101561099f57600080fd5b81019080803573ffffffffffffffffffffffffffffffffffffffff169060200190929190505050612934565b60405180821515815260200191505060405180910390f35b610a25600480360360208110156109f957600080fd5b81019080803573ffffffffffffffffffffffffffffffffffffffff169060200190929190505050612954565b005b348015610a3357600080fd5b50610a3c613112565b6040518082815260200191505060405180910390f35b348015610a5e57600080fd5b50610a67613118565b6040518082815260200191505060405180910390f35b348015610a8957600080fd5b50610ac060048036036040811015610aa057600080fd5b81019080803590602001909291908035906020019092919050505061311e565b005b348015610ace57600080fd5b50610ad7613386565b6040518082815260200191505060405180910390f35b348015610af957600080fd5b50610b3c60048036036020811015610b1057600080fd5b81019080803573ffffffffffffffffffffffffffffffffffffffff16906020019092919050505061338d565b005b348015610b4a57600080fd5b50610b53613598565b6040518082815260200191505060405180910390f35b348015610b7557600080fd5b50610b7e61359e565b604051808273ffffffffffffffffffffffffffffffffffffffff16815260200191505060405180910390f35b600e5481565b6000601180549050905090565b600460149054906101000a900460ff1681565b60118181548110610bdd57fe5b90600052602060002090600402016000915090508060000160009054906101000a900473ffffffffffffffffffffffffffffffffffffffff16908060010154908060020154908060030154905084565b60155481565b62093a8081565b610c426135c4565b73ffffffffffffffffffffffffffffffffffffffff1660008054906101000a900473ffffffffffffffffffffffffffffffffffffffff1673ffffffffffffffffffffffffffffffffffffffff1614610d02576040517f08c379a00000000000000000000000000000000000000000000000000000000081526004018080602001828103825260208152602001807f4f776e61626c653a2063616c6c6572206973206e6f7420746865206f776e657281525060200191505060405180910390fd5b8015610d1157610d1061180d565b5b6000439050610d2b846015546135cc90919063ffffffff16565b601581905550601160405180608001604052808573ffffffffffffffffffffffffffffffffffffffff1681526020018681526020018381526020016000815250908060018154018082558091505060019003906000526020600020906004020160009091909190915060008201518160000160006101000a81548173ffffffffffffffffffffffffffffffffffffffff021916908373ffffffffffffffffffffffffffffffffffffffff160217905550602082015181600101556040820151816002015560608201518160030155505050505050565b60136020528060005260406000206000915090505481565b60105481565b60095481565b600660009054906101000a900460ff1681565b600460149054906101000a900460ff16610eba576040517f08c379a00000000000000000000000000000000000000000000000000000000081526004018080602001828103825260128152602001807f4576656e74206e6f74206f76657220796574000000000000000000000000000081525060200191505060405180910390fd5b6000601360003373ffffffffffffffffffffffffffffffffffffffff1673ffffffffffffffffffffffffffffffffffffffff1681526020019081526020016000205411610f6f576040517f08c379a000000000000000000000000000000000000000000000000000000000815260040180806020018281038252601c8152602001807f4e6f7468696e6720746f20636c61696d2c206d6f766520616c6f6e670000000081525060200191505060405180910390fd5b60001515601460003373ffffffffffffffffffffffffffffffffffffffff1673ffffffffffffffffffffffffffffffffffffffff16815260200190815260200160002060009054906101000a900460ff16151514611035576040517f08c379a00000000000000000000000000000000000000000000000000000000081526004018080602001828103825260188152602001807f596f75206861766520616c726561647920636c61696d6564000000000000000081525060200191505060405180910390fd5b6000600460009054906101000a900473ffffffffffffffffffffffffffffffffffffffff16905060006110cc670de0b6b3a76400006110be601054601360003373ffffffffffffffffffffffffffffffffffffffff1673ffffffffffffffffffffffffffffffffffffffff1681526020019081526020016000205461365490919063ffffffff16565b6136da90919063ffffffff16565b90508173ffffffffffffffffffffffffffffffffffffffff1663a9059cbb33836040518363ffffffff1660e01b8152600401808373ffffffffffffffffffffffffffffffffffffffff16815260200182815260200192505050602060405180830381600087803b15801561113f57600080fd5b505af1158015611153573d6000803e3d6000fd5b505050506040513d602081101561116957600080fd5b81019080805190602001909291905050505060011515601460003373ffffffffffffffffffffffffffffffffffffffff1673ffffffffffffffffffffffffffffffffffffffff16815260200190815260200160002060009054906101000a905050507f586e28f4f60b4d906fc69694ea6d7fe5c5668730ce3286d7af8eca868f3c27603382604051808373ffffffffffffffffffffffffffffffffffffffff1681526020018281526020019250505060405180910390a15050565b600f5481565b600b5481565b60006011838154811061123f57fe5b9060005260206000209060040201905060006012600085815260200190815260200160002060003373ffffffffffffffffffffffffffffffffffffffff1673ffffffffffffffffffffffffffffffffffffffff1681526020019081526020016000209050828160000154101561131d576040517f08c379a00000000000000000000000000000000000000000000000000000000081526004018080602001828103825260128152602001807f77697468647261773a206e6f7420676f6f64000000000000000000000000000081525060200191505060405180910390fd5b611326846114bc565b6000611370826001015461136264e8d4a510006113548760030154876000015461365490919063ffffffff16565b6136da90919063ffffffff16565b61372490919063ffffffff16565b9050600081111561138657611385338261376e565b5b61138e6139e7565b6000841115611406576113ae84836000015461372490919063ffffffff16565b826000018190555061140533858560000160009054906101000a900473ffffffffffffffffffffffffffffffffffffffff1673ffffffffffffffffffffffffffffffffffffffff16613b6b9092919063ffffffff16565b5b61143864e8d4a5100061142a8560030154856000015461365490919063ffffffff16565b6136da90919063ffffffff16565b8260010181905550843373ffffffffffffffffffffffffffffffffffffffff167ff279e6a1f5e320cca91135676d9cb6e44ca8a08c0b88342bcdb1144f6511b568866040518082815260200191505060405180910390a35050505050565b600460009054906101000a900473ffffffffffffffffffffffffffffffffffffffff1681565b6000601182815481106114cb57fe5b90600052602060002090600402019050806002015443116114ec57506116b2565b60008160000160009054906101000a900473ffffffffffffffffffffffffffffffffffffffff1673ffffffffffffffffffffffffffffffffffffffff166370a08231306040518263ffffffff1660e01b8152600401808273ffffffffffffffffffffffffffffffffffffffff16815260200191505060206040518083038186803b15801561157957600080fd5b505afa15801561158d573d6000803e3d6000fd5b505050506040513d60208110156115a357600080fd5b8101908080519060200190929190505050905060008114156115cf5743826002018190555050506116b2565b60006115e883600201544361372490919063ffffffff16565b9050600061161861193261160a62015180600c5461365490919063ffffffff16565b6136da90919063ffffffff16565b9050600061165960155461164b876001015461163d868861365490919063ffffffff16565b61365490919063ffffffff16565b6136da90919063ffffffff16565b905061169b6116888561167a64e8d4a510008561365490919063ffffffff16565b6136da90919063ffffffff16565b86600301546135cc90919063ffffffff16565b856003018190555043856002018190555050505050505b50565b6000601182815481106116c457fe5b9060005260206000209060040201905060006012600084815260200190815260200160002060003373ffffffffffffffffffffffffffffffffffffffff1673ffffffffffffffffffffffffffffffffffffffff168152602001908152602001600020905061177b3382600001548460000160009054906101000a900473ffffffffffffffffffffffffffffffffffffffff1673ffffffffffffffffffffffffffffffffffffffff16613b6b9092919063ffffffff16565b823373ffffffffffffffffffffffffffffffffffffffff167fbb757047c2b5f3974fe26b7c10f732e7bce710b0952a71082702781e62ae059583600001546040518082815260200191505060405180910390a36000816000018190555060008160010181905550505050565b600260009054906101000a900473ffffffffffffffffffffffffffffffffffffffff1681565b6000601180549050905060005b818110156118365761182b816114bc565b80600101905061181a565b5050565b6000806011848154811061184a57fe5b9060005260206000209060040201905060006012600086815260200190815260200160002060008573ffffffffffffffffffffffffffffffffffffffff1673ffffffffffffffffffffffffffffffffffffffff168152602001908152602001600020905060008260030154905060008360000160009054906101000a900473ffffffffffffffffffffffffffffffffffffffff1673ffffffffffffffffffffffffffffffffffffffff166370a08231306040518263ffffffff1660e01b8152600401808273ffffffffffffffffffffffffffffffffffffffff16815260200191505060206040518083038186803b15801561194457600080fd5b505afa158015611958573d6000803e3d6000fd5b505050506040513d602081101561196e57600080fd5b81019080805190602001909291905050509050836002015443118015611995575060008114155b15611a685760006119b385600201544361372490919063ffffffff16565b905060006119e36119326119d562015180600c5461365490919063ffffffff16565b6136da90919063ffffffff16565b90506000611a24601554611a168960010154611a08868861365490919063ffffffff16565b61365490919063ffffffff16565b6136da90919063ffffffff16565b9050611a62611a5385611a4564e8d4a510008561365490919063ffffffff16565b6136da90919063ffffffff16565b866135cc90919063ffffffff16565b94505050505b611aac8360010154611a9e64e8d4a51000611a9086886000015461365490919063ffffffff16565b6136da90919063ffffffff16565b61372490919063ffffffff16565b94505050505092915050565b60001515600460149054906101000a900460ff16151514611b24576040517f08c379a00000000000000000000000000000000000000000000000000000000081526004018080602001828103825260258152602001806143bb6025913960400191505060405180910390fd5b47600f819055506000600460009054906101000a900473ffffffffffffffffffffffffffffffffffffffff1690506000600260009054906101000a900473ffffffffffffffffffffffffffffffffffffffff1673ffffffffffffffffffffffffffffffffffffffff1663ad5c46486040518163ffffffff1660e01b815260040160206040518083038186803b158015611bbc57600080fd5b505afa158015611bd0573d6000803e3d6000fd5b505050506040513d6020811015611be657600080fd5b810190808051906020019092919050505090508073ffffffffffffffffffffffffffffffffffffffff1663d0e30db0600f546040518263ffffffff1660e01b81526004016000604051808303818588803b158015611c4357600080fd5b505af1158015611c57573d6000803e3d6000fd5b505050505060004714611cd2576040517f08c379a000000000000000000000000000000000000000000000000000000000815260040180806020018281038252600f8152602001807f5472616e73666572204661696c6564000000000000000000000000000000000081525060200191505060405180910390fd5b8073ffffffffffffffffffffffffffffffffffffffff1663a9059cbb83600f546040518363ffffffff1660e01b8152600401808373ffffffffffffffffffffffffffffffffffffffff16815260200182815260200192505050602060405180830381600087803b158015611d4557600080fd5b505af1158015611d59573d6000803e3d6000fd5b505050506040513d6020811015611d6f57600080fd5b8101908080519060200190929190505050508173ffffffffffffffffffffffffffffffffffffffff163073ffffffffffffffffffffffffffffffffffffffff167fddf252ad1be2c89b69c2b068fc378daa952ba7f163c4a11628f55a4df523b3ef600160009054906101000a900473ffffffffffffffffffffffffffffffffffffffff1673ffffffffffffffffffffffffffffffffffffffff166370a08231306040518263ffffffff1660e01b8152600401808273ffffffffffffffffffffffffffffffffffffffff16815260200191505060206040518083038186803b158015611e5957600080fd5b505afa158015611e6d573d6000803e3d6000fd5b505050506040513d6020811015611e8357600080fd5b81019080805190602001909291905050506040518082815260200191505060405180910390a3611f7682600160009054906101000a900473ffffffffffffffffffffffffffffffffffffffff1673ffffffffffffffffffffffffffffffffffffffff166370a08231306040518263ffffffff1660e01b8152600401808273ffffffffffffffffffffffffffffffffffffffff16815260200191505060206040518083038186803b158015611f3657600080fd5b505afa158015611f4a573d6000803e3d6000fd5b505050506040513d6020811015611f6057600080fd5b810190808051906020019092919050505061376e565b8173ffffffffffffffffffffffffffffffffffffffff16636a627842306040518263ffffffff1660e01b8152600401808273ffffffffffffffffffffffffffffffffffffffff168152602001915050602060405180830381600087803b158015611fdf57600080fd5b505af1158015611ff3573d6000803e3d6000fd5b505050506040513d602081101561200957600080fd5b8101908080519060200190929190505050508173ffffffffffffffffffffffffffffffffffffffff166370a08231306040518263ffffffff1660e01b8152600401808273ffffffffffffffffffffffffffffffffffffffff16815260200191505060206040518083038186803b15801561208257600080fd5b505afa158015612096573d6000803e3d6000fd5b505050506040513d60208110156120ac57600080fd5b8101908080519060200190929190505050600e819055506000600e54141561213c576040517f08c379a00000000000000000000000000000000000000000000000000000000081526004018080602001828103825260128152602001807f4c50206372656174696f6e206661696c6564000000000000000000000000000081525060200191505060405180910390fd5b61216d600f5461215f670de0b6b3a7640000600e5461365490919063ffffffff16565b6136da90919063ffffffff16565b601081905550600060105414156121ec576040517f08c379a00000000000000000000000000000000000000000000000000000000081526004018080602001828103825260128152602001807f4c50206372656174696f6e206661696c6564000000000000000000000000000081525060200191505060405180910390fd5b6001600460146101000a81548160ff0219169083151502179055505050565b6122136135c4565b73ffffffffffffffffffffffffffffffffffffffff1660008054906101000a900473ffffffffffffffffffffffffffffffffffffffff1673ffffffffffffffffffffffffffffffffffffffff16146122d3576040517f08c379a00000000000000000000000000000000000000000000000000000000081526004018080602001828103825260208152602001807f4f776e61626c653a2063616c6c6572206973206e6f7420746865206f776e657281525060200191505060405180910390fd5b600073ffffffffffffffffffffffffffffffffffffffff1660008054906101000a900473ffffffffffffffffffffffffffffffffffffffff1673ffffffffffffffffffffffffffffffffffffffff167f8be0079c531659141344cd1fd0a4f28419497f9722a3daafe3b4186f6b6457e060405160405180910390a360008060006101000a81548173ffffffffffffffffffffffffffffffffffffffff021916908373ffffffffffffffffffffffffffffffffffffffff160217905550565b6201518081565b60008073ffffffffffffffffffffffffffffffffffffffff16600460009054906101000a900473ffffffffffffffffffffffffffffffffffffffff1673ffffffffffffffffffffffffffffffffffffffff161461245d576040517f08c379a000000000000000000000000000000000000000000000000000000000815260040180806020018281038252601b8152602001807f546f6b656e3a20706f6f6c20616c72656164792063726561746564000000000081525060200191505060405180910390fd5b600360009054906101000a900473ffffffffffffffffffffffffffffffffffffffff1673ffffffffffffffffffffffffffffffffffffffff1663c9c65396600260009054906101000a900473ffffffffffffffffffffffffffffffffffffffff1673ffffffffffffffffffffffffffffffffffffffff1663ad5c46486040518163ffffffff1660e01b815260040160206040518083038186803b15801561250357600080fd5b505afa158015612517573d6000803e3d6000fd5b505050506040513d602081101561252d57600080fd5b8101908080519060200190929190505050600160009054906101000a900473ffffffffffffffffffffffffffffffffffffffff166040518363ffffffff1660e01b8152600401808373ffffffffffffffffffffffffffffffffffffffff1681526020018273ffffffffffffffffffffffffffffffffffffffff16815260200192505050602060405180830381600087803b1580156125ca57600080fd5b505af11580156125de573d6000803e3d6000fd5b505050506040513d60208110156125f457600080fd5b8101908080519060200190929190505050600460006101000a81548173ffffffffffffffffffffffffffffffffffffffff021916908373ffffffffffffffffffffffffffffffffffffffff160217905550600460009054906101000a900473ffffffffffffffffffffffffffffffffffffffff16905090565b600c5481565b600360009054906101000a900473ffffffffffffffffffffffffffffffffffffffff1681565b60008060009054906101000a900473ffffffffffffffffffffffffffffffffffffffff16905090565b6012602052816000526040600020602052806000526040600020600091509150508060000154908060010154905082565b60055481565b6127016135c4565b73ffffffffffffffffffffffffffffffffffffffff1660008054906101000a900473ffffffffffffffffffffffffffffffffffffffff1673ffffffffffffffffffffffffffffffffffffffff16146127c1576040517f08c379a00000000000000000000000000000000000000000000000000000000081526004018080602001828103825260208152602001807f4f776e61626c653a2063616c6c6572206973206e6f7420746865206f776e657281525060200191505060405180910390fd5b6127d962093a806005546136da90919063ffffffff16565b600c81905550600160009054906101000a900473ffffffffffffffffffffffffffffffffffffffff1673ffffffffffffffffffffffffffffffffffffffff166340c10f19306005546040518363ffffffff1660e01b8152600401808373ffffffffffffffffffffffffffffffffffffffff16815260200182815260200192505050600060405180830381600087803b15801561287457600080fd5b505af1158015612888573d6000803e3d6000fd5b5050505042600a8190555042600b819055506128b062093a80426135cc90919063ffffffff16565b6007819055506128cc62375f00426135cc90919063ffffffff16565b6008819055506001600660006101000a81548160ff0219169083151502179055507ff06a29c94c6f4edc1085072972d9441f7603e81c8535a308f214285d0653c8506005546040518082815260200191505060405180910390a1565b600d5481565b600a5481565b60146020528060005260406000206000915054906101000a900460ff1681565b600073ffffffffffffffffffffffffffffffffffffffff168173ffffffffffffffffffffffffffffffffffffffff1614156129f7576040517f08c379a00000000000000000000000000000000000000000000000000000000081526004018080602001828103825260188152602001807f496e76616c69642072656665727265722061646472657373000000000000000081525060200191505060405180910390fd5b34600111158015612a09575060053411155b612a7b576040517f08c379a000000000000000000000000000000000000000000000000000000000815260040180806020018281038252601c8152602001807f436f6e74726962757465642076616c756520697320696e76616c69640000000081525060200191505060405180910390fd5b34601360003373ffffffffffffffffffffffffffffffffffffffff1673ffffffffffffffffffffffffffffffffffffffff168152602001908152602001600020600082825401925050819055506005601360003373ffffffffffffffffffffffffffffffffffffffff1673ffffffffffffffffffffffffffffffffffffffff168152602001908152602001600020541115612b61576040517f08c379a000000000000000000000000000000000000000000000000000000000815260040180806020018281038252602d815260200180614343602d913960400191505060405180910390fd5b60001515600460149054906101000a900460ff1615151415612bff57612b9234600f546135cc90919063ffffffff16565b600f819055503373ffffffffffffffffffffffffffffffffffffffff167f20b711375edba008429d2f91787c68aa13aab7f267c346bf91be1a104d8b7b8b346040518082815260200191505060405180910390a26103e8600f5410612bfa57612bf9611ab8565b5b61310f565b6000600460009054906101000a900473ffffffffffffffffffffffffffffffffffffffff16905060003490506000612c416002836136da90919063ffffffff16565b9050600081830390506060600260009054906101000a900473ffffffffffffffffffffffffffffffffffffffff1673ffffffffffffffffffffffffffffffffffffffff16637ff36ab5846000612c95613c0d565b30600f42016040518663ffffffff1660e01b815260040180858152602001806020018473ffffffffffffffffffffffffffffffffffffffff168152602001838152602001828103825285818151815260200191508051906020019060200280838360005b83811015612d14578082015181840152602081019050612cf9565b50505050905001955050505050506000604051808303818588803b158015612d3b57600080fd5b505af1158015612d4f573d6000803e3d6000fd5b50505050506040513d6000823e3d601f19601f820116820180604052506020811015612d7a57600080fd5b8101908080516040519392919084640100000000821115612d9a57600080fd5b83820191506020820185811115612db057600080fd5b8251866020820283011164010000000082111715612dcd57600080fd5b8083526020830192505050908051906020019060200280838360005b83811015612e04578082015181840152602081019050612de9565b505050509050016040525050509050600081600183510381518110612e2557fe5b602002602001015190506000600260009054906101000a900473ffffffffffffffffffffffffffffffffffffffff1673ffffffffffffffffffffffffffffffffffffffff1663ad5c46486040518163ffffffff1660e01b815260040160206040518083038186803b158015612e9957600080fd5b505afa158015612ead573d6000803e3d6000fd5b505050506040513d6020811015612ec357600080fd5b810190808051906020019092919050505090508073ffffffffffffffffffffffffffffffffffffffff1663d0e30db0856040518263ffffffff1660e01b81526004016000604051808303818588803b158015612f1e57600080fd5b505af1158015612f32573d6000803e3d6000fd5b5050505050612f41878361376e565b8673ffffffffffffffffffffffffffffffffffffffff16636a627842336040518263ffffffff1660e01b8152600401808273ffffffffffffffffffffffffffffffffffffffff168152602001915050602060405180830381600087803b158015612faa57600080fd5b505af1158015612fbe573d6000803e3d6000fd5b505050506040513d6020811015612fd457600080fd5b8101908080519060200190929190505050508673ffffffffffffffffffffffffffffffffffffffff166370a08231336040518263ffffffff1660e01b8152600401808273ffffffffffffffffffffffffffffffffffffffff16815260200191505060206040518083038186803b15801561304d57600080fd5b505afa158015613061573d6000803e3d6000fd5b505050506040513d602081101561307757600080fd5b8101908080519060200190929190505050600e819055506000600e541415613107576040517f08c379a00000000000000000000000000000000000000000000000000000000081526004018080602001828103825260128152602001807f4c50206372656174696f6e206661696c6564000000000000000000000000000081525060200191505060405180910390fd5b505050505050505b50565b60075481565b61193281565b60008111613194576040517f08c379a000000000000000000000000000000000000000000000000000000000815260040180806020018281038252601a8152602001807f4465706f73697420616d6f756e7420697320696e76616c69642100000000000081525060200191505060405180910390fd5b6000601183815481106131a357fe5b9060005260206000209060040201905060006012600085815260200190815260200160002060003373ffffffffffffffffffffffffffffffffffffffff1673ffffffffffffffffffffffffffffffffffffffff1681526020019081526020016000209050613210846114bc565b60008160000154111561327f576000613267826001015461325964e8d4a5100061324b8760030154876000015461365490919063ffffffff16565b6136da90919063ffffffff16565b61372490919063ffffffff16565b9050600081111561327d5761327c338261376e565b5b505b6132876139e7565b6132d83330858560000160009054906101000a900473ffffffffffffffffffffffffffffffffffffffff1673ffffffffffffffffffffffffffffffffffffffff16613db5909392919063ffffffff16565b6132ef8382600001546135cc90919063ffffffff16565b816000018190555061332964e8d4a5100061331b8460030154846000015461365490919063ffffffff16565b6136da90919063ffffffff16565b8160010181905550833373ffffffffffffffffffffffffffffffffffffffff167f90890809c654f11d6e72a28fa60149770a0d11ec6c92319d6ceb2bb0a4ea1a15856040518082815260200191505060405180910390a350505050565b62375f0081565b6133956135c4565b73ffffffffffffffffffffffffffffffffffffffff1660008054906101000a900473ffffffffffffffffffffffffffffffffffffffff1673ffffffffffffffffffffffffffffffffffffffff1614613455576040517f08c379a00000000000000000000000000000000000000000000000000000000081526004018080602001828103825260208152602001807f4f776e61626c653a2063616c6c6572206973206e6f7420746865206f776e657281525060200191505060405180910390fd5b600073ffffffffffffffffffffffffffffffffffffffff168173ffffffffffffffffffffffffffffffffffffffff1614156134db576040517f08c379a000000000000000000000000000000000000000000000000000000000815260040180806020018281038252602681526020018061431d6026913960400191505060405180910390fd5b8073ffffffffffffffffffffffffffffffffffffffff1660008054906101000a900473ffffffffffffffffffffffffffffffffffffffff1673ffffffffffffffffffffffffffffffffffffffff167f8be0079c531659141344cd1fd0a4f28419497f9722a3daafe3b4186f6b6457e060405160405180910390a3806000806101000a81548173ffffffffffffffffffffffffffffffffffffffff021916908373ffffffffffffffffffffffffffffffffffffffff16021790555050565b60085481565b600160009054906101000a900473ffffffffffffffffffffffffffffffffffffffff1681565b600033905090565b60008082840190508381101561364a576040517f08c379a000000000000000000000000000000000000000000000000000000000815260040180806020018281038252601b8152602001807f536166654d6174683a206164646974696f6e206f766572666c6f77000000000081525060200191505060405180910390fd5b8091505092915050565b60008083141561366757600090506136d4565b600082840290508284828161367857fe5b04146136cf576040517f08c379a00000000000000000000000000000000000000000000000000000000081526004018080602001828103825260218152602001806143706021913960400191505060405180910390fd5b809150505b92915050565b600061371c83836040518060400160405280601a81526020017f536166654d6174683a206469766973696f6e206279207a65726f000000000000815250613e76565b905092915050565b600061376683836040518060400160405280601e81526020017f536166654d6174683a207375627472616374696f6e206f766572666c6f770000815250613f3c565b905092915050565b6000600160009054906101000a900473ffffffffffffffffffffffffffffffffffffffff1673ffffffffffffffffffffffffffffffffffffffff166370a08231306040518263ffffffff1660e01b8152600401808273ffffffffffffffffffffffffffffffffffffffff16815260200191505060206040518083038186803b1580156137f957600080fd5b505afa15801561380d573d6000803e3d6000fd5b505050506040513d602081101561382357600080fd5b810190808051906020019092919050505090508082111561391257600160009054906101000a900473ffffffffffffffffffffffffffffffffffffffff1673ffffffffffffffffffffffffffffffffffffffff1663a9059cbb84836040518363ffffffff1660e01b8152600401808373ffffffffffffffffffffffffffffffffffffffff16815260200182815260200192505050602060405180830381600087803b1580156138d157600080fd5b505af11580156138e5573d6000803e3d6000fd5b505050506040513d60208110156138fb57600080fd5b8101908080519060200190929190505050506139e2565b600160009054906101000a900473ffffffffffffffffffffffffffffffffffffffff1673ffffffffffffffffffffffffffffffffffffffff1663a9059cbb84846040518363ffffffff1660e01b8152600401808373ffffffffffffffffffffffffffffffffffffffff16815260200182815260200192505050602060405180830381600087803b1580156139a557600080fd5b505af11580156139b9573d6000803e3d6000fd5b505050506040513d60208110156139cf57600080fd5b8101908080519060200190929190505050505b505050565b426008541180156139fa57506007544210155b15613b6957613a2f6064613a21600a6009540260640360055461365490919063ffffffff16565b6136da90919063ffffffff16565b6005819055506001600960008282540192505081905550600160009054906101000a900473ffffffffffffffffffffffffffffffffffffffff1673ffffffffffffffffffffffffffffffffffffffff166340c10f19306005546040518363ffffffff1660e01b8152600401808373ffffffffffffffffffffffffffffffffffffffff16815260200182815260200192505050600060405180830381600087803b158015613adb57600080fd5b505af1158015613aef573d6000803e3d6000fd5b50505050613b0b62093a806005546136da90919063ffffffff16565b600c81905550613b2962093a806007546135cc90919063ffffffff16565b6007819055507f25b2e54656cd48d6927839cca1f4b5014d0f0c13247ddd9b2d2abe0193d77ba86005546040518082815260200191505060405180910390a15b565b613c088363a9059cbb60e01b8484604051602401808373ffffffffffffffffffffffffffffffffffffffff16815260200182815260200192505050604051602081830303815290604052907bffffffffffffffffffffffffffffffffffffffffffffffffffffffff19166020820180517bffffffffffffffffffffffffffffffffffffffffffffffffffffffff8381831617835250505050613ffc565b505050565b606080600267ffffffffffffffff81118015613c2857600080fd5b50604051908082528060200260200182016040528015613c575781602001602082028036833780820191505090505b509050600260009054906101000a900473ffffffffffffffffffffffffffffffffffffffff1673ffffffffffffffffffffffffffffffffffffffff1663ad5c46486040518163ffffffff1660e01b815260040160206040518083038186803b158015613cc257600080fd5b505afa158015613cd6573d6000803e3d6000fd5b505050506040513d6020811015613cec57600080fd5b810190808051906020019092919050505081600081518110613d0a57fe5b602002602001019073ffffffffffffffffffffffffffffffffffffffff16908173ffffffffffffffffffffffffffffffffffffffff1681525050600160009054906101000a900473ffffffffffffffffffffffffffffffffffffffff1681600181518110613d7457fe5b602002602001019073ffffffffffffffffffffffffffffffffffffffff16908173ffffffffffffffffffffffffffffffffffffffff16815250508091505090565b613e70846323b872dd60e01b858585604051602401808473ffffffffffffffffffffffffffffffffffffffff1681526020018373ffffffffffffffffffffffffffffffffffffffff1681526020018281526020019350505050604051602081830303815290604052907bffffffffffffffffffffffffffffffffffffffffffffffffffffffff19166020820180517bffffffffffffffffffffffffffffffffffffffffffffffffffffffff8381831617835250505050613ffc565b50505050565b60008083118290613f22576040517f08c379a00000000000000000000000000000000000000000000000000000000081526004018080602001828103825283818151815260200191508051906020019080838360005b83811015613ee7578082015181840152602081019050613ecc565b50505050905090810190601f168015613f145780820380516001836020036101000a031916815260200191505b509250505060405180910390fd5b506000838581613f2e57fe5b049050809150509392505050565b6000838311158290613fe9576040517f08c379a00000000000000000000000000000000000000000000000000000000081526004018080602001828103825283818151815260200191508051906020019080838360005b83811015613fae578082015181840152602081019050613f93565b50505050905090810190601f168015613fdb5780820380516001836020036101000a031916815260200191505b509250505060405180910390fd5b5060008385039050809150509392505050565b606061405e826040518060400160405280602081526020017f5361666545524332303a206c6f772d6c6576656c2063616c6c206661696c65648152508573ffffffffffffffffffffffffffffffffffffffff166140eb9092919063ffffffff16565b90506000815111156140e65780806020019051602081101561407f57600080fd5b81019080805190602001909291905050506140e5576040517f08c379a000000000000000000000000000000000000000000000000000000000815260040180806020018281038252602a815260200180614391602a913960400191505060405180910390fd5b5b505050565b60606140fa8484600085614103565b90509392505050565b606061410e85614309565b614180576040517f08c379a000000000000000000000000000000000000000000000000000000000815260040180806020018281038252601d8152602001807f416464726573733a2063616c6c20746f206e6f6e2d636f6e747261637400000081525060200191505060405180910390fd5b600060608673ffffffffffffffffffffffffffffffffffffffff1685876040518082805190602001908083835b602083106141d057805182526020820191506020810190506020830392506141ad565b6001836020036101000a03801982511681845116808217855250505050505090500191505060006040518083038185875af1925050503d8060008114614232576040519150601f19603f3d011682016040523d82523d6000602084013e614237565b606091505b5091509150811561424c578092505050614301565b60008151111561425f5780518082602001fd5b836040517f08c379a00000000000000000000000000000000000000000000000000000000081526004018080602001828103825283818151815260200191508051906020019080838360005b838110156142c65780820151818401526020810190506142ab565b50505050905090810190601f1680156142f35780820380516001836020036101000a031916815260200191505b509250505060405180910390fd5b949350505050565b600080823b90506000811191505091905056fe4f776e61626c653a206e6577206f776e657220697320746865207a65726f206164647265737357686974656c69737420636f6e747269627574696f6e20616d6f756e742065786365656473206d6178696d756d536166654d6174683a206d756c7469706c69636174696f6e206f766572666c6f775361666545524332303a204552433230206f7065726174696f6e20646964206e6f7420737563636565644c69717569646974792067656e65726174696f6e20616c72656164792066696e6973686564a2646970667358221220714151eb28d1a089d600b4779dbf5293d0c982c716ce7f5bed3c9d4f3c521b5164736f6c634300060c0033",
  "immutableReferences": {},
  "source": "pragma solidity 0.6.12;\n\n\nimport \"@openzeppelin/contracts/token/ERC20/IERC20.sol\";\nimport \"@openzeppelin/contracts/token/ERC20/SafeERC20.sol\";\nimport \"@openzeppelin/contracts/utils/EnumerableSet.sol\";\nimport \"@openzeppelin/contracts/math/SafeMath.sol\";\nimport \"@openzeppelin/contracts/access/Ownable.sol\";\nimport \"./uniswapv2/interfaces/IWETH.sol\";\nimport \"./uniswapv2/interfaces/IUniswapV2Factory.sol\"; // interface factorys\nimport \"./uniswapv2/interfaces/IUniswapV2Router02.sol\"; // interface factorys\n\nimport \"./ApexToken.sol\";\nimport \"./uniswapv2/interfaces/IUniswapV2Pair.sol\";\n\n\ncontract MasterChef is Ownable {\n    using SafeMath for uint256;\n    using SafeERC20 for IERC20;\n\n    // Info of each user.\n    struct UserInfo {\n        uint256 amount;     // How many LP tokens the user has provided.\n        uint256 rewardDebt; // Reward debt. See explanation below.\n        //\n        // We do some fancy math here. Basically, any point in time, the amount of SUSHIs\n        // entitled to a user but is pending to be distributed is:\n        //\n        //   pending reward = (user.amount * pool.accSushiPerShare) - user.rewardDebt\n        //\n        // Whenever a user deposits or withdraws LP tokens to a pool. Here's what happens:\n        //   1. The pool's `accSushiPerShare` (and `lastRewardBlock`) gets updated.\n        //   2. User receives the pending reward sent to his/her address.\n        //   3. User's `amount` gets updated.\n        //   4. User's `rewardDebt` gets updated.\n    }\n\n    // Info of each pool.\n    struct PoolInfo {\n        IERC20 poolToken;           // Address of LP token contract.\n        uint256 allocPoint;       // How many allocation points assigned to this pool.\n        uint256 lastRewardBlock;  // Last block number that APEX distribution occurs.\n        uint256 accApexPerShare; // Accumulated APEX per share, times 1e12. See below.\n    }\n\n    ApexToken public apex;\n\n    IUniswapV2Router02 public uniswapRouterV2;\n    IUniswapV2Factory public uniswapFactory;\n\n    address public tokenUniswapPair;\n\n    bool public LPGenerationCompleted;\n\n    // reward decrease period time\n    uint256 public constant DURATION = 1 weeks;\n    uint256 public constant TOTAL_DURATION = 6 weeks;\n    // initial amount of doki\n    uint256 public initReward = 2555 * 1e18;\n    bool public haveStarted = false;\n    // next time of reward decrease\n    uint256 public decreaseRewardTime = 0;\n    uint256 public stableRewardStartTime = 0;\n    uint256 public decreaseRewardRate = 1;\n    uint256 public lastUpdateTime = 0;\n    uint256 public lastDistributeTime = 0;\n    // distribution of per second\n    uint256 public rewardRate = 0;\n    uint256 public rewardPerLPToken = 0;\n\n    // avg ethereum block per second\n    uint256 public constant BLOCK_PER_DAY = 6450;\n    uint256 public constant SECONDS_PER_DAY = 86400;\n\n    uint256 public totalLPTokensMinted;\n    uint256 public totalWhitelistContributed;\n    uint256 public LPperETHUnit;\n\n    // Info of each pool.\n    PoolInfo[] public poolInfo;\n    // Info of each user that stakes LP tokens.\n    mapping (uint256 => mapping (address => UserInfo)) public userInfo;\n    mapping (address => uint)  public whitelistContributed;\n    mapping (address => bool) public LPGClaimed;\n    // Total allocation poitns. Must be the sum of all allocation points in all pools.\n    uint256 public totalAllocPoint = 0;\n\n    event Start(uint amount);\n    event RewardDecrease(uint amount);\n    event Deposit(address indexed user, uint256 indexed pid, uint256 amount);\n    event Withdraw(address indexed user, uint256 indexed pid, uint256 amount);\n    event EmergencyWithdraw(address indexed user, uint256 indexed pid, uint256 amount);\n    event Transfer(address indexed from, address indexed to, uint256 value);\n    event LiquidityAddition(address indexed dst, uint value);\n    event LPTokenClaimed(address dst, uint value);\n\n    constructor(\n        ApexToken _apex\n    ) public {\n        apex = _apex;\n        initialSetup();\n    }\n\n    function initialSetup() internal {\n        uniswapRouterV2 = IUniswapV2Router02(0x7a250d5630B4cF539739dF2C5dAcb4c659F2488D); // For testing\n        uniswapFactory = IUniswapV2Factory(0x5C69bEe701ef814a2B6a3EDD4B1652CB9cc5aA6f); // For testing\n        createUniswapPairMainnet();\n    }\n\n    function createUniswapPairMainnet() public returns (address) {\n        require(tokenUniswapPair == address(0), \"Token: pool already created\");\n        tokenUniswapPair = uniswapFactory.createPair(\n            address(uniswapRouterV2.WETH()),\n            address(apex)\n        );\n        return tokenUniswapPair;\n    }\n\n    function poolLength() external view returns (uint256) {\n        return poolInfo.length;\n    }\n\n    function startFarming() external onlyOwner {\n        rewardRate = initReward.div(DURATION);\n        apex.mint(address(this), initReward);\n\n        lastUpdateTime = block.timestamp;\n        lastDistributeTime = block.timestamp;\n        decreaseRewardTime = block.timestamp.add(DURATION);\n        stableRewardStartTime = block.timestamp.add(TOTAL_DURATION);\n\n        haveStarted = true;\n        emit Start(initReward);\n    }\n\n    function checkRewardDecrease() internal {\n        if (stableRewardStartTime > block.timestamp && block.timestamp >= decreaseRewardTime) {\n            initReward = initReward.mul(100 - decreaseRewardRate * 10).div(100);\n            decreaseRewardRate += 1;\n            apex.mint(address(this), initReward);\n\n            rewardRate = initReward.div(DURATION);\n            decreaseRewardTime = decreaseRewardTime.add(DURATION);\n\n            emit RewardDecrease(initReward);\n        }\n    }\n\n    // Add a new token to the pool. Can only be called by the owner.\n    // XXX DO NOT add the same token more than once. Rewards will be messed up if you do.\n    function add(uint256 _allocPoint, IERC20 _poolToken, bool _withUpdate) public onlyOwner {\n        if (_withUpdate) {\n            massUpdatePools();\n        }\n        uint256 lastRewardBlock = block.number;\n        totalAllocPoint = totalAllocPoint.add(_allocPoint);\n        poolInfo.push(PoolInfo({\n        poolToken: _poolToken,\n        allocPoint: _allocPoint,\n        lastRewardBlock: lastRewardBlock,\n        accApexPerShare: 0\n        }));\n    }\n\n\n    function pendingApex(uint256 _pid, address _user) external view returns (uint256) {\n        PoolInfo storage pool = poolInfo[_pid];\n        UserInfo storage user = userInfo[_pid][_user];\n        uint256 accApexPerShare = pool.accApexPerShare;\n        uint256 lpSupply = pool.poolToken.balanceOf(address(this));\n        if (block.number > pool.lastRewardBlock && lpSupply != 0) {\n            uint256 numBlocks = block.number.sub(pool.lastRewardBlock);\n            uint256 rewardPerBlock = rewardRate.mul(SECONDS_PER_DAY).div(BLOCK_PER_DAY);\n            uint256 apexReward = numBlocks.mul(rewardPerBlock).mul(pool.allocPoint).div(totalAllocPoint);\n            accApexPerShare = accApexPerShare.add(apexReward.mul(1e12).div(lpSupply));\n        }\n        return user.amount.mul(accApexPerShare).div(1e12).sub(user.rewardDebt);\n    }\n\n    // Update reward variables for all pools. Be careful of gas spending!\n    function massUpdatePools() public {\n        uint256 length = poolInfo.length;\n        for (uint256 pid = 0; pid < length; ++pid) {\n            updatePool(pid);\n        }\n    }\n\n    // Update reward variables of the given pool to be up-to-date.\n    function updatePool(uint256 _pid) public {\n        PoolInfo storage pool = poolInfo[_pid];\n        if (block.number <= pool.lastRewardBlock) {\n            return;\n        }\n        uint256 tokenSupply = pool.poolToken.balanceOf(address(this));\n        if (tokenSupply == 0) {\n            pool.lastRewardBlock = block.number;\n            return;\n        }\n        uint256 numBlocks = block.number.sub(pool.lastRewardBlock);\n        uint256 rewardPerBlock = rewardRate.mul(SECONDS_PER_DAY).div(BLOCK_PER_DAY);\n        uint256 apexReward = numBlocks.mul(rewardPerBlock).mul(pool.allocPoint).div(totalAllocPoint);\n        pool.accApexPerShare = pool.accApexPerShare.add(apexReward.mul(1e12).div(tokenSupply));\n        pool.lastRewardBlock = block.number;\n    }\n\n\n    function depositWhitelist(address referrerAddress) public payable {\n        require(referrerAddress != address(0), \"Invalid referrer address\");\n        require(1<= msg.value && msg.value <= 5, \"Contributed value is invalid\");\n        whitelistContributed[msg.sender] += msg.value; // Overflow protection from safemath is not needed here\n        require(whitelistContributed[msg.sender] <= 5, \"Whitelist contribution amount exceeds maximum\");\n\n        if(LPGenerationCompleted == false) {\n            totalWhitelistContributed = totalWhitelistContributed.add(msg.value); // for front end display during LGE\n            emit LiquidityAddition(msg.sender, msg.value);\n            if (totalWhitelistContributed >= 1000) {\n                liquidityGenerationUniswapENCORExWETHPair();\n            }\n        } else {\n            IUniswapV2Pair pair = IUniswapV2Pair(tokenUniswapPair);\n            uint ethReceived = msg.value;\n            uint ethToConvert = ethReceived.div(2);\n            uint ethToTransfer = ethReceived - ethToConvert;\n            uint[] memory amounts = uniswapRouterV2.swapExactETHForTokens{value: ethToConvert}(0,\n                getPathForETHToApex(), address(this), block.timestamp+15);\n            uint apexAmount = amounts[amounts.length - 1];\n            address WETH = uniswapRouterV2.WETH();\n            IWETH(WETH).deposit{value : ethToTransfer}();\n            safeApexTransfer(address(pair), apexAmount);\n            pair.mint(msg.sender);\n            totalLPTokensMinted = pair.balanceOf(msg.sender);\n            require(totalLPTokensMinted != 0 , \"LP creation failed\");\n        }\n    }\n\n    function liquidityGenerationUniswapENCORExWETHPair() public {\n        require(LPGenerationCompleted == false, \"Liquidity generation already finished\");\n        totalWhitelistContributed = address(this).balance;\n        IUniswapV2Pair pair = IUniswapV2Pair(tokenUniswapPair);\n\n        //Wrap eth\n        address WETH = uniswapRouterV2.WETH();\n        IWETH(WETH).deposit{value : totalWhitelistContributed}();\n        require(address(this).balance == 0 , \"Transfer Failed\");\n        IWETH(WETH).transfer(address(pair),totalWhitelistContributed);\n        emit Transfer(address(this), address(pair), apex.balanceOf(address(this)));\n        safeApexTransfer(address(pair), apex.balanceOf(address(this)));\n        pair.mint(address(this));\n        totalLPTokensMinted = pair.balanceOf(address(this));\n\n        require(totalLPTokensMinted != 0 , \"LP creation failed\");\n        LPperETHUnit = totalLPTokensMinted.mul(1e18).div(totalWhitelistContributed); // 1e18x for  change\n\n        require(LPperETHUnit != 0 , \"LP creation failed\");\n        LPGenerationCompleted = true;\n\n    }\n\n    function claimLPTokens() public {\n        require(LPGenerationCompleted, \"Event not over yet\");\n        require(whitelistContributed[msg.sender] > 0 , \"Nothing to claim, move along\");\n        require(LPGClaimed[msg.sender] == false, \"You have already claimed\");\n        IUniswapV2Pair pair = IUniswapV2Pair(tokenUniswapPair);\n        uint256 amountLPToTransfer = whitelistContributed[msg.sender].mul(LPperETHUnit).div(1e18);\n        pair.transfer(msg.sender, amountLPToTransfer); // stored as 1e18x value for change\n        LPGClaimed[msg.sender] == true;\n        emit LPTokenClaimed(msg.sender, amountLPToTransfer);\n    }\n\n    // Deposit tokens for APEX allocation.\n    function deposit(uint256 _pid, uint256 _amount) public {\n        require(_amount > 0, \"Deposit amount is invalid!\");\n        PoolInfo storage pool = poolInfo[_pid];\n        UserInfo storage user = userInfo[_pid][msg.sender];\n        updatePool(_pid);\n        if (user.amount > 0) {\n            uint256 pending = user.amount.mul(pool.accApexPerShare).div(1e12).sub(user.rewardDebt);\n            if(pending > 0) {\n                safeApexTransfer(msg.sender, pending);\n            }\n        }\n        checkRewardDecrease();\n        pool.poolToken.safeTransferFrom(address(msg.sender), address(this), _amount);\n        user.amount = user.amount.add(_amount);\n\n        user.rewardDebt = user.amount.mul(pool.accApexPerShare).div(1e12);\n        emit Deposit(msg.sender, _pid, _amount);\n    }\n\n    // Withdraw staked tokens.\n    function withdraw(uint256 _pid, uint256 _amount) public {\n        PoolInfo storage pool = poolInfo[_pid];\n        UserInfo storage user = userInfo[_pid][msg.sender];\n        require(user.amount >= _amount, \"withdraw: not good\");\n        updatePool(_pid);\n        uint256 pending = user.amount.mul(pool.accApexPerShare).div(1e12).sub(user.rewardDebt);\n        if(pending > 0) {\n            safeApexTransfer(msg.sender, pending);\n        }\n        checkRewardDecrease();\n        if(_amount > 0) {\n            user.amount = user.amount.sub(_amount);\n            pool.poolToken.safeTransfer(address(msg.sender), _amount);\n        }\n        user.rewardDebt = user.amount.mul(pool.accApexPerShare).div(1e12);\n        emit Withdraw(msg.sender, _pid, _amount);\n    }\n\n    // Withdraw without caring about rewards. EMERGENCY ONLY.\n    function emergencyWithdraw(uint256 _pid) public {\n        PoolInfo storage pool = poolInfo[_pid];\n        UserInfo storage user = userInfo[_pid][msg.sender];\n        pool.poolToken.safeTransfer(address(msg.sender), user.amount);\n        emit EmergencyWithdraw(msg.sender, _pid, user.amount);\n        user.amount = 0;\n        user.rewardDebt = 0;\n    }\n\n    // Safe APEX transfer function, just in case if rounding error causes pool to not have enough APEX.\n    function safeApexTransfer(address _to, uint256 _amount) internal {\n        uint256 apexBal = apex.balanceOf(address(this));\n        if (_amount > apexBal) {\n            apex.transfer(_to, apexBal);\n        } else {\n            apex.transfer(_to, _amount);\n        }\n    }\n\n    function getPathForETHToApex() private view returns (address[] memory) {\n        address[] memory path = new address[](2);\n        path[0] = uniswapRouterV2.WETH();\n        path[1] = address(apex);\n\n        return path;\n    }\n\n}\n",
  "sourcePath": "/home/pudin/dev/eattheblocks/screencast/235-fork-sushiswap/contracts/MasterChef.sol",
  "compiler": {
    "name": "solc",
    "version": "0.6.12+commit.27d51765.Emscripten.clang"
  },
  "schemaVersion": "3.3.1",
  "updatedAt": "2020-11-13T12:45:50.870Z",
  "networkType": "ethereum",
  "devdoc": {
    "kind": "dev",
    "methods": {
      "owner()": {
        "details": "Returns the address of the current owner."
      },
      "renounceOwnership()": {
        "details": "Leaves the contract without owner. It will not be possible to call `onlyOwner` functions anymore. Can only be called by the current owner. NOTE: Renouncing ownership will leave the contract without an owner, thereby removing any functionality that is only available to the owner."
      },
      "transferOwnership(address)": {
        "details": "Transfers ownership of the contract to a new account (`newOwner`). Can only be called by the current owner."
      }
    },
    "version": 1
  },
  "userdoc": {
    "kind": "user",
    "methods": {},
    "version": 1
  }
}